{
  "contractName": "OriginProduct",
  "abi": [
    {
      "constant": false,
      "inputs": [],
      "name": "pauseSupplyChain",
      "outputs": [],
      "payable": false,
      "stateMutability": "nonpayable",
      "type": "function"
    },
    {
      "constant": false,
      "inputs": [
        {
          "name": "_fullName",
          "type": "string"
        },
        {
          "name": "_dateOfBirth",
          "type": "string"
        },
        {
          "name": "_email",
          "type": "string"
        },
        {
          "name": "_role",
          "type": "uint256"
        },
        {
          "name": "_brand",
          "type": "string"
        }
      ],
      "name": "insertUser",
      "outputs": [
        {
          "name": "index",
          "type": "uint256"
        }
      ],
      "payable": false,
      "stateMutability": "nonpayable",
      "type": "function"
    },
    {
      "constant": true,
      "inputs": [
        {
          "name": "",
          "type": "address"
        }
      ],
      "name": "userStructs",
      "outputs": [
        {
          "name": "fullName",
          "type": "string"
        },
        {
          "name": "dateOfBirth",
          "type": "string"
        },
        {
          "name": "email",
          "type": "string"
        },
        {
          "name": "role",
          "type": "uint256"
        },
        {
          "name": "brand",
          "type": "string"
        },
        {
          "name": "active",
          "type": "bool"
        },
        {
          "name": "index",
          "type": "uint256"
        }
      ],
      "payable": false,
      "stateMutability": "view",
      "type": "function"
    },
    {
      "constant": true,
      "inputs": [],
      "name": "numberActions",
      "outputs": [
        {
          "name": "",
          "type": "uint256"
        }
      ],
      "payable": false,
      "stateMutability": "view",
      "type": "function"
    },
    {
      "constant": false,
      "inputs": [
        {
          "name": "_email",
          "type": "string"
        }
      ],
      "name": "updateUserEmail",
      "outputs": [
        {
          "name": "success",
          "type": "bool"
        }
      ],
      "payable": false,
      "stateMutability": "nonpayable",
      "type": "function"
    },
    {
      "constant": false,
      "inputs": [],
      "name": "deactivateUser",
      "outputs": [
        {
          "name": "success",
          "type": "bool"
        }
      ],
      "payable": false,
      "stateMutability": "nonpayable",
      "type": "function"
    },
    {
      "constant": true,
      "inputs": [],
      "name": "paused",
      "outputs": [
        {
          "name": "",
          "type": "bool"
        }
      ],
      "payable": false,
      "stateMutability": "view",
      "type": "function"
    },
    {
      "constant": false,
      "inputs": [],
      "name": "unPauseSupplyChain",
      "outputs": [],
      "payable": false,
      "stateMutability": "nonpayable",
      "type": "function"
    },
    {
      "constant": true,
      "inputs": [
        {
          "name": "_userAddress",
          "type": "address"
        }
      ],
      "name": "getUser",
      "outputs": [
        {
          "name": "_fullName",
          "type": "string"
        },
        {
          "name": "_dateOfBirth",
          "type": "string"
        },
        {
          "name": "_email",
          "type": "string"
        },
        {
          "name": "_role",
          "type": "uint256"
        },
        {
          "name": "_brand",
          "type": "string"
        },
        {
          "name": "active",
          "type": "bool"
        }
      ],
      "payable": false,
      "stateMutability": "view",
      "type": "function"
    },
    {
      "constant": true,
      "inputs": [
        {
          "name": "",
          "type": "address"
        },
        {
          "name": "",
          "type": "uint256"
        }
      ],
      "name": "userToProducts",
      "outputs": [
        {
          "name": "",
          "type": "uint256"
        }
      ],
      "payable": false,
      "stateMutability": "view",
      "type": "function"
    },
    {
      "constant": false,
      "inputs": [
        {
          "name": "_address",
          "type": "address"
        }
      ],
      "name": "ownerDeactivatesUser",
      "outputs": [
        {
          "name": "success",
          "type": "bool"
        }
      ],
      "payable": false,
      "stateMutability": "nonpayable",
      "type": "function"
    },
    {
      "constant": true,
      "inputs": [
        {
          "name": "",
          "type": "uint256"
        }
      ],
      "name": "products",
      "outputs": [
        {
          "name": "name",
          "type": "string"
        },
        {
          "name": "description",
          "type": "string"
        },
        {
          "name": "productType",
          "type": "string"
        },
        {
          "name": "quantity",
          "type": "uint256"
        },
        {
          "name": "owner",
          "type": "address"
        },
        {
          "name": "consumed",
          "type": "bool"
        },
        {
          "name": "active",
          "type": "bool"
        }
      ],
      "payable": false,
      "stateMutability": "view",
      "type": "function"
    },
    {
      "constant": true,
      "inputs": [
        {
          "name": "",
          "type": "uint256"
        }
      ],
      "name": "actions",
      "outputs": [
        {
          "name": "actioner",
          "type": "address"
        },
        {
          "name": "comment",
          "type": "string"
        },
        {
          "name": "time",
          "type": "uint256"
        },
        {
          "name": "place",
          "type": "string"
        }
      ],
      "payable": false,
      "stateMutability": "view",
      "type": "function"
    },
    {
      "constant": true,
      "inputs": [],
      "name": "owner",
      "outputs": [
        {
          "name": "",
          "type": "address"
        }
      ],
      "payable": false,
      "stateMutability": "view",
      "type": "function"
    },
    {
      "constant": false,
      "inputs": [
        {
          "name": "_newOwner",
          "type": "address"
        }
      ],
      "name": "changeOwner",
      "outputs": [],
      "payable": false,
      "stateMutability": "nonpayable",
      "type": "function"
    },
    {
      "constant": false,
      "inputs": [
        {
          "name": "_fullName",
          "type": "string"
        }
      ],
      "name": "updateUserFullName",
      "outputs": [
        {
          "name": "success",
          "type": "bool"
        }
      ],
      "payable": false,
      "stateMutability": "nonpayable",
      "type": "function"
    },
    {
      "constant": false,
      "inputs": [
        {
          "name": "_userAddress",
          "type": "address"
        }
      ],
      "name": "activateUser",
      "outputs": [
        {
          "name": "success",
          "type": "bool"
        }
      ],
      "payable": false,
      "stateMutability": "nonpayable",
      "type": "function"
    },
    {
      "constant": true,
      "inputs": [],
      "name": "getUserCount",
      "outputs": [
        {
          "name": "count",
          "type": "uint256"
        }
      ],
      "payable": false,
      "stateMutability": "view",
      "type": "function"
    },
    {
      "constant": false,
      "inputs": [
        {
          "name": "_dateOfBirth",
          "type": "string"
        }
      ],
      "name": "updateUserDateOfBirth",
      "outputs": [
        {
          "name": "success",
          "type": "bool"
        }
      ],
      "payable": false,
      "stateMutability": "nonpayable",
      "type": "function"
    },
    {
      "anonymous": false,
      "inputs": [
        {
          "indexed": false,
          "name": "owner",
          "type": "address"
        },
        {
          "indexed": false,
          "name": "_name",
          "type": "string"
        },
        {
          "indexed": false,
          "name": "_productType",
          "type": "string"
        },
        {
          "indexed": false,
          "name": "_description",
          "type": "string"
        },
        {
          "indexed": false,
          "name": "_quantity",
          "type": "uint256"
        },
        {
          "indexed": false,
          "name": "_place",
          "type": "string"
        }
      ],
      "name": "NewProduct",
      "type": "event"
    },
    {
      "anonymous": false,
      "inputs": [
        {
          "indexed": false,
          "name": "index",
          "type": "uint256"
        }
      ],
      "name": "ProductConsumed",
      "type": "event"
    },
    {
      "anonymous": false,
      "inputs": [
        {
          "indexed": false,
          "name": "_fullName",
          "type": "string"
        },
        {
          "indexed": false,
          "name": "_dateOfBirth",
          "type": "string"
        },
        {
          "indexed": false,
          "name": "_email",
          "type": "string"
        },
        {
          "indexed": false,
          "name": "_role",
          "type": "uint256"
        },
        {
          "indexed": false,
          "name": "_brand",
          "type": "string"
        }
      ],
      "name": "NewUser",
      "type": "event"
    },
    {
      "anonymous": false,
      "inputs": [
        {
          "indexed": false,
          "name": "_fullName",
          "type": "string"
        },
        {
          "indexed": false,
          "name": "_dateOfBirth",
          "type": "string"
        },
        {
          "indexed": false,
          "name": "_email",
          "type": "string"
        },
        {
          "indexed": false,
          "name": "_role",
          "type": "uint256"
        },
        {
          "indexed": false,
          "name": "_brand",
          "type": "string"
        },
        {
          "indexed": false,
          "name": "active",
          "type": "bool"
        }
      ],
      "name": "UpdateUser",
      "type": "event"
    },
    {
      "anonymous": false,
      "inputs": [],
      "name": "SupplyChainPaused",
      "type": "event"
    },
    {
      "anonymous": false,
      "inputs": [],
      "name": "SupplyChainUnPaused",
      "type": "event"
    },
    {
      "anonymous": false,
      "inputs": [],
      "name": "OwnerChanged",
      "type": "event"
    },
    {
      "constant": false,
      "inputs": [
        {
          "name": "_name",
          "type": "string"
        },
        {
          "name": "_productType",
          "type": "string"
        },
        {
          "name": "_description",
          "type": "string"
        },
        {
          "name": "_quantity",
          "type": "uint256"
        },
        {
          "name": "_place",
          "type": "string"
        }
      ],
      "name": "createProduct",
      "outputs": [
        {
          "name": "index",
          "type": "uint256"
        }
      ],
      "payable": false,
      "stateMutability": "nonpayable",
      "type": "function"
    },
    {
      "constant": true,
      "inputs": [
        {
          "name": "index",
          "type": "uint256"
        }
      ],
      "name": "getProductInfoAt",
      "outputs": [
        {
          "name": "owner",
          "type": "address"
        },
        {
          "name": "name",
          "type": "string"
        },
        {
          "name": "productType",
          "type": "string"
        },
        {
          "name": "quantity",
          "type": "uint256"
        },
        {
          "name": "description",
          "type": "string"
        },
        {
          "name": "consumed",
          "type": "bool"
        },
        {
          "name": "active",
          "type": "bool"
        }
      ],
      "payable": false,
      "stateMutability": "view",
      "type": "function"
    },
    {
      "constant": true,
      "inputs": [
        {
          "name": "productIndex",
          "type": "uint256"
        },
        {
          "name": "actionIndex",
          "type": "uint256"
        }
      ],
      "name": "getPathOfAt",
      "outputs": [
        {
          "name": "",
          "type": "address"
        },
        {
          "name": "",
          "type": "string"
        },
        {
          "name": "",
          "type": "string"
        },
        {
          "name": "",
          "type": "uint256"
        }
      ],
      "payable": false,
      "stateMutability": "view",
      "type": "function"
    },
    {
      "constant": true,
      "inputs": [
        {
          "name": "_user",
          "type": "address"
        }
      ],
      "name": "getAllUserProducts",
      "outputs": [
        {
          "name": "p",
          "type": "uint256[]"
        }
      ],
      "payable": false,
      "stateMutability": "view",
      "type": "function"
    },
    {
      "constant": false,
      "inputs": [
        {
          "name": "index",
          "type": "uint256"
        }
      ],
      "name": "consumeProduct",
      "outputs": [
        {
          "name": "succes",
          "type": "bool"
        }
      ],
      "payable": false,
      "stateMutability": "nonpayable",
      "type": "function"
    },
    {
      "constant": false,
      "inputs": [
        {
          "name": "index",
          "type": "uint256"
        }
      ],
      "name": "deactivateProduct",
      "outputs": [
        {
          "name": "success",
          "type": "bool"
        }
      ],
      "payable": false,
      "stateMutability": "nonpayable",
      "type": "function"
    },
    {
      "constant": false,
      "inputs": [
        {
          "name": "index",
          "type": "uint256"
        }
      ],
      "name": "activateProduct",
      "outputs": [
        {
          "name": "success",
          "type": "bool"
        }
      ],
      "payable": false,
      "stateMutability": "nonpayable",
      "type": "function"
    },
    {
      "constant": true,
      "inputs": [],
      "name": "getProductCount",
      "outputs": [
        {
          "name": "count",
          "type": "uint256"
        }
      ],
      "payable": false,
      "stateMutability": "view",
      "type": "function"
    }
  ],
  "bytecode": "0x608060405260008054600160a060020a031916331790556133d0806100256000396000f30060806040526004361061015e5763ffffffff7c0100000000000000000000000000000000000000000000000000000000600035041663070aff1c811461016357806317afb9511461017a57806319447eb6146102a557806332e086a11461048957806332f662f6146105a257806341970099146105ce578063470d3b4c146105e35780634a348da91461063c57806355ea20001461065157806357e541d0146106665780635c975abb146106d75780635f38a969146106ec5780636f77926b1461070157806372832e75146108de578063754cb3ba146109025780637acc0b2014610923578063800a263f14610a6557806383240f8314610a7d5780638a5964b414610b935780638da5cb5b14610ce15780639a84b25414610d12578063a6f9dae114610deb578063a9d959e514610e0c578063b4acfe1c14610e65578063b5cb15f714610e86578063e9f2bf8c14610e9b578063fd77e5de14610ef4575b600080fd5b34801561016f57600080fd5b50610178610f0c565b005b34801561018657600080fd5b506040805160206004803580820135601f810184900484028501840190955284845261029394369492936024939284019190819084018382808284375050604080516020601f89358b018035918201839004830284018301909452808352979a99988101979196509182019450925082915084018382808284375050604080516020601f89358b018035918201839004830284018301909452808352979a99988101979196509182019450925082915084018382808284375050604080516020601f818a01358b0180359182018390048302840183018552818452989b8a359b909a909994019750919550918201935091508190840183828082843750949750610f879650505050505050565b60408051918252519081900360200190f35b3480156102b157600080fd5b506102c6600160a060020a03600435166112af565b60405180806020018060200180602001888152602001806020018715151515815260200186815260200185810385528c818151815260200191508051906020019080838360005b8381101561032557818101518382015260200161030d565b50505050905090810190601f1680156103525780820380516001836020036101000a031916815260200191505b5085810384528b5181528b516020918201918d019080838360005b8381101561038557818101518382015260200161036d565b50505050905090810190601f1680156103b25780820380516001836020036101000a031916815260200191505b5085810383528a5181528a516020918201918c019080838360005b838110156103e55781810151838201526020016103cd565b50505050905090810190601f1680156104125780820380516001836020036101000a031916815260200191505b5085810382528851815288516020918201918a019080838360005b8381101561044557818101518382015260200161042d565b50505050905090810190601f1680156104725780820380516001836020036101000a031916815260200191505b509b50505050505050505050505060405180910390f35b34801561049557600080fd5b506040805160206004803580820135601f810184900484028501840190955284845261029394369492936024939284019190819084018382808284375050604080516020601f89358b018035918201839004830284018301909452808352979a99988101979196509182019450925082915084018382808284375050604080516020601f89358b018035918201839004830284018301909452808352979a99988101979196509182019450925082915084018382808284375050604080516020601f818a01358b0180359182018390048302840183018552818452989b8a359b909a9099940197509195509182019350915081908401838280828437509497506115229650505050505050565b3480156105ae57600080fd5b506105ba6004356119ab565b604080519115158252519081900360200190f35b3480156105da57600080fd5b50610293611a5f565b3480156105ef57600080fd5b506040805160206004803580820135601f81018490048402850184019095528484526105ba943694929360249392840191908190840183828082843750949750611a659650505050505050565b34801561064857600080fd5b50610293611d27565b34801561065d57600080fd5b506105ba611d47565b34801561067257600080fd5b50610687600160a060020a0360043516611fe4565b60408051602080825283518183015283519192839290830191858101910280838360005b838110156106c35781810151838201526020016106ab565b505050509050019250505060405180910390f35b3480156106e357600080fd5b506105ba61207c565b3480156106f857600080fd5b5061017861208c565b34801561070d57600080fd5b50610722600160a060020a0360043516612105565b60405180806020018060200180602001878152602001806020018615151515815260200185810385528b818151815260200191508051906020019080838360005b8381101561077b578181015183820152602001610763565b50505050905090810190601f1680156107a85780820380516001836020036101000a031916815260200191505b5085810384528a5181528a516020918201918c019080838360005b838110156107db5781810151838201526020016107c3565b50505050905090810190601f1680156108085780820380516001836020036101000a031916815260200191505b5085810383528951815289516020918201918b019080838360005b8381101561083b578181015183820152602001610823565b50505050905090810190601f1680156108685780820380516001836020036101000a031916815260200191505b50858103825287518152875160209182019189019080838360005b8381101561089b578181015183820152602001610883565b50505050905090810190601f1680156108c85780820380516001836020036101000a031916815260200191505b509a505050505050505050505060405180910390f35b3480156108ea57600080fd5b50610293600160a060020a03600435166024356123ea565b34801561090e57600080fd5b506105ba600160a060020a036004351661241a565b34801561092f57600080fd5b5061093b600435612526565b6040805160608101869052600160a060020a038516608082015283151560a082015282151560c082015260e08082528951908201528851909182916020808401928401916101008501918d019080838360005b838110156109a657818101518382015260200161098e565b50505050905090810190601f1680156109d35780820380516001836020036101000a031916815260200191505b5084810383528a5181528a516020918201918c019080838360005b83811015610a065781810151838201526020016109ee565b50505050905090810190601f168015610a335780820380516001836020036101000a031916815260200191505b5084810382528951815289516020918201918b019080838360008381101561089b578181015183820152602001610883565b348015610a7157600080fd5b506105ba600435612731565b348015610a8957600080fd5b50610a95600435612807565b6040518085600160a060020a0316600160a060020a031681526020018060200184815260200180602001838103835286818151815260200191508051906020019080838360005b83811015610af4578181015183820152602001610adc565b50505050905090810190601f168015610b215780820380516001836020036101000a031916815260200191505b50838103825284518152845160209182019186019080838360005b83811015610b54578181015183820152602001610b3c565b50505050905090810190601f168015610b815780820380516001836020036101000a031916815260200191505b50965050505050505060405180910390f35b348015610b9f57600080fd5b50610bab600435612953565b6040518088600160a060020a0316600160a060020a03168152602001806020018060200187815260200180602001861515151581526020018515151515815260200184810384528a818151815260200191508051906020019080838360005b83811015610c22578181015183820152602001610c0a565b50505050905090810190601f168015610c4f5780820380516001836020036101000a031916815260200191505b5084810383528951815289516020918201918b019080838360005b83811015610c82578181015183820152602001610c6a565b50505050905090810190601f168015610caf5780820380516001836020036101000a031916815260200191505b50848103825287518152875160209182019189019080838360008381101561089b578181015183820152602001610883565b348015610ced57600080fd5b50610cf6612ca1565b60408051600160a060020a039092168252519081900360200190f35b348015610d1e57600080fd5b50610d2d600435602435612cb0565b6040518085600160a060020a0316600160a060020a031681526020018060200180602001848152602001838103835286818151815260200191508051906020019080838360005b83811015610d8c578181015183820152602001610d74565b50505050905090810190601f168015610db95780820380516001836020036101000a031916815260200191505b508381038252855181528551602091820191870190808383600083811015610b54578181015183820152602001610b3c565b348015610df757600080fd5b50610178600160a060020a0360043516612ed8565b348015610e1857600080fd5b506040805160206004803580820135601f81018490048402850184019095528484526105ba943694929360249392840191908190840183828082843750949750612f6a9650505050505050565b348015610e7157600080fd5b506105ba600160a060020a0360043516612fd7565b348015610e9257600080fd5b506102936130ec565b348015610ea757600080fd5b506040805160206004803580820135601f81018490048402850184019095528484526105ba94369492936024939284019190819084018382808284375094975061310b9650505050505050565b348015610f0057600080fd5b506105ba60043561317e565b600054600160a060020a03163314610f2357600080fd5b60005460a060020a900460ff1615610f3a57600080fd5b6000805474ff0000000000000000000000000000000000000000191660a060020a1781556040517f9f169b4d6224654508c3ec6cf2a95651d3f144d8b96ab8742b58ac24816502b79190a1565b6000805460a060020a900460ff1615610f9f57600080fd5b610fa833613204565b15610fb257600080fd5b3360009081526001602090815260409091208751610fd29289019061325f565b503360009081526001602081815260409092208751610ff99391909201919088019061325f565b5033600090815260016020908152604090912085516110209260029092019187019061325f565b5033600090815260016020908152604090912060038101859055835161104e9260049092019185019061325f565b5033600081815260016020818152604080842060058101805460ff1916851790556002805494850190557f405787fa12a823e0f2b7631cc41b3ba8828b3321ca811111fa75cd3aa3bb5ace8401805473ffffffffffffffffffffffffffffffffffffffff191690961790955560069094019190915582516060810187905260a08082528a519082015289517f98c11ca29771dbb9d123d683d243fc07579d96f953898505abe9bb1da4d23aa6948b948b948b948b948b949193849384810193850192608086019260c08701928d0191908190849084905b8381101561113d578181015183820152602001611125565b50505050905090810190601f16801561116a5780820380516001836020036101000a031916815260200191505b5085810384528951815289516020918201918b019080838360005b8381101561119d578181015183820152602001611185565b50505050905090810190601f1680156111ca5780820380516001836020036101000a031916815260200191505b5085810383528851815288516020918201918a019080838360005b838110156111fd5781810151838201526020016111e5565b50505050905090810190601f16801561122a5780820380516001836020036101000a031916815260200191505b50858103825286518152865160209182019188019080838360005b8381101561125d578181015183820152602001611245565b50505050905090810190601f16801561128a5780820380516001836020036101000a031916815260200191505b50995050505050505050505060405180910390a1506002546000190195945050505050565b60016020818152600092835260409283902080548451600294821615610100026000190190911693909304601f81018390048302840183019094528383529283918301828280156113415780601f1061131657610100808354040283529160200191611341565b820191906000526020600020905b81548152906001019060200180831161132457829003601f168201915b505050505090806001018054600181600116156101000203166002900480601f0160208091040260200160405190810160405280929190818152602001828054600181600116156101000203166002900480156113df5780601f106113b4576101008083540402835291602001916113df565b820191906000526020600020905b8154815290600101906020018083116113c257829003601f168201915b50505060028085018054604080516020601f60001961010060018716150201909416959095049283018590048502810185019091528181529596959450909250908301828280156114715780601f1061144657610100808354040283529160200191611471565b820191906000526020600020905b81548152906001019060200180831161145457829003601f168201915b50505050600383015460048401805460408051602060026001851615610100026000190190941693909304601f810184900484028201840190925281815295969395939450908301828280156115085780601f106114dd57610100808354040283529160200191611508565b820191906000526020600020905b8154815290600101906020018083116114eb57829003601f168201915b505050506005830154600690930154919260ff1691905087565b600061152c6132dd565b60005460a060020a900460ff161561154357600080fd5b33151561154f57600080fd5b600580546000908152600460208181526040808420805473ffffffffffffffffffffffffffffffffffffffff19163317905580518082018252601381527f4372656174696f6e206f662050726f6475637400000000000000000000000000818401908152955485529290915290912090516115d192600192909201919061325f565b50600554600090815260046020908152604090912084516115fa9260039092019186019061325f565b5060055460009081526004602090815260408083204260029091015589845283018890528281018790526060830186905233608084015260c08301829052600160e0840181905260038054808301808355919094528451805192949193869360079093027fc2575a0e9e593c00f959f8c92f12db2869c3395a3b0502d05e2516446f71f85b019261168e928492019061325f565b5060208281015180516116a7926001850192019061325f565b50604082015180516116c391600284019160209091019061325f565b5060608201516003820155608082015160048201805473ffffffffffffffffffffffffffffffffffffffff1916600160a060020a0390921691909117905560a0820151805161171c916005840191602090910190613330565b5060c08201516006909101805460e09093015115156101000261ff001992151560ff19909416939093179190911691909117905560038054929091039350908390811061176557fe5b6000918252602080832060058054600790940290910181018054600181810183559186528386200193909355338085526006835260408086208054808701825590875284872001889055825490940190915582518181526080810189905260c08184018181528d51918301919091528c517f586a052f5133d7a9d945eae49c0b7b85af1e4fd1ffe1518a7589dd0f8356b45c9693958e958e958e958e958e959194909390850192606086019260a087019260e0880192908d0191908190849084905b8381101561183f578181015183820152602001611827565b50505050905090810190601f16801561186c5780820380516001836020036101000a031916815260200191505b5085810384528951815289516020918201918b019080838360005b8381101561189f578181015183820152602001611887565b50505050905090810190601f1680156118cc5780820380516001836020036101000a031916815260200191505b5085810383528851815288516020918201918a019080838360005b838110156118ff5781810151838201526020016118e7565b50505050905090810190601f16801561192c5780820380516001836020036101000a031916815260200191505b50858103825286518152865160209182019188019080838360005b8381101561195f578181015183820152602001611947565b50505050905090810190601f16801561198c5780820380516001836020036101000a031916815260200191505b509a505050505050505050505060405180910390a15095945050505050565b60008054600160a060020a031633146119c357600080fd5b60005460a060020a900460ff16156119da57600080fd5b60035482106119e857600080fd5b60038054839081106119f657fe5b6000918252602090912060079091020160060154610100900460ff1615611a1c57600080fd5b6001600383815481101515611a2d57fe5b906000526020600020906007020160060160016101000a81548160ff021916908315150217905550600190505b919050565b60055481565b6000805460a060020a900460ff1615611a7d57600080fd5b611a8633613204565b1515611a9157600080fd5b3360009081526001602052604090206005015460ff161515611ab257600080fd5b3360009081526001602090815260409091208351611ad89260029092019185019061325f565b50336000908152600160208181526040928390206003810154600582015485516060810183905260ff90911680151560a083015260c080835284546002600019828a16156101000201909116819004918401829052600080516020613385833981519152989597880196908801956004890194928392830191830190608084019060e08501908c908015611bad5780601f10611b8257610100808354040283529160200191611bad565b820191906000526020600020905b815481529060010190602001808311611b9057829003601f168201915b505085810384528a54600260001961010060018416150201909116048082526020909101908b908015611c215780601f10611bf657610100808354040283529160200191611c21565b820191906000526020600020905b815481529060010190602001808311611c0457829003601f168201915b505085810383528954600260001961010060018416150201909116048082526020909101908a908015611c955780601f10611c6a57610100808354040283529160200191611c95565b820191906000526020600020905b815481529060010190602001808311611c7857829003601f168201915b5050858103825287546002600019610100600184161502019091160480825260209091019088908015611d095780601f10611cde57610100808354040283529160200191611d09565b820191906000526020600020905b815481529060010190602001808311611cec57829003601f168201915b50509a505050505050505050505060405180910390a1506001919050565b6000805460a060020a900460ff1615611d3f57600080fd5b506003545b90565b6000805460a060020a900460ff1615611d5f57600080fd5b611d6833613204565b1515611d7357600080fd5b3360009081526001602052604090206005015460ff161515611d9457600080fd5b33600090815260016020818152604080842060058101805460ff19169055600381015482516060810182905260a0810187905260c080825283546002600019828a1615610100020190911681900491830182905260008051602061338583398151915298949788019690880195939460048901949093928392830191830190608084019060e08501908c908015611e6c5780601f10611e4157610100808354040283529160200191611e6c565b820191906000526020600020905b815481529060010190602001808311611e4f57829003601f168201915b505085810384528a54600260001961010060018416150201909116048082526020909101908b908015611ee05780601f10611eb557610100808354040283529160200191611ee0565b820191906000526020600020905b815481529060010190602001808311611ec357829003601f168201915b505085810383528954600260001961010060018416150201909116048082526020909101908a908015611f545780601f10611f2957610100808354040283529160200191611f54565b820191906000526020600020905b815481529060010190602001808311611f3757829003601f168201915b5050858103825287546002600019610100600184161502019091160480825260209091019088908015611fc85780601f10611f9d57610100808354040283529160200191611fc8565b820191906000526020600020905b815481529060010190602001808311611fab57829003601f168201915b50509a505050505050505050505060405180910390a150600190565b60005460609060a060020a900460ff1615611ffe57600080fd5b61200782613204565b151561201257600080fd5b600160a060020a0382166000908152600660209081526040918290208054835181840281018401909452808452909183018282801561207057602002820191906000526020600020905b81548152602001906001019080831161205c575b50505050509050919050565b60005460a060020a900460ff1681565b600054600160a060020a031633146120a357600080fd5b60005460a060020a900460ff1615156001146120be57600080fd5b6000805474ff0000000000000000000000000000000000000000191681556040517f1f9a5f2ae53bba1390ac0766ace24e59e82481665cf401fa45dcfd1dcce14fb39190a1565b6000805460609182918291908290829060a060020a900460ff161561212957600080fd5b61213287613204565b151561213d57600080fd5b600160a060020a03871660009081526001602052604090206005015460ff16151561216757600080fd5b600160a060020a03871660009081526001602081815260409283902060038101546005820154825486516002610100838916150260001901909216829004601f8101879004870282018701909852878152939695870195908701949293600488019360ff90931692909188918301828280156122245780601f106121f957610100808354040283529160200191612224565b820191906000526020600020905b81548152906001019060200180831161220757829003601f168201915b5050885460408051602060026001851615610100026000190190941693909304601f8101849004840282018401909252818152959b508a9450925084019050828280156122b25780601f10612287576101008083540402835291602001916122b2565b820191906000526020600020905b81548152906001019060200180831161229557829003601f168201915b5050875460408051602060026001851615610100026000190190941693909304601f8101849004840282018401909252818152959a50899450925084019050828280156123405780601f1061231557610100808354040283529160200191612340565b820191906000526020600020905b81548152906001019060200180831161232357829003601f168201915b5050855460408051602060026001851615610100026000190190941693909304601f8101849004840282018401909252818152959950879450925084019050828280156123ce5780601f106123a3576101008083540402835291602001916123ce565b820191906000526020600020905b8154815290600101906020018083116123b157829003601f168201915b5050505050915095509550955095509550955091939550919395565b60066020528160005260406000208181548110151561240557fe5b90600052602060002001600091509150505481565b60008054600160a060020a0316331461243257600080fd5b61243b82613204565b151561244657600080fd5b600160a060020a03821660009081526001602052604090206005015460ff16151561247057600080fd5b600160a060020a038216600090815260016020818152604080842060058101805460ff19169055600381015482516060810182905260a0810187905260c080825283546002600019828a1615610100020190911681900491830182905260008051602061338583398151915298949788019690880195939460048901949093928392830191830190608084019060e08501908c908015611bad5780601f10611b8257610100808354040283529160200191611bad565b600380548290811061253457fe5b60009182526020918290206007919091020180546040805160026001841615610100026000190190931692909204601f8101859004850283018501909152808252919350918391908301828280156125cd5780601f106125a2576101008083540402835291602001916125cd565b820191906000526020600020905b8154815290600101906020018083116125b057829003601f168201915b505050505090806001018054600181600116156101000203166002900480601f01602080910402602001604051908101604052809291908181526020018280546001816001161561010002031660029004801561266b5780601f106126405761010080835404028352916020019161266b565b820191906000526020600020905b81548152906001019060200180831161264e57829003601f168201915b50505060028085018054604080516020601f60001961010060018716150201909416959095049283018590048502810185019091528181529596959450909250908301828280156126fd5780601f106126d2576101008083540402835291602001916126fd565b820191906000526020600020905b8154815290600101906020018083116126e057829003601f168201915b505050506003830154600484015460069094015492939092600160a060020a03909116915060ff8082169161010090041687565b6000805460a060020a900460ff161561274957600080fd5b600354821061275757600080fd5b600380548390811061276557fe5b906000526020600020906007020160060160019054906101000a900460ff16151561278f57600080fd5b60016003838154811015156127a057fe5b906000526020600020906007020160060160006101000a81548160ff0219169083151502179055507f89c80667ed928fc2bc613d87ce660bff4977c391f25f898a16f9c0a48aa41e09826040518082815260200191505060405180910390a1506001919050565b6004602090815260009182526040918290208054600180830180548651600261010094831615949094026000190190911692909204601f8101869004860283018601909652858252600160a060020a039092169492939092908301828280156128b15780601f10612886576101008083540402835291602001916128b1565b820191906000526020600020905b81548152906001019060200180831161289457829003601f168201915b505050506002838101546003850180546040805160206001841615610100026000190190931695909504601f8101839004830286018301909152808552959692959294509091908301828280156129495780601f1061291e57610100808354040283529160200191612949565b820191906000526020600020905b81548152906001019060200180831161292c57829003601f168201915b5050505050905084565b6000606080600060606000806129676132dd565b60005460a060020a900460ff161561297e57600080fd5b600354891061298c57600080fd5b600380548a90811061299a57fe5b906000526020600020906007020160060160019054906101000a900460ff1615156129c457600080fd5b600380548a9081106129d257fe5b60009182526020918290206040805160079390930290910180546002610100600183161581026000190190921604601f81018690049095028401610120908101909352830184815292939092849290918491840182828015612a755780601f10612a4a57610100808354040283529160200191612a75565b820191906000526020600020905b815481529060010190602001808311612a5857829003601f168201915b50505050508152602001600182018054600181600116156101000203166002900480601f016020809104026020016040519081016040528092919081815260200182805460018160011615610100020316600290048015612b175780601f10612aec57610100808354040283529160200191612b17565b820191906000526020600020905b815481529060010190602001808311612afa57829003601f168201915b5050509183525050600282810180546040805160206001841615610100026000190190931694909404601f81018390048302850183019091528084529381019390830182828015612ba95780601f10612b7e57610100808354040283529160200191612ba9565b820191906000526020600020905b815481529060010190602001808311612b8c57829003601f168201915b50505050508152602001600382015481526020016004820160009054906101000a9004600160a060020a0316600160a060020a0316600160a060020a0316815260200160058201805480602002602001604051908101604052809291908181526020018280548015612c3a57602002820191906000526020600020905b815481526020019060010190808311612c26575b50505091835250506006919091015460ff8082161515602080850191909152610100909204161515604092830152608083015183519284015160608501519285015160c086015160e090960151929f949e50909c50919a5090985091965090945092505050565b600054600160a060020a031681565b6000805460609081908390819060a060020a900460ff1615612cd157600080fd5b6003548710612cdf57600080fd5b6003805488908110612ced57fe5b60009182526020909120600560079092020101548610612d0c57600080fd5b6003805488908110612d1a57fe5b906000526020600020906007020160060160019054906101000a900460ff161515612d4457600080fd5b6003805488908110612d5257fe5b906000526020600020906007020160050186815481101515612d7057fe5b6000918252602080832091909101548083526004825260409283902080546002808301546001808501805489516101009382161593909302600019011693909304601f8101889004880282018801909852878152949750600160a060020a039092169590946003909301939192859190830182828015612e315780601f10612e0657610100808354040283529160200191612e31565b820191906000526020600020905b815481529060010190602001808311612e1457829003601f168201915b5050855460408051602060026001851615610100026000190190941693909304601f810184900484028201840190925281815295985087945092508401905082828015612ebf5780601f10612e9457610100808354040283529160200191612ebf565b820191906000526020600020905b815481529060010190602001808311612ea257829003601f168201915b5050505050915094509450945094505092959194509250565b600054600160a060020a03163314612eef57600080fd5b60005460a060020a900460ff1615612f0657600080fd5b600160a060020a03811615612f3e576000805473ffffffffffffffffffffffffffffffffffffffff1916600160a060020a0383161790555b6040517fa210d63b5a22487066397c631c738bc560e60390098601461599961c472139f090600090a150565b6000805460a060020a900460ff1615612f8257600080fd5b612f8b33613204565b1515612f9657600080fd5b3360009081526001602052604090206005015460ff161515612fb757600080fd5b3360009081526001602090815260409091208351611ad89285019061325f565b60008054600160a060020a03163314612fef57600080fd5b612ff882613204565b151561300357600080fd5b600160a060020a03821660009081526001602052604090206005015460ff161561302c57600080fd5b600160a060020a03821660009081526001602081815260409283902060058101805460ff1916841790819055600382015485516060810182905260ff90921680151560a084015260c080845284546002610100828a16150260001901909116819004918501829052600080516020613385833981519152989597880196908801959394600489019490928392830191830190608084019060e08501908c908015611bad5780601f10611b8257610100808354040283529160200191611bad565b6000805460a060020a900460ff161561310457600080fd5b5060025490565b6000805460a060020a900460ff161561312357600080fd5b61312c33613204565b151561313757600080fd5b3360009081526001602052604090206005015460ff16151561315857600080fd5b3360009081526001602081815260409092208451611ad89391909201919085019061325f565b60008054600160a060020a0316331461319657600080fd5b60005460a060020a900460ff16156131ad57600080fd5b60035482106131bb57600080fd5b60038054839081106131c957fe5b906000526020600020906007020160060160019054906101000a900460ff1615156131f357600080fd5b6000600383815481101515611a2d57fe5b600254600090151561321857506000611a5a565b600160a060020a03821660008181526001602052604090206006015460028054909190811061324357fe5b600091825260209091200154600160a060020a03161492915050565b828054600181600116156101000203166002900490600052602060002090601f016020900481019282601f106132a057805160ff19168380011785556132cd565b828001600101855582156132cd579182015b828111156132cd5782518255916020019190600101906132b2565b506132d992915061336a565b5090565b61010060405190810160405280606081526020016060815260200160608152602001600081526020016000600160a060020a03168152602001606081526020016000151581526020016000151581525090565b8280548282559060005260206000209081019282156132cd57916020028201828111156132cd5782518255916020019190600101906132b2565b611d4491905b808211156132d957600081556001016133705600bf761d4376a3be9c4ae32a4d5bf182294aa68336242f44bd973b0e722910526da165627a7a7230582072f82892176a359e57366400441719748ca864daca573e3ec64971198be90a5d0029",
  "source": "pragma solidity ^0.4.23;\r\n\r\nimport \"./OriginUser.sol\";\r\n\r\ncontract OriginProduct is OriginUser{\r\n\r\n    struct Action{\r\n        address actioner;\r\n        string comment;\r\n        uint time;\r\n        string place;\r\n    }\r\n\r\n    struct ProductStruct{\r\n        string name;\r\n        string description;\r\n        string productType;\r\n        uint quantity;\r\n        address owner;\r\n        uint[] path;\r\n        bool consumed;\r\n        bool active;\r\n    }\r\n\r\n    event NewProduct(address owner, string _name, string _productType, string _description, uint _quantity, string _place);\r\n    event ProductConsumed(uint index);\r\n\r\n    ProductStruct[] public products;\r\n    mapping (uint => Action) public actions;\r\n    uint public numberActions ;\r\n    mapping (address => uint[]) public userToProducts;\r\n\r\n\r\n    // a mapping for ownership mapping (address => uint[]) each address has an array of products that the company/address owns\r\n    // for notifications use mapping (address => uint[]) each address has an array of product ids to be verified on the supply chain\r\n\r\n    function createProduct(string _name, string _productType, string _description, uint _quantity, string _place) public unpausedSupplyChain returns (uint index) {\r\n        require(msg.sender != address(0));\r\n\r\n        //create the first action\r\n        actions[numberActions].actioner = msg.sender;\r\n        actions[numberActions].comment = \"Creation of Product\";\r\n        actions[numberActions].place = _place;\r\n        actions[numberActions].time = now;\r\n\r\n        // Create the product\r\n        ProductStruct memory product;\r\n        product.name = _name;\r\n        product.productType = _productType;\r\n        product.description = _description;\r\n        product.quantity = _quantity;\r\n        product.owner = msg.sender;\r\n        product.consumed = false;\r\n        product.active = true;\r\n\r\n        index = products.push(product) - 1;\r\n        products[index].path.push(numberActions);\r\n\r\n        userToProducts[msg.sender].push(index);\r\n\r\n        numberActions = numberActions + 1;\r\n\r\n        emit NewProduct(msg.sender, _name, _productType, _description, _quantity, _place);\r\n\r\n        return index;\r\n    }\r\n\r\n\r\n\r\n    function getProductInfoAt(uint index) public view unpausedSupplyChain returns (address owner, string name, string productType, uint quantity, string description, bool consumed, bool active) {\r\n        require(index < products.length);\r\n        require(products[index].active);\r\n\r\n        ProductStruct memory _product = products[index];\r\n        return (_product.owner, _product.name, _product.productType, _product.quantity, _product.description, _product.consumed, _product.active);\r\n    }\r\n\r\n\r\n    function getPathOfAt(uint productIndex, uint actionIndex) public view unpausedSupplyChain returns(address, string, string, uint){\r\n        require(productIndex < products.length);\r\n        require(actionIndex < products[productIndex].path.length);\r\n        require(products[productIndex].active);\r\n\r\n        uint index = products[productIndex].path[actionIndex];\r\n        return (actions[index].actioner, actions[index].comment, actions[index].place, actions[index].time);\r\n\r\n    }\r\n\r\n    function getAllUserProducts(address _user) public view unpausedSupplyChain returns (uint[] p){\r\n        require(isUser(_user));\r\n        return userToProducts[_user];\r\n    }\r\n\r\n    function consumeProduct(uint index) public unpausedSupplyChain returns (bool succes){\r\n        require(index < products.length);\r\n        require(products[index].active);\r\n\r\n        products[index].consumed = true;\r\n\r\n        emit ProductConsumed(index);\r\n\r\n        return true;\r\n    }\r\n\r\n    function deactivateProduct(uint index) public onlyOwner unpausedSupplyChain returns (bool success){\r\n        require(index < products.length);\r\n        require(products[index].active);\r\n\r\n        products[index].active = false;\r\n\r\n        return true;\r\n    }\r\n\r\n    function activateProduct(uint index) public onlyOwner unpausedSupplyChain returns (bool success){\r\n        require(index < products.length);\r\n        require(!products[index].active);\r\n\r\n        products[index].active = true;\r\n\r\n        return true;\r\n    }\r\n\r\n    function getProductCount() public view unpausedSupplyChain returns (uint count){\r\n        return products.length;\r\n    }\r\n\r\n}",
  "sourcePath": "C:\\Users\\ab\\Desktop\\web apps\\projects\\origin\\contracts\\OriginProduct.sol",
  "compiler": {
    "name": "solc",
    "version": "0.4.24+commit.e67f0147.Emscripten.clang"
  },
  "schemaVersion": "2.0.1",
  "updatedAt": "2018-08-18T14:40:26.599Z"
}