{
  "contractName": "OriginCore",
  "abi": [
    {
      "constant": false,
      "inputs": [],
      "name": "pauseSupplyChain",
      "outputs": [],
      "payable": false,
      "stateMutability": "nonpayable",
      "type": "function"
    },
    {
      "constant": false,
      "inputs": [
        {
          "name": "_fullName",
          "type": "string"
        },
        {
          "name": "_dateOfBirth",
          "type": "string"
        },
        {
          "name": "_email",
          "type": "string"
        },
        {
          "name": "_role",
          "type": "uint256"
        },
        {
          "name": "_brand",
          "type": "string"
        }
      ],
      "name": "insertUser",
      "outputs": [
        {
          "name": "index",
          "type": "uint256"
        }
      ],
      "payable": false,
      "stateMutability": "nonpayable",
      "type": "function"
    },
    {
      "constant": true,
      "inputs": [
        {
          "name": "",
          "type": "address"
        }
      ],
      "name": "userStructs",
      "outputs": [
        {
          "name": "fullName",
          "type": "string"
        },
        {
          "name": "dateOfBirth",
          "type": "string"
        },
        {
          "name": "email",
          "type": "string"
        },
        {
          "name": "role",
          "type": "uint256"
        },
        {
          "name": "brand",
          "type": "string"
        },
        {
          "name": "active",
          "type": "bool"
        },
        {
          "name": "index",
          "type": "uint256"
        }
      ],
      "payable": false,
      "stateMutability": "view",
      "type": "function"
    },
    {
      "constant": false,
      "inputs": [
        {
          "name": "_name",
          "type": "string"
        },
        {
          "name": "_productType",
          "type": "string"
        },
        {
          "name": "_description",
          "type": "string"
        },
        {
          "name": "_quantity",
          "type": "uint256"
        },
        {
          "name": "_place",
          "type": "string"
        }
      ],
      "name": "createProduct",
      "outputs": [
        {
          "name": "index",
          "type": "uint256"
        }
      ],
      "payable": false,
      "stateMutability": "nonpayable",
      "type": "function"
    },
    {
      "constant": false,
      "inputs": [
        {
          "name": "index",
          "type": "uint256"
        }
      ],
      "name": "activateProduct",
      "outputs": [
        {
          "name": "success",
          "type": "bool"
        }
      ],
      "payable": false,
      "stateMutability": "nonpayable",
      "type": "function"
    },
    {
      "constant": true,
      "inputs": [],
      "name": "numberActions",
      "outputs": [
        {
          "name": "",
          "type": "uint256"
        }
      ],
      "payable": false,
      "stateMutability": "view",
      "type": "function"
    },
    {
      "constant": false,
      "inputs": [
        {
          "name": "_email",
          "type": "string"
        }
      ],
      "name": "updateUserEmail",
      "outputs": [
        {
          "name": "success",
          "type": "bool"
        }
      ],
      "payable": false,
      "stateMutability": "nonpayable",
      "type": "function"
    },
    {
      "constant": true,
      "inputs": [],
      "name": "getProductCount",
      "outputs": [
        {
          "name": "count",
          "type": "uint256"
        }
      ],
      "payable": false,
      "stateMutability": "view",
      "type": "function"
    },
    {
      "constant": false,
      "inputs": [],
      "name": "deactivateUser",
      "outputs": [
        {
          "name": "success",
          "type": "bool"
        }
      ],
      "payable": false,
      "stateMutability": "nonpayable",
      "type": "function"
    },
    {
      "constant": true,
      "inputs": [
        {
          "name": "_user",
          "type": "address"
        }
      ],
      "name": "getAllUserProducts",
      "outputs": [
        {
          "name": "p",
          "type": "uint256[]"
        }
      ],
      "payable": false,
      "stateMutability": "view",
      "type": "function"
    },
    {
      "constant": true,
      "inputs": [],
      "name": "paused",
      "outputs": [
        {
          "name": "",
          "type": "bool"
        }
      ],
      "payable": false,
      "stateMutability": "view",
      "type": "function"
    },
    {
      "constant": false,
      "inputs": [],
      "name": "unPauseSupplyChain",
      "outputs": [],
      "payable": false,
      "stateMutability": "nonpayable",
      "type": "function"
    },
    {
      "constant": true,
      "inputs": [
        {
          "name": "",
          "type": "address"
        },
        {
          "name": "",
          "type": "uint256"
        }
      ],
      "name": "notifications",
      "outputs": [
        {
          "name": "",
          "type": "uint256"
        }
      ],
      "payable": false,
      "stateMutability": "view",
      "type": "function"
    },
    {
      "constant": true,
      "inputs": [
        {
          "name": "_userAddress",
          "type": "address"
        }
      ],
      "name": "getUser",
      "outputs": [
        {
          "name": "_fullName",
          "type": "string"
        },
        {
          "name": "_dateOfBirth",
          "type": "string"
        },
        {
          "name": "_email",
          "type": "string"
        },
        {
          "name": "_role",
          "type": "uint256"
        },
        {
          "name": "_brand",
          "type": "string"
        },
        {
          "name": "active",
          "type": "bool"
        }
      ],
      "payable": false,
      "stateMutability": "view",
      "type": "function"
    },
    {
      "constant": true,
      "inputs": [
        {
          "name": "",
          "type": "address"
        },
        {
          "name": "",
          "type": "uint256"
        }
      ],
      "name": "userToProducts",
      "outputs": [
        {
          "name": "",
          "type": "uint256"
        }
      ],
      "payable": false,
      "stateMutability": "view",
      "type": "function"
    },
    {
      "constant": false,
      "inputs": [
        {
          "name": "_address",
          "type": "address"
        }
      ],
      "name": "ownerDeactivatesUser",
      "outputs": [
        {
          "name": "success",
          "type": "bool"
        }
      ],
      "payable": false,
      "stateMutability": "nonpayable",
      "type": "function"
    },
    {
      "constant": true,
      "inputs": [
        {
          "name": "",
          "type": "address"
        },
        {
          "name": "",
          "type": "uint256"
        }
      ],
      "name": "history",
      "outputs": [
        {
          "name": "",
          "type": "uint256"
        }
      ],
      "payable": false,
      "stateMutability": "view",
      "type": "function"
    },
    {
      "constant": true,
      "inputs": [
        {
          "name": "",
          "type": "uint256"
        }
      ],
      "name": "products",
      "outputs": [
        {
          "name": "name",
          "type": "string"
        },
        {
          "name": "description",
          "type": "string"
        },
        {
          "name": "productType",
          "type": "string"
        },
        {
          "name": "quantity",
          "type": "uint256"
        },
        {
          "name": "owner",
          "type": "address"
        },
        {
          "name": "consumed",
          "type": "bool"
        },
        {
          "name": "active",
          "type": "bool"
        }
      ],
      "payable": false,
      "stateMutability": "view",
      "type": "function"
    },
    {
      "constant": false,
      "inputs": [
        {
          "name": "index",
          "type": "uint256"
        }
      ],
      "name": "consumeProduct",
      "outputs": [
        {
          "name": "succes",
          "type": "bool"
        }
      ],
      "payable": false,
      "stateMutability": "nonpayable",
      "type": "function"
    },
    {
      "constant": true,
      "inputs": [
        {
          "name": "",
          "type": "uint256"
        }
      ],
      "name": "actions",
      "outputs": [
        {
          "name": "actioner",
          "type": "address"
        },
        {
          "name": "comment",
          "type": "string"
        },
        {
          "name": "time",
          "type": "uint256"
        },
        {
          "name": "place",
          "type": "string"
        }
      ],
      "payable": false,
      "stateMutability": "view",
      "type": "function"
    },
    {
      "constant": true,
      "inputs": [
        {
          "name": "index",
          "type": "uint256"
        }
      ],
      "name": "getProductInfoAt",
      "outputs": [
        {
          "name": "owner",
          "type": "address"
        },
        {
          "name": "name",
          "type": "string"
        },
        {
          "name": "productType",
          "type": "string"
        },
        {
          "name": "quantity",
          "type": "uint256"
        },
        {
          "name": "description",
          "type": "string"
        },
        {
          "name": "consumed",
          "type": "bool"
        },
        {
          "name": "active",
          "type": "bool"
        }
      ],
      "payable": false,
      "stateMutability": "view",
      "type": "function"
    },
    {
      "constant": true,
      "inputs": [],
      "name": "owner",
      "outputs": [
        {
          "name": "",
          "type": "address"
        }
      ],
      "payable": false,
      "stateMutability": "view",
      "type": "function"
    },
    {
      "constant": true,
      "inputs": [
        {
          "name": "productIndex",
          "type": "uint256"
        },
        {
          "name": "actionIndex",
          "type": "uint256"
        }
      ],
      "name": "getPathOfAt",
      "outputs": [
        {
          "name": "",
          "type": "address"
        },
        {
          "name": "",
          "type": "string"
        },
        {
          "name": "",
          "type": "string"
        },
        {
          "name": "",
          "type": "uint256"
        }
      ],
      "payable": false,
      "stateMutability": "view",
      "type": "function"
    },
    {
      "constant": false,
      "inputs": [
        {
          "name": "_newOwner",
          "type": "address"
        }
      ],
      "name": "changeOwner",
      "outputs": [],
      "payable": false,
      "stateMutability": "nonpayable",
      "type": "function"
    },
    {
      "constant": false,
      "inputs": [
        {
          "name": "_fullName",
          "type": "string"
        }
      ],
      "name": "updateUserFullName",
      "outputs": [
        {
          "name": "success",
          "type": "bool"
        }
      ],
      "payable": false,
      "stateMutability": "nonpayable",
      "type": "function"
    },
    {
      "constant": false,
      "inputs": [
        {
          "name": "_userAddress",
          "type": "address"
        }
      ],
      "name": "activateUser",
      "outputs": [
        {
          "name": "success",
          "type": "bool"
        }
      ],
      "payable": false,
      "stateMutability": "nonpayable",
      "type": "function"
    },
    {
      "constant": true,
      "inputs": [],
      "name": "getUserCount",
      "outputs": [
        {
          "name": "count",
          "type": "uint256"
        }
      ],
      "payable": false,
      "stateMutability": "view",
      "type": "function"
    },
    {
      "constant": false,
      "inputs": [
        {
          "name": "_dateOfBirth",
          "type": "string"
        }
      ],
      "name": "updateUserDateOfBirth",
      "outputs": [
        {
          "name": "success",
          "type": "bool"
        }
      ],
      "payable": false,
      "stateMutability": "nonpayable",
      "type": "function"
    },
    {
      "constant": false,
      "inputs": [
        {
          "name": "index",
          "type": "uint256"
        }
      ],
      "name": "deactivateProduct",
      "outputs": [
        {
          "name": "success",
          "type": "bool"
        }
      ],
      "payable": false,
      "stateMutability": "nonpayable",
      "type": "function"
    },
    {
      "anonymous": false,
      "inputs": [
        {
          "indexed": false,
          "name": "productId",
          "type": "uint256"
        }
      ],
      "name": "NewAction",
      "type": "event"
    },
    {
      "anonymous": false,
      "inputs": [
        {
          "indexed": false,
          "name": "owner",
          "type": "address"
        },
        {
          "indexed": false,
          "name": "_name",
          "type": "string"
        },
        {
          "indexed": false,
          "name": "_productType",
          "type": "string"
        },
        {
          "indexed": false,
          "name": "_description",
          "type": "string"
        },
        {
          "indexed": false,
          "name": "_quantity",
          "type": "uint256"
        },
        {
          "indexed": false,
          "name": "_place",
          "type": "string"
        }
      ],
      "name": "NewProduct",
      "type": "event"
    },
    {
      "anonymous": false,
      "inputs": [
        {
          "indexed": false,
          "name": "index",
          "type": "uint256"
        }
      ],
      "name": "ProductConsumed",
      "type": "event"
    },
    {
      "anonymous": false,
      "inputs": [
        {
          "indexed": false,
          "name": "_fullName",
          "type": "string"
        },
        {
          "indexed": false,
          "name": "_dateOfBirth",
          "type": "string"
        },
        {
          "indexed": false,
          "name": "_email",
          "type": "string"
        },
        {
          "indexed": false,
          "name": "_role",
          "type": "uint256"
        },
        {
          "indexed": false,
          "name": "_brand",
          "type": "string"
        }
      ],
      "name": "NewUser",
      "type": "event"
    },
    {
      "anonymous": false,
      "inputs": [
        {
          "indexed": false,
          "name": "_fullName",
          "type": "string"
        },
        {
          "indexed": false,
          "name": "_dateOfBirth",
          "type": "string"
        },
        {
          "indexed": false,
          "name": "_email",
          "type": "string"
        },
        {
          "indexed": false,
          "name": "_role",
          "type": "uint256"
        },
        {
          "indexed": false,
          "name": "_brand",
          "type": "string"
        },
        {
          "indexed": false,
          "name": "active",
          "type": "bool"
        }
      ],
      "name": "UpdateUser",
      "type": "event"
    },
    {
      "anonymous": false,
      "inputs": [],
      "name": "SupplyChainPaused",
      "type": "event"
    },
    {
      "anonymous": false,
      "inputs": [],
      "name": "SupplyChainUnPaused",
      "type": "event"
    },
    {
      "anonymous": false,
      "inputs": [],
      "name": "OwnerChanged",
      "type": "event"
    },
    {
      "constant": false,
      "inputs": [
        {
          "name": "_user",
          "type": "address"
        },
        {
          "name": "_productId",
          "type": "uint256"
        }
      ],
      "name": "removeNotification",
      "outputs": [
        {
          "name": "",
          "type": "bool"
        }
      ],
      "payable": false,
      "stateMutability": "nonpayable",
      "type": "function"
    },
    {
      "constant": true,
      "inputs": [
        {
          "name": "_user",
          "type": "address"
        },
        {
          "name": "_product",
          "type": "uint256"
        }
      ],
      "name": "userCanAddAction",
      "outputs": [
        {
          "name": "success",
          "type": "bool"
        }
      ],
      "payable": false,
      "stateMutability": "view",
      "type": "function"
    },
    {
      "constant": false,
      "inputs": [
        {
          "name": "_productId",
          "type": "uint256"
        },
        {
          "name": "_comment",
          "type": "string"
        },
        {
          "name": "_place",
          "type": "string"
        },
        {
          "name": "_nextActor",
          "type": "address"
        }
      ],
      "name": "addAction",
      "outputs": [
        {
          "name": "success",
          "type": "bool"
        }
      ],
      "payable": false,
      "stateMutability": "nonpayable",
      "type": "function"
    },
    {
      "constant": false,
      "inputs": [
        {
          "name": "_productId",
          "type": "uint256"
        },
        {
          "name": "_comment",
          "type": "string"
        },
        {
          "name": "_place",
          "type": "string"
        }
      ],
      "name": "validateProduct",
      "outputs": [
        {
          "name": "",
          "type": "bool"
        }
      ],
      "payable": false,
      "stateMutability": "nonpayable",
      "type": "function"
    },
    {
      "constant": false,
      "inputs": [
        {
          "name": "_name",
          "type": "string"
        },
        {
          "name": "_productType",
          "type": "string"
        },
        {
          "name": "_description",
          "type": "string"
        },
        {
          "name": "_quantity",
          "type": "uint256"
        },
        {
          "name": "_place",
          "type": "string"
        },
        {
          "name": "_nextActor",
          "type": "address"
        }
      ],
      "name": "addProduct",
      "outputs": [
        {
          "name": "index",
          "type": "uint256"
        }
      ],
      "payable": false,
      "stateMutability": "nonpayable",
      "type": "function"
    },
    {
      "constant": true,
      "inputs": [
        {
          "name": "_user",
          "type": "address"
        }
      ],
      "name": "getAllUserNotifications",
      "outputs": [
        {
          "name": "n",
          "type": "uint256[]"
        }
      ],
      "payable": false,
      "stateMutability": "view",
      "type": "function"
    },
    {
      "constant": true,
      "inputs": [
        {
          "name": "_user",
          "type": "address"
        }
      ],
      "name": "getUserHistory",
      "outputs": [
        {
          "name": "h",
          "type": "uint256[]"
        }
      ],
      "payable": false,
      "stateMutability": "view",
      "type": "function"
    }
  ],
  "bytecode": "0x608060405260008054600160a060020a03191633179055613f2b806100256000396000f3006080604052600436106101c15763ffffffff7c0100000000000000000000000000000000000000000000000000000000600035041663070aff1c81146101c657806317afb951146101dd57806319447eb61461030857806332e086a1146104ec57806332f662f6146106055780634197009914610631578063470d3b4c146106465780634a348da91461069f5780634f52225f146106b45780634fb3d3b1146107d857806355ea20001461084957806357e541d01461085e5780635c975abb1461087f5780635f38a9691461089457806365d0bddd146108a95780636e9e3871146108cd5780636f77926b146108f157806372832e7514610ace578063754cb3ba14610af25780637718f4ec14610b135780637acc0b2014610b37578063800a263f14610c7957806383240f8314610c91578063875ead2514610da75780638a5964b414610dc85780638da5cb5b14610f165780639a84b25414610f47578063a6f9dae114611020578063a9d959e514611041578063b4acfe1c1461109a578063b5cb15f7146110bb578063bacca1ba146110d0578063d2398eec146110f4578063dcaee80b14611190578063e9f2bf8c14611237578063fd77e5de14611290575b600080fd5b3480156101d257600080fd5b506101db6112a8565b005b3480156101e957600080fd5b506040805160206004803580820135601f81018490048402850184019095528484526102f694369492936024939284019190819084018382808284375050604080516020601f89358b018035918201839004830284018301909452808352979a99988101979196509182019450925082915084018382808284375050604080516020601f89358b018035918201839004830284018301909452808352979a99988101979196509182019450925082915084018382808284375050604080516020601f818a01358b0180359182018390048302840183018552818452989b8a359b909a9099940197509195509182019350915081908401838280828437509497506113239650505050505050565b60408051918252519081900360200190f35b34801561031457600080fd5b50610329600160a060020a036004351661164b565b60405180806020018060200180602001888152602001806020018715151515815260200186815260200185810385528c818151815260200191508051906020019080838360005b83811015610388578181015183820152602001610370565b50505050905090810190601f1680156103b55780820380516001836020036101000a031916815260200191505b5085810384528b5181528b516020918201918d019080838360005b838110156103e85781810151838201526020016103d0565b50505050905090810190601f1680156104155780820380516001836020036101000a031916815260200191505b5085810383528a5181528a516020918201918c019080838360005b83811015610448578181015183820152602001610430565b50505050905090810190601f1680156104755780820380516001836020036101000a031916815260200191505b5085810382528851815288516020918201918a019080838360005b838110156104a8578181015183820152602001610490565b50505050905090810190601f1680156104d55780820380516001836020036101000a031916815260200191505b509b50505050505050505050505060405180910390f35b3480156104f857600080fd5b506040805160206004803580820135601f81018490048402850184019095528484526102f694369492936024939284019190819084018382808284375050604080516020601f89358b018035918201839004830284018301909452808352979a99988101979196509182019450925082915084018382808284375050604080516020601f89358b018035918201839004830284018301909452808352979a99988101979196509182019450925082915084018382808284375050604080516020601f818a01358b0180359182018390048302840183018552818452989b8a359b909a9099940197509195509182019350915081908401838280828437509497506118be9650505050505050565b34801561061157600080fd5b5061061d600435611d47565b604080519115158252519081900360200190f35b34801561063d57600080fd5b506102f6611dfb565b34801561065257600080fd5b506040805160206004803580820135601f810184900484028501840190955284845261061d943694929360249392840191908190840183828082843750949750611e019650505050505050565b3480156106ab57600080fd5b506102f66120c3565b3480156106c057600080fd5b506040805160206004803580820135601f81018490048402850184019095528484526102f694369492936024939284019190819084018382808284375050604080516020601f89358b018035918201839004830284018301909452808352979a99988101979196509182019450925082915084018382808284375050604080516020601f89358b018035918201839004830284018301909452808352979a99988101979196509182019450925082915084018382808284375050604080516020601f818a01358b0180359182018390048302840183018552818452989b8a359b909a90999401975091955091820193509150819084018382808284375094975050509235600160a060020a031693506120e392505050565b3480156107e457600080fd5b506107f9600160a060020a0360043516612183565b60408051602080825283518183015283519192839290830191858101910280838360005b8381101561083557818101518382015260200161081d565b505050509050019250505060405180910390f35b34801561085557600080fd5b5061061d61221b565b34801561086a57600080fd5b506107f9600160a060020a03600435166124b8565b34801561088b57600080fd5b5061061d61254e565b3480156108a057600080fd5b506101db61255e565b3480156108b557600080fd5b506102f6600160a060020a03600435166024356125d7565b3480156108d957600080fd5b5061061d600160a060020a0360043516602435612607565b3480156108fd57600080fd5b50610912600160a060020a036004351661262d565b60405180806020018060200180602001878152602001806020018615151515815260200185810385528b818151815260200191508051906020019080838360005b8381101561096b578181015183820152602001610953565b50505050905090810190601f1680156109985780820380516001836020036101000a031916815260200191505b5085810384528a5181528a516020918201918c019080838360005b838110156109cb5781810151838201526020016109b3565b50505050905090810190601f1680156109f85780820380516001836020036101000a031916815260200191505b5085810383528951815289516020918201918b019080838360005b83811015610a2b578181015183820152602001610a13565b50505050905090810190601f168015610a585780820380516001836020036101000a031916815260200191505b50858103825287518152875160209182019189019080838360005b83811015610a8b578181015183820152602001610a73565b50505050905090810190601f168015610ab85780820380516001836020036101000a031916815260200191505b509a505050505050505050505060405180910390f35b348015610ada57600080fd5b506102f6600160a060020a0360043516602435612912565b348015610afe57600080fd5b5061061d600160a060020a036004351661292d565b348015610b1f57600080fd5b506102f6600160a060020a0360043516602435612a39565b348015610b4357600080fd5b50610b4f600435612a54565b6040805160608101869052600160a060020a038516608082015283151560a082015282151560c082015260e08082528951908201528851909182916020808401928401916101008501918d019080838360005b83811015610bba578181015183820152602001610ba2565b50505050905090810190601f168015610be75780820380516001836020036101000a031916815260200191505b5084810383528a5181528a516020918201918c019080838360005b83811015610c1a578181015183820152602001610c02565b50505050905090810190601f168015610c475780820380516001836020036101000a031916815260200191505b5084810382528951815289516020918201918b0190808383600083811015610a8b578181015183820152602001610a73565b348015610c8557600080fd5b5061061d600435612c5f565b348015610c9d57600080fd5b50610ca9600435612d35565b6040518085600160a060020a0316600160a060020a031681526020018060200184815260200180602001838103835286818151815260200191508051906020019080838360005b83811015610d08578181015183820152602001610cf0565b50505050905090810190601f168015610d355780820380516001836020036101000a031916815260200191505b50838103825284518152845160209182019186019080838360005b83811015610d68578181015183820152602001610d50565b50505050905090810190601f168015610d955780820380516001836020036101000a031916815260200191505b50965050505050505060405180910390f35b348015610db357600080fd5b506107f9600160a060020a0360043516612e81565b348015610dd457600080fd5b50610de0600435612f17565b6040518088600160a060020a0316600160a060020a03168152602001806020018060200187815260200180602001861515151581526020018515151515815260200184810384528a818151815260200191508051906020019080838360005b83811015610e57578181015183820152602001610e3f565b50505050905090810190601f168015610e845780820380516001836020036101000a031916815260200191505b5084810383528951815289516020918201918b019080838360005b83811015610eb7578181015183820152602001610e9f565b50505050905090810190601f168015610ee45780820380516001836020036101000a031916815260200191505b508481038252875181528751602091820191890190808383600083811015610a8b578181015183820152602001610a73565b348015610f2257600080fd5b50610f2b613265565b60408051600160a060020a039092168252519081900360200190f35b348015610f5357600080fd5b50610f62600435602435613274565b6040518085600160a060020a0316600160a060020a031681526020018060200180602001848152602001838103835286818151815260200191508051906020019080838360005b83811015610fc1578181015183820152602001610fa9565b50505050905090810190601f168015610fee5780820380516001836020036101000a031916815260200191505b508381038252855181528551602091820191870190808383600083811015610d68578181015183820152602001610d50565b34801561102c57600080fd5b506101db600160a060020a036004351661349c565b34801561104d57600080fd5b506040805160206004803580820135601f810184900484028501840190955284845261061d94369492936024939284019190819084018382808284375094975061352e9650505050505050565b3480156110a657600080fd5b5061061d600160a060020a036004351661359b565b3480156110c757600080fd5b506102f66136b0565b3480156110dc57600080fd5b5061061d600160a060020a03600435166024356136cf565b34801561110057600080fd5b5060408051602060046024803582810135601f810185900485028601850190965285855261061d95833595369560449491939091019190819084018382808284375050604080516020601f89358b018035918201839004830284018301909452808352979a9998810197919650918201945092508291508401838280828437509497506137649650505050505050565b34801561119c57600080fd5b5060408051602060046024803582810135601f810185900485028601850190965285855261061d95833595369560449491939091019190819084018382808284375050604080516020601f89358b018035918201839004830284018301909452808352979a99988101979196509182019450925082915084018382808284375094975050509235600160a060020a0316935061391392505050565b34801561124357600080fd5b506040805160206004803580820135601f810184900484028501840190955284845261061d943694929360249392840191908190840183828082843750949750613adc9650505050505050565b34801561129c57600080fd5b5061061d600435613b4f565b600054600160a060020a031633146112bf57600080fd5b60005460a060020a900460ff16156112d657600080fd5b6000805474ff0000000000000000000000000000000000000000191660a060020a1781556040517f9f169b4d6224654508c3ec6cf2a95651d3f144d8b96ab8742b58ac24816502b79190a1565b6000805460a060020a900460ff161561133b57600080fd5b61134433613bd5565b1561134e57600080fd5b336000908152600160209081526040909120875161136e92890190613d91565b50336000908152600160208181526040909220875161139593919092019190880190613d91565b5033600090815260016020908152604090912085516113bc92600290920191870190613d91565b503360009081526001602090815260409091206003810185905583516113ea92600490920191850190613d91565b5033600081815260016020818152604080842060058101805460ff1916851790556002805494850190557f405787fa12a823e0f2b7631cc41b3ba8828b3321ca811111fa75cd3aa3bb5ace8401805473ffffffffffffffffffffffffffffffffffffffff191690961790955560069094019190915582516060810187905260a08082528a519082015289517f98c11ca29771dbb9d123d683d243fc07579d96f953898505abe9bb1da4d23aa6948b948b948b948b948b949193849384810193850192608086019260c08701928d0191908190849084905b838110156114d95781810151838201526020016114c1565b50505050905090810190601f1680156115065780820380516001836020036101000a031916815260200191505b5085810384528951815289516020918201918b019080838360005b83811015611539578181015183820152602001611521565b50505050905090810190601f1680156115665780820380516001836020036101000a031916815260200191505b5085810383528851815288516020918201918a019080838360005b83811015611599578181015183820152602001611581565b50505050905090810190601f1680156115c65780820380516001836020036101000a031916815260200191505b50858103825286518152865160209182019188019080838360005b838110156115f95781810151838201526020016115e1565b50505050905090810190601f1680156116265780820380516001836020036101000a031916815260200191505b50995050505050505050505060405180910390a1506002546000190195945050505050565b60016020818152600092835260409283902080548451600294821615610100026000190190911693909304601f81018390048302840183019094528383529283918301828280156116dd5780601f106116b2576101008083540402835291602001916116dd565b820191906000526020600020905b8154815290600101906020018083116116c057829003601f168201915b505050505090806001018054600181600116156101000203166002900480601f01602080910402602001604051908101604052809291908181526020018280546001816001161561010002031660029004801561177b5780601f106117505761010080835404028352916020019161177b565b820191906000526020600020905b81548152906001019060200180831161175e57829003601f168201915b50505060028085018054604080516020601f600019610100600187161502019094169590950492830185900485028101850190915281815295969594509092509083018282801561180d5780601f106117e25761010080835404028352916020019161180d565b820191906000526020600020905b8154815290600101906020018083116117f057829003601f168201915b50505050600383015460048401805460408051602060026001851615610100026000190190941693909304601f810184900484028201840190925281815295969395939450908301828280156118a45780601f10611879576101008083540402835291602001916118a4565b820191906000526020600020905b81548152906001019060200180831161188757829003601f168201915b505050506005830154600690930154919260ff1691905087565b60006118c8613e0f565b60005460a060020a900460ff16156118df57600080fd5b3315156118eb57600080fd5b600580546000908152600460208181526040808420805473ffffffffffffffffffffffffffffffffffffffff19163317905580518082018252601381527f4372656174696f6e206f662050726f64756374000000000000000000000000008184019081529554855292909152909120905161196d926001929092019190613d91565b506005546000908152600460209081526040909120845161199692600390920191860190613d91565b5060055460009081526004602090815260408083204260029091015589845283018890528281018790526060830186905233608084015260c08301829052600160e0840181905260038054808301808355919094528451805192949193869360079093027fc2575a0e9e593c00f959f8c92f12db2869c3395a3b0502d05e2516446f71f85b0192611a2a9284920190613d91565b506020828101518051611a439260018501920190613d91565b5060408201518051611a5f916002840191602090910190613d91565b5060608201516003820155608082015160048201805473ffffffffffffffffffffffffffffffffffffffff1916600160a060020a0390921691909117905560a08201518051611ab8916005840191602090910190613e62565b5060c08201516006909101805460e09093015115156101000261ff001992151560ff199094169390931791909116919091179055600380549290910393509083908110611b0157fe5b6000918252602080832060058054600790940290910181018054600181810183559186528386200193909355338085526006835260408086208054808701825590875284872001889055825490940190915582518181526080810189905260c08184018181528d51918301919091528c517f586a052f5133d7a9d945eae49c0b7b85af1e4fd1ffe1518a7589dd0f8356b45c9693958e958e958e958e958e959194909390850192606086019260a087019260e0880192908d0191908190849084905b83811015611bdb578181015183820152602001611bc3565b50505050905090810190601f168015611c085780820380516001836020036101000a031916815260200191505b5085810384528951815289516020918201918b019080838360005b83811015611c3b578181015183820152602001611c23565b50505050905090810190601f168015611c685780820380516001836020036101000a031916815260200191505b5085810383528851815288516020918201918a019080838360005b83811015611c9b578181015183820152602001611c83565b50505050905090810190601f168015611cc85780820380516001836020036101000a031916815260200191505b50858103825286518152865160209182019188019080838360005b83811015611cfb578181015183820152602001611ce3565b50505050905090810190601f168015611d285780820380516001836020036101000a031916815260200191505b509a505050505050505050505060405180910390a15095945050505050565b60008054600160a060020a03163314611d5f57600080fd5b60005460a060020a900460ff1615611d7657600080fd5b6003548210611d8457600080fd5b6003805483908110611d9257fe5b6000918252602090912060079091020160060154610100900460ff1615611db857600080fd5b6001600383815481101515611dc957fe5b906000526020600020906007020160060160016101000a81548160ff021916908315150217905550600190505b919050565b60055481565b6000805460a060020a900460ff1615611e1957600080fd5b611e2233613bd5565b1515611e2d57600080fd5b3360009081526001602052604090206005015460ff161515611e4e57600080fd5b3360009081526001602090815260409091208351611e7492600290920191850190613d91565b50336000908152600160208181526040928390206003810154600582015485516060810183905260ff90911680151560a083015260c080835284546002600019828a16156101000201909116819004918401829052600080516020613ee0833981519152989597880196908801956004890194928392830191830190608084019060e08501908c908015611f495780601f10611f1e57610100808354040283529160200191611f49565b820191906000526020600020905b815481529060010190602001808311611f2c57829003601f168201915b505085810384528a54600260001961010060018416150201909116048082526020909101908b908015611fbd5780601f10611f9257610100808354040283529160200191611fbd565b820191906000526020600020905b815481529060010190602001808311611fa057829003601f168201915b505085810383528954600260001961010060018416150201909116048082526020909101908a9080156120315780601f1061200657610100808354040283529160200191612031565b820191906000526020600020905b81548152906001019060200180831161201457829003601f168201915b50508581038252875460026000196101006001841615020190911604808252602090910190889080156120a55780601f1061207a576101008083540402835291602001916120a5565b820191906000526020600020905b81548152906001019060200180831161208857829003601f168201915b50509a505050505050505050505060405180910390a1506001919050565b6000805460a060020a900460ff16156120db57600080fd5b506003545b90565b6000805460a060020a900460ff16156120fb57600080fd5b61210433613bd5565b151561210f57600080fd5b61211882613bd5565b151561212357600080fd5b61213087878787876118be565b600160a060020a0383166000908152600760209081526040808320805460018181018355918552838520018590553384526008835290832080549182018155835291200181905590509695505050505050565b60005460609060a060020a900460ff161561219d57600080fd5b6121a682613bd5565b15156121b157600080fd5b600160a060020a0382166000908152600860209081526040918290208054835181840281018401909452808452909183018282801561220f57602002820191906000526020600020905b8154815260200190600101908083116121fb575b50505050509050919050565b6000805460a060020a900460ff161561223357600080fd5b61223c33613bd5565b151561224757600080fd5b3360009081526001602052604090206005015460ff16151561226857600080fd5b33600090815260016020818152604080842060058101805460ff19169055600381015482516060810182905260a0810187905260c080825283546002600019828a16156101000201909116819004918301829052600080516020613ee083398151915298949788019690880195939460048901949093928392830191830190608084019060e08501908c9080156123405780601f1061231557610100808354040283529160200191612340565b820191906000526020600020905b81548152906001019060200180831161232357829003601f168201915b505085810384528a54600260001961010060018416150201909116048082526020909101908b9080156123b45780601f10612389576101008083540402835291602001916123b4565b820191906000526020600020905b81548152906001019060200180831161239757829003601f168201915b505085810383528954600260001961010060018416150201909116048082526020909101908a9080156124285780601f106123fd57610100808354040283529160200191612428565b820191906000526020600020905b81548152906001019060200180831161240b57829003601f168201915b505085810382528754600260001961010060018416150201909116048082526020909101908890801561249c5780601f106124715761010080835404028352916020019161249c565b820191906000526020600020905b81548152906001019060200180831161247f57829003601f168201915b50509a505050505050505050505060405180910390a150600190565b60005460609060a060020a900460ff16156124d257600080fd5b6124db82613bd5565b15156124e657600080fd5b600160a060020a0382166000908152600660209081526040918290208054835181840281018401909452808452909183018282801561220f57602002820191906000526020600020908154815260200190600101908083116121fb5750505050509050919050565b60005460a060020a900460ff1681565b600054600160a060020a0316331461257557600080fd5b60005460a060020a900460ff16151560011461259057600080fd5b6000805474ff0000000000000000000000000000000000000000191681556040517f1f9a5f2ae53bba1390ac0766ace24e59e82481665cf401fa45dcfd1dcce14fb39190a1565b6007602052816000526040600020818154811015156125f257fe5b90600052602060002001600091509150505481565b6000806126148484613c30565b90506126208482613c7c565b50600191505b5092915050565b6000805460609182918291908290829060a060020a900460ff161561265157600080fd5b61265a87613bd5565b151561266557600080fd5b600160a060020a03871660009081526001602052604090206005015460ff16151561268f57600080fd5b600160a060020a03871660009081526001602081815260409283902060038101546005820154825486516002610100838916150260001901909216829004601f8101879004870282018701909852878152939695870195908701949293600488019360ff909316929091889183018282801561274c5780601f106127215761010080835404028352916020019161274c565b820191906000526020600020905b81548152906001019060200180831161272f57829003601f168201915b5050885460408051602060026001851615610100026000190190941693909304601f8101849004840282018401909252818152959b508a9450925084019050828280156127da5780601f106127af576101008083540402835291602001916127da565b820191906000526020600020905b8154815290600101906020018083116127bd57829003601f168201915b5050875460408051602060026001851615610100026000190190941693909304601f8101849004840282018401909252818152959a50899450925084019050828280156128685780601f1061283d57610100808354040283529160200191612868565b820191906000526020600020905b81548152906001019060200180831161284b57829003601f168201915b5050855460408051602060026001851615610100026000190190941693909304601f8101849004840282018401909252818152959950879450925084019050828280156128f65780601f106128cb576101008083540402835291602001916128f6565b820191906000526020600020905b8154815290600101906020018083116128d957829003601f168201915b5050505050915095509550955095509550955091939550919395565b6006602052816000526040600020818154811015156125f257fe5b60008054600160a060020a0316331461294557600080fd5b61294e82613bd5565b151561295957600080fd5b600160a060020a03821660009081526001602052604090206005015460ff16151561298357600080fd5b600160a060020a038216600090815260016020818152604080842060058101805460ff19169055600381015482516060810182905260a0810187905260c080825283546002600019828a16156101000201909116819004918301829052600080516020613ee083398151915298949788019690880195939460048901949093928392830191830190608084019060e08501908c908015611f495780601f10611f1e57610100808354040283529160200191611f49565b6008602052816000526040600020818154811015156125f257fe5b6003805482908110612a6257fe5b60009182526020918290206007919091020180546040805160026001841615610100026000190190931692909204601f810185900485028301850190915280825291935091839190830182828015612afb5780601f10612ad057610100808354040283529160200191612afb565b820191906000526020600020905b815481529060010190602001808311612ade57829003601f168201915b505050505090806001018054600181600116156101000203166002900480601f016020809104026020016040519081016040528092919081815260200182805460018160011615610100020316600290048015612b995780601f10612b6e57610100808354040283529160200191612b99565b820191906000526020600020905b815481529060010190602001808311612b7c57829003601f168201915b50505060028085018054604080516020601f6000196101006001871615020190941695909504928301859004850281018501909152818152959695945090925090830182828015612c2b5780601f10612c0057610100808354040283529160200191612c2b565b820191906000526020600020905b815481529060010190602001808311612c0e57829003601f168201915b505050506003830154600484015460069094015492939092600160a060020a03909116915060ff8082169161010090041687565b6000805460a060020a900460ff1615612c7757600080fd5b6003548210612c8557600080fd5b6003805483908110612c9357fe5b906000526020600020906007020160060160019054906101000a900460ff161515612cbd57600080fd5b6001600383815481101515612cce57fe5b906000526020600020906007020160060160006101000a81548160ff0219169083151502179055507f89c80667ed928fc2bc613d87ce660bff4977c391f25f898a16f9c0a48aa41e09826040518082815260200191505060405180910390a1506001919050565b6004602090815260009182526040918290208054600180830180548651600261010094831615949094026000190190911692909204601f8101869004860283018601909652858252600160a060020a03909216949293909290830182828015612ddf5780601f10612db457610100808354040283529160200191612ddf565b820191906000526020600020905b815481529060010190602001808311612dc257829003601f168201915b505050506002838101546003850180546040805160206001841615610100026000190190931695909504601f810183900483028601830190915280855295969295929450909190830182828015612e775780601f10612e4c57610100808354040283529160200191612e77565b820191906000526020600020905b815481529060010190602001808311612e5a57829003601f168201915b5050505050905084565b60005460609060a060020a900460ff1615612e9b57600080fd5b612ea482613bd5565b1515612eaf57600080fd5b600160a060020a0382166000908152600760209081526040918290208054835181840281018401909452808452909183018282801561220f57602002820191906000526020600020908154815260200190600101908083116121fb5750505050509050919050565b600060608060006060600080612f2b613e0f565b60005460a060020a900460ff1615612f4257600080fd5b6003548910612f5057600080fd5b600380548a908110612f5e57fe5b906000526020600020906007020160060160019054906101000a900460ff161515612f8857600080fd5b600380548a908110612f9657fe5b60009182526020918290206040805160079390930290910180546002610100600183161581026000190190921604601f810186900490950284016101209081019093528301848152929390928492909184918401828280156130395780601f1061300e57610100808354040283529160200191613039565b820191906000526020600020905b81548152906001019060200180831161301c57829003601f168201915b50505050508152602001600182018054600181600116156101000203166002900480601f0160208091040260200160405190810160405280929190818152602001828054600181600116156101000203166002900480156130db5780601f106130b0576101008083540402835291602001916130db565b820191906000526020600020905b8154815290600101906020018083116130be57829003601f168201915b5050509183525050600282810180546040805160206001841615610100026000190190931694909404601f8101839004830285018301909152808452938101939083018282801561316d5780601f106131425761010080835404028352916020019161316d565b820191906000526020600020905b81548152906001019060200180831161315057829003601f168201915b50505050508152602001600382015481526020016004820160009054906101000a9004600160a060020a0316600160a060020a0316600160a060020a03168152602001600582018054806020026020016040519081016040528092919081815260200182805480156131fe57602002820191906000526020600020905b8154815260200190600101908083116131ea575b50505091835250506006919091015460ff8082161515602080850191909152610100909204161515604092830152608083015183519284015160608501519285015160c086015160e090960151929f949e50909c50919a5090985091965090945092505050565b600054600160a060020a031681565b6000805460609081908390819060a060020a900460ff161561329557600080fd5b60035487106132a357600080fd5b60038054889081106132b157fe5b600091825260209091206005600790920201015486106132d057600080fd5b60038054889081106132de57fe5b906000526020600020906007020160060160019054906101000a900460ff16151561330857600080fd5b600380548890811061331657fe5b90600052602060002090600702016005018681548110151561333457fe5b6000918252602080832091909101548083526004825260409283902080546002808301546001808501805489516101009382161593909302600019011693909304601f8101889004880282018801909852878152949750600160a060020a0390921695909460039093019391928591908301828280156133f55780601f106133ca576101008083540402835291602001916133f5565b820191906000526020600020905b8154815290600101906020018083116133d857829003601f168201915b5050855460408051602060026001851615610100026000190190941693909304601f8101849004840282018401909252818152959850879450925084019050828280156134835780601f1061345857610100808354040283529160200191613483565b820191906000526020600020905b81548152906001019060200180831161346657829003601f168201915b5050505050915094509450945094505092959194509250565b600054600160a060020a031633146134b357600080fd5b60005460a060020a900460ff16156134ca57600080fd5b600160a060020a03811615613502576000805473ffffffffffffffffffffffffffffffffffffffff1916600160a060020a0383161790555b6040517fa210d63b5a22487066397c631c738bc560e60390098601461599961c472139f090600090a150565b6000805460a060020a900460ff161561354657600080fd5b61354f33613bd5565b151561355a57600080fd5b3360009081526001602052604090206005015460ff16151561357b57600080fd5b3360009081526001602090815260409091208351611e7492850190613d91565b60008054600160a060020a031633146135b357600080fd5b6135bc82613bd5565b15156135c757600080fd5b600160a060020a03821660009081526001602052604090206005015460ff16156135f057600080fd5b600160a060020a03821660009081526001602081815260409283902060058101805460ff1916841790819055600382015485516060810182905260ff90921680151560a084015260c080845284546002610100828a16150260001901909116819004918501829052600080516020613ee0833981519152989597880196908801959394600489019490928392830191830190608084019060e08501908c908015611f495780601f10611f1e57610100808354040283529160200191611f49565b6000805460a060020a900460ff16156136c857600080fd5b5060025490565b60008060006136dd85613bd5565b15156136e857600080fd5b60035484106136f657600080fd5b505050600160a060020a038216600090815260076020526040812081905b821580156137225750805482105b1561375c57808281548110151561373557fe5b90600052602060002001548414156137505760019250613757565b8160010191505b613714565b505092915050565b6000805460a060020a900460ff161561377c57600080fd5b61378533613bd5565b151561379057600080fd5b336000908152600160205260409020600301546006146137af57600080fd5b60035484106137bd57600080fd5b6137c733856136cf565b15156137d257600080fd5b600580546000908152600460209081526040808320805473ffffffffffffffffffffffffffffffffffffffff1916331790559254825291902084516138209260019290920191860190613d91565b506005546000908152600460209081526040909120835161384992600390920191850190613d91565b50600554600090815260046020526040902042600290910155600380548590811061387057fe5b6000918252602080832060058054600790940290910181018054600181810183559186529290942090910191909155805490910190556138b03385612607565b50336000908152600860209081526040808320805460018101825590845292829020909201869055815186815291517f24cea49db5ba4e777f59fe151d7c2106f25728c0bef622760e38924d37ffadb99281900390910190a15060019392505050565b6000805460a060020a900460ff161561392b57600080fd5b61393433613bd5565b151561393f57600080fd5b61394882613bd5565b151561395357600080fd5b600354851061396157600080fd5b61396b33866136cf565b151561397657600080fd5b600580546000908152600460209081526040808320805473ffffffffffffffffffffffffffffffffffffffff1916331790559254825291902085516139c49260019290920191870190613d91565b50600554600090815260046020908152604090912084516139ed92600390920191860190613d91565b506005546000908152600460205260409020426002909101556003805486908110613a1457fe5b600091825260208083206005805460079094029091018101805460018181018355918652929094209091019190915580549091019055613a543386612607565b50600160a060020a0382166000908152600760209081526040808320805460018181018355918552838520018990553384526008835281842080549182018155845292829020909201879055815187815291517f24cea49db5ba4e777f59fe151d7c2106f25728c0bef622760e38924d37ffadb99281900390910190a1506001949350505050565b6000805460a060020a900460ff1615613af457600080fd5b613afd33613bd5565b1515613b0857600080fd5b3360009081526001602052604090206005015460ff161515613b2957600080fd5b3360009081526001602081815260409092208451611e7493919092019190850190613d91565b60008054600160a060020a03163314613b6757600080fd5b60005460a060020a900460ff1615613b7e57600080fd5b6003548210613b8c57600080fd5b6003805483908110613b9a57fe5b906000526020600020906007020160060160019054906101000a900460ff161515613bc457600080fd5b6000600383815481101515611dc957fe5b6002546000901515613be957506000611df6565b600160a060020a038216600081815260016020526040902060060154600280549091908110613c1457fe5b600091825260209091200154600160a060020a03161492915050565b6000805b600160a060020a0384166000908152600760205260409020805484919083908110613c5b57fe5b9060005260206000200154141515613c7557600101613c34565b9392505050565b600160a060020a03821660009081526007602052604081205481908310613ca257612626565b50815b600160a060020a03841660009081526007602052604090205460001901811015613d3457600160a060020a0384166000908152600760205260409020805460018301908110613cf057fe5b6000918252602080832090910154600160a060020a038716835260079091526040909120805483908110613d2057fe5b600091825260209091200155600101613ca5565b600160a060020a038416600090815260076020526040902080546000198101908110613d5c57fe5b60009182526020808320909101829055600160a060020a03861682526007905260409020805490612620906000198301613e9c565b828054600181600116156101000203166002900490600052602060002090601f016020900481019282601f10613dd257805160ff1916838001178555613dff565b82800160010185558215613dff579182015b82811115613dff578251825591602001919060010190613de4565b50613e0b929150613ec5565b5090565b61010060405190810160405280606081526020016060815260200160608152602001600081526020016000600160a060020a03168152602001606081526020016000151581526020016000151581525090565b828054828255906000526020600020908101928215613dff5791602002820182811115613dff578251825591602001919060010190613de4565b815481835581811115613ec057600083815260209020613ec0918101908301613ec5565b505050565b6120e091905b80821115613e0b5760008155600101613ecb5600bf761d4376a3be9c4ae32a4d5bf182294aa68336242f44bd973b0e722910526da165627a7a723058209d069c499be04aeb6aaab91c6ed66419477492317b872f95df872c72fc6314a90029",
  "source": "pragma solidity ^0.4.23;\r\n\r\nimport \"./OriginProduct.sol\";\r\n\r\ncontract OriginCore is OriginProduct{\r\n    \r\n    uint constant retailer = 6;\r\n\r\n    // a mapping that specifies for every user the list of products that he needs to validate in order\r\n    // to advance the supply chain\r\n    mapping (address => uint[]) public notifications;\r\n\r\n    // a mapping that specifies for every user the list of products that he participated upon their\r\n    // validation in the past\r\n    mapping (address => uint[]) public history;\r\n\r\n    event NewAction(uint productId);\r\n\r\n    //@dev: gives the index of _productId in the notifications array of user _user\r\n    function indexOf(address _user, uint _productId) internal view returns(uint) {\r\n        uint i = 0;\r\n        while (notifications[_user][i] != _productId) {\r\n            i++;\r\n        }\r\n        return i;\r\n    }\r\n\r\n    //@dev: removes the product of index _index from the notifications array of user _user\r\n    function removeNotificationAtIndex(address _user, uint _index)  internal returns(bool) {\r\n        if (_index >= notifications[_user].length) return;\r\n\r\n        for (uint i = _index; i<notifications[_user].length-1; i++){\r\n            notifications[_user][i] = notifications[_user][i+1];\r\n        }\r\n        delete notifications[_user][notifications[_user].length-1];\r\n        notifications[_user].length--;\r\n        return true;\r\n    }\r\n\r\n    //@dev: removes the product pf id _productId from the notifications array of user _user\r\n    function removeNotification(address _user, uint _productId) public returns (bool){\r\n        uint index = indexOf(_user, _productId);\r\n        removeNotificationAtIndex(_user, index);\r\n        return true;\r\n    }\r\n\r\n    //@dev: checks if the user _user can validate the product _product in the supply chain, that is if \r\n    //_product figures in the notifications array of user _user\r\n    function userCanAddAction(address _user, uint _product) public view returns (bool success){\r\n        require(isUser(_user));\r\n        require(_product < products.length);\r\n        success = false;\r\n        uint i = 0;\r\n        uint[] storage list = notifications[_user];\r\n        while(!success && i < list.length){\r\n            if(_product == list[i]){\r\n                success = true;\r\n            }\r\n            else{\r\n                i = i + 1;\r\n            }\r\n        }\r\n        return success;\r\n    }\r\n\r\n\r\n    //@dev: adds action related to the product of id _productId and notifies the next actor in the supply\r\n    // chain to validate the product\r\n    function addAction(uint _productId, string _comment, string _place, address _nextActor) public unpausedSupplyChain returns (bool success){\r\n        require(isUser(msg.sender));\r\n        require(isUser(_nextActor));\r\n        require(_productId < products.length);\r\n        require(userCanAddAction(msg.sender, _productId));\r\n\r\n        // Add the new Action\r\n        actions[numberActions].actioner = msg.sender;\r\n        actions[numberActions].comment = _comment;\r\n        actions[numberActions].place = _place;\r\n        actions[numberActions].time = now;\r\n\r\n        // Add the new action to the path of the product to keep track of every action\r\n        products[_productId].path.push(numberActions);\r\n\r\n        // Increment the number of actions available in the supply chain\r\n        numberActions++;\r\n\r\n        // Remove action notification from msg.sender notifications\r\n        removeNotification(msg.sender, _productId);\r\n\r\n        // Add notification for the next actor in the supply chain\r\n        notifications[_nextActor].push(_productId);\r\n\r\n        // Add this product to this user's history\r\n        history[msg.sender].push(_productId);\r\n\r\n        // Emit the NewAction event\r\n        emit NewAction(_productId);\r\n\r\n        return true;\r\n    }\r\n\r\n\r\n    //@dev: validates the product of id _productId and terminates the supply chain for this product\r\n    function validateProduct(uint _productId, string _comment, string _place) public unpausedSupplyChain returns (bool){\r\n        require(isUser(msg.sender));\r\n        require(userStructs[msg.sender].role == retailer);\r\n        require(_productId < products.length);\r\n        require(userCanAddAction(msg.sender, _productId));\r\n\r\n        // Add the new Action\r\n        actions[numberActions].actioner = msg.sender;\r\n        actions[numberActions].comment = _comment;\r\n        actions[numberActions].place = _place;\r\n        actions[numberActions].time = now;\r\n\r\n        // Add the new action to the path of the product to keep track of every action\r\n        products[_productId].path.push(numberActions);\r\n\r\n        // Increment the number of actions available in the supply chain\r\n        numberActions++;\r\n\r\n        // Remove action notification from msg.sender notifications\r\n        removeNotification(msg.sender, _productId);\r\n\r\n        // Add this product to this user's history\r\n        history[msg.sender].push(_productId);\r\n\r\n        // Emit the NewAction event\r\n        emit NewAction(_productId);\r\n\r\n        return true;\r\n    }\r\n\r\n\r\n    function addProduct(string _name, string _productType, string _description, uint _quantity, string _place, address _nextActor) public unpausedSupplyChain returns (uint index){\r\n        require(isUser(msg.sender));\r\n        require(isUser(_nextActor));\r\n\r\n        index = createProduct(_name, _productType, _description, _quantity, _place);\r\n        notifications[_nextActor].push(index);\r\n\r\n        // Add this product to this user's history\r\n        history[msg.sender].push(index);\r\n\r\n        return index;\r\n    }\r\n\r\n\r\n    function getAllUserNotifications(address _user) public view unpausedSupplyChain returns (uint[] n){\r\n        require(isUser(_user));\r\n        return notifications[_user];\r\n    }\r\n\r\n    function getUserHistory(address _user) public view unpausedSupplyChain returns (uint[] h){\r\n        require(isUser(_user));\r\n        return history[_user];\r\n    }\r\n\r\n}",
  "sourcePath": "C:\\Users\\ab\\Desktop\\web apps\\projects\\origin\\contracts\\OriginCore.sol",
  "compiler": {
    "name": "solc",
    "version": "0.4.24+commit.e67f0147.Emscripten.clang"
  },
  "schemaVersion": "2.0.1",
  "updatedAt": "2018-08-18T14:40:26.630Z"
}