{
  "contractName": "OriginUser",
  "abi": [
    {
      "constant": false,
      "inputs": [],
      "name": "pauseSupplyChain",
      "outputs": [],
      "payable": false,
      "stateMutability": "nonpayable",
      "type": "function"
    },
    {
      "constant": true,
      "inputs": [],
      "name": "paused",
      "outputs": [
        {
          "name": "",
          "type": "bool"
        }
      ],
      "payable": false,
      "stateMutability": "view",
      "type": "function"
    },
    {
      "constant": false,
      "inputs": [],
      "name": "unPauseSupplyChain",
      "outputs": [],
      "payable": false,
      "stateMutability": "nonpayable",
      "type": "function"
    },
    {
      "constant": true,
      "inputs": [],
      "name": "owner",
      "outputs": [
        {
          "name": "",
          "type": "address"
        }
      ],
      "payable": false,
      "stateMutability": "view",
      "type": "function"
    },
    {
      "constant": false,
      "inputs": [
        {
          "name": "_newOwner",
          "type": "address"
        }
      ],
      "name": "changeOwner",
      "outputs": [],
      "payable": false,
      "stateMutability": "nonpayable",
      "type": "function"
    },
    {
      "anonymous": false,
      "inputs": [
        {
          "indexed": false,
          "name": "_fullName",
          "type": "string"
        },
        {
          "indexed": false,
          "name": "_dateOfBirth",
          "type": "string"
        },
        {
          "indexed": false,
          "name": "_email",
          "type": "string"
        },
        {
          "indexed": false,
          "name": "_role",
          "type": "string"
        },
        {
          "indexed": false,
          "name": "_brand",
          "type": "string"
        }
      ],
      "name": "NewUser",
      "type": "event"
    },
    {
      "anonymous": false,
      "inputs": [
        {
          "indexed": false,
          "name": "_fullName",
          "type": "string"
        },
        {
          "indexed": false,
          "name": "_dateOfBirth",
          "type": "string"
        },
        {
          "indexed": false,
          "name": "_email",
          "type": "string"
        },
        {
          "indexed": false,
          "name": "_role",
          "type": "string"
        },
        {
          "indexed": false,
          "name": "_brand",
          "type": "string"
        },
        {
          "indexed": false,
          "name": "active",
          "type": "bool"
        }
      ],
      "name": "UpdateUser",
      "type": "event"
    },
    {
      "anonymous": false,
      "inputs": [],
      "name": "SupplyChainPaused",
      "type": "event"
    },
    {
      "anonymous": false,
      "inputs": [],
      "name": "SupplyChainUnPaused",
      "type": "event"
    },
    {
      "anonymous": false,
      "inputs": [],
      "name": "OwnerChanged",
      "type": "event"
    },
    {
      "constant": false,
      "inputs": [
        {
          "name": "_fullName",
          "type": "string"
        },
        {
          "name": "_dateOfBirth",
          "type": "string"
        },
        {
          "name": "_email",
          "type": "string"
        },
        {
          "name": "_role",
          "type": "string"
        },
        {
          "name": "_brand",
          "type": "string"
        }
      ],
      "name": "insertUser",
      "outputs": [
        {
          "name": "index",
          "type": "uint256"
        }
      ],
      "payable": false,
      "stateMutability": "nonpayable",
      "type": "function"
    },
    {
      "constant": true,
      "inputs": [
        {
          "name": "_userAddress",
          "type": "address"
        }
      ],
      "name": "getUser",
      "outputs": [
        {
          "name": "_fullName",
          "type": "string"
        },
        {
          "name": "_dateOfBirth",
          "type": "string"
        },
        {
          "name": "_email",
          "type": "string"
        },
        {
          "name": "_role",
          "type": "string"
        },
        {
          "name": "_brand",
          "type": "string"
        },
        {
          "name": "active",
          "type": "bool"
        }
      ],
      "payable": false,
      "stateMutability": "view",
      "type": "function"
    },
    {
      "constant": false,
      "inputs": [
        {
          "name": "_fullName",
          "type": "string"
        }
      ],
      "name": "updateUserFullName",
      "outputs": [
        {
          "name": "success",
          "type": "bool"
        }
      ],
      "payable": false,
      "stateMutability": "nonpayable",
      "type": "function"
    },
    {
      "constant": false,
      "inputs": [
        {
          "name": "_dateOfBirth",
          "type": "string"
        }
      ],
      "name": "updateUserDateOfBirth",
      "outputs": [
        {
          "name": "success",
          "type": "bool"
        }
      ],
      "payable": false,
      "stateMutability": "nonpayable",
      "type": "function"
    },
    {
      "constant": false,
      "inputs": [
        {
          "name": "_email",
          "type": "string"
        }
      ],
      "name": "updateUserEmail",
      "outputs": [
        {
          "name": "success",
          "type": "bool"
        }
      ],
      "payable": false,
      "stateMutability": "nonpayable",
      "type": "function"
    },
    {
      "constant": false,
      "inputs": [],
      "name": "deactivateUser",
      "outputs": [
        {
          "name": "success",
          "type": "bool"
        }
      ],
      "payable": false,
      "stateMutability": "nonpayable",
      "type": "function"
    },
    {
      "constant": false,
      "inputs": [
        {
          "name": "_userAddress",
          "type": "address"
        }
      ],
      "name": "activateUser",
      "outputs": [
        {
          "name": "success",
          "type": "bool"
        }
      ],
      "payable": false,
      "stateMutability": "nonpayable",
      "type": "function"
    },
    {
      "constant": false,
      "inputs": [
        {
          "name": "_address",
          "type": "address"
        }
      ],
      "name": "ownerDeactivatesUser",
      "outputs": [
        {
          "name": "success",
          "type": "bool"
        }
      ],
      "payable": false,
      "stateMutability": "nonpayable",
      "type": "function"
    },
    {
      "constant": true,
      "inputs": [],
      "name": "getUserCount",
      "outputs": [
        {
          "name": "count",
          "type": "uint256"
        }
      ],
      "payable": false,
      "stateMutability": "view",
      "type": "function"
    }
  ],
  "bytecode": "0x6080604052336000806101000a81548173ffffffffffffffffffffffffffffffffffffffff021916908373ffffffffffffffffffffffffffffffffffffffff16021790555061378a806100536000396000f3006080604052600436106100d0576000357c0100000000000000000000000000000000000000000000000000000000900463ffffffff168063070aff1c146100d5578063470d3b4c146100ec57806355ea20001461016d5780635c975abb1461019c5780635f38a969146101cb5780636f77926b146101e2578063754cb3ba14610459578063842f6509146104b45780638da5cb5b14610649578063a6f9dae1146106a0578063a9d959e5146106e3578063b4acfe1c14610764578063b5cb15f7146107bf578063e9f2bf8c146107ea575b600080fd5b3480156100e157600080fd5b506100ea61086b565b005b3480156100f857600080fd5b50610153600480360381019080803590602001908201803590602001908080601f0160208091040260200160405190810160405280939291908181526020018383808284378201915050505050509192919290505050610931565b604051808215151515815260200191505060405180910390f35b34801561017957600080fd5b50610182610e49565b604051808215151515815260200191505060405180910390f35b3480156101a857600080fd5b506101b16113be565b604051808215151515815260200191505060405180910390f35b3480156101d757600080fd5b506101e06113d1565b005b3480156101ee57600080fd5b50610223600480360381019080803573ffffffffffffffffffffffffffffffffffffffff169060200190929190505050611496565b6040518080602001806020018060200180602001806020018715151515815260200186810386528c818151815260200191508051906020019080838360005b8381101561027d578082015181840152602081019050610262565b50505050905090810190601f1680156102aa5780820380516001836020036101000a031916815260200191505b5086810385528b818151815260200191508051906020019080838360005b838110156102e35780820151818401526020810190506102c8565b50505050905090810190601f1680156103105780820380516001836020036101000a031916815260200191505b5086810384528a818151815260200191508051906020019080838360005b8381101561034957808201518184015260208101905061032e565b50505050905090810190601f1680156103765780820380516001836020036101000a031916815260200191505b50868103835289818151815260200191508051906020019080838360005b838110156103af578082015181840152602081019050610394565b50505050905090810190601f1680156103dc5780820380516001836020036101000a031916815260200191505b50868103825288818151815260200191508051906020019080838360005b838110156104155780820151818401526020810190506103fa565b50505050905090810190601f1680156104425780820380516001836020036101000a031916815260200191505b509b50505050505050505050505060405180910390f35b34801561046557600080fd5b5061049a600480360381019080803573ffffffffffffffffffffffffffffffffffffffff169060200190929190505050611990565b604051808215151515815260200191505060405180910390f35b3480156104c057600080fd5b50610633600480360381019080803590602001908201803590602001908080601f0160208091040260200160405190810160405280939291908181526020018383808284378201915050505050509192919290803590602001908201803590602001908080601f0160208091040260200160405190810160405280939291908181526020018383808284378201915050505050509192919290803590602001908201803590602001908080601f0160208091040260200160405190810160405280939291908181526020018383808284378201915050505050509192919290803590602001908201803590602001908080601f0160208091040260200160405190810160405280939291908181526020018383808284378201915050505050509192919290803590602001908201803590602001908080601f0160208091040260200160405190810160405280939291908181526020018383808284378201915050505050509192919290505050611f41565b6040518082815260200191505060405180910390f35b34801561065557600080fd5b5061065e612498565b604051808273ffffffffffffffffffffffffffffffffffffffff1673ffffffffffffffffffffffffffffffffffffffff16815260200191505060405180910390f35b3480156106ac57600080fd5b506106e1600480360381019080803573ffffffffffffffffffffffffffffffffffffffff1690602001909291905050506124bd565b005b3480156106ef57600080fd5b5061074a600480360381019080803590602001908201803590602001908080601f01602080910402602001604051908101604052809392919081815260200183838082843782019150505050505091929192905050506125e0565b604051808215151515815260200191505060405180910390f35b34801561077057600080fd5b506107a5600480360381019080803573ffffffffffffffffffffffffffffffffffffffff169060200190929190505050612af8565b604051808215151515815260200191505060405180910390f35b3480156107cb57600080fd5b506107d46130a9565b6040518082815260200191505060405180910390f35b3480156107f657600080fd5b50610851600480360381019080803590602001908201803590602001908080601f01602080910402602001604051908101604052809392919081815260200183838082843782019150505050505091929192905050506130d7565b604051808215151515815260200191505060405180910390f35b6000809054906101000a900473ffffffffffffffffffffffffffffffffffffffff1673ffffffffffffffffffffffffffffffffffffffff163373ffffffffffffffffffffffffffffffffffffffff161415156108c657600080fd5b60001515600060149054906101000a900460ff1615151415156108e857600080fd5b6001600060146101000a81548160ff0219169083151502179055507f9f169b4d6224654508c3ec6cf2a95651d3f144d8b96ab8742b58ac24816502b760405160405180910390a1565b6000801515600060149054906101000a900460ff16151514151561095457600080fd5b61095d336135ef565b151561096857600080fd5b81600160003373ffffffffffffffffffffffffffffffffffffffff1673ffffffffffffffffffffffffffffffffffffffff16815260200190815260200160002060020190805190602001906109be9291906136b9565b507f5f6835ea2a1961fdb2e3aec43d753d660ddf38041baaa485978e597d8236d03a600160003373ffffffffffffffffffffffffffffffffffffffff1673ffffffffffffffffffffffffffffffffffffffff168152602001908152602001600020600001600160003373ffffffffffffffffffffffffffffffffffffffff1673ffffffffffffffffffffffffffffffffffffffff168152602001908152602001600020600101600160003373ffffffffffffffffffffffffffffffffffffffff1673ffffffffffffffffffffffffffffffffffffffff168152602001908152602001600020600201600160003373ffffffffffffffffffffffffffffffffffffffff1673ffffffffffffffffffffffffffffffffffffffff168152602001908152602001600020600301600160003373ffffffffffffffffffffffffffffffffffffffff1673ffffffffffffffffffffffffffffffffffffffff168152602001908152602001600020600401600160003373ffffffffffffffffffffffffffffffffffffffff1673ffffffffffffffffffffffffffffffffffffffff16815260200190815260200160002060050160009054906101000a900460ff166040518080602001806020018060200180602001806020018715151515815260200186810386528c818154600181600116156101000203166002900481526020019150805460018160011615610100020316600290048015610c1d5780601f10610bf257610100808354040283529160200191610c1d565b820191906000526020600020905b815481529060010190602001808311610c0057829003601f168201915b505086810385528b818154600181600116156101000203166002900481526020019150805460018160011615610100020316600290048015610ca05780601f10610c7557610100808354040283529160200191610ca0565b820191906000526020600020905b815481529060010190602001808311610c8357829003601f168201915b505086810384528a818154600181600116156101000203166002900481526020019150805460018160011615610100020316600290048015610d235780601f10610cf857610100808354040283529160200191610d23565b820191906000526020600020905b815481529060010190602001808311610d0657829003601f168201915b5050868103835289818154600181600116156101000203166002900481526020019150805460018160011615610100020316600290048015610da65780601f10610d7b57610100808354040283529160200191610da6565b820191906000526020600020905b815481529060010190602001808311610d8957829003601f168201915b5050868103825288818154600181600116156101000203166002900481526020019150805460018160011615610100020316600290048015610e295780601f10610dfe57610100808354040283529160200191610e29565b820191906000526020600020905b815481529060010190602001808311610e0c57829003601f168201915b50509b50505050505050505050505060405180910390a160019050919050565b6000801515600060149054906101000a900460ff161515141515610e6c57600080fd5b610e75336135ef565b1515610e8057600080fd5b600160003373ffffffffffffffffffffffffffffffffffffffff1673ffffffffffffffffffffffffffffffffffffffff16815260200190815260200160002060050160009054906101000a900460ff161515610edb57600080fd5b6000600160003373ffffffffffffffffffffffffffffffffffffffff1673ffffffffffffffffffffffffffffffffffffffff16815260200190815260200160002060050160006101000a81548160ff0219169083151502179055507f5f6835ea2a1961fdb2e3aec43d753d660ddf38041baaa485978e597d8236d03a600160003373ffffffffffffffffffffffffffffffffffffffff1673ffffffffffffffffffffffffffffffffffffffff168152602001908152602001600020600001600160003373ffffffffffffffffffffffffffffffffffffffff1673ffffffffffffffffffffffffffffffffffffffff168152602001908152602001600020600101600160003373ffffffffffffffffffffffffffffffffffffffff1673ffffffffffffffffffffffffffffffffffffffff168152602001908152602001600020600201600160003373ffffffffffffffffffffffffffffffffffffffff1673ffffffffffffffffffffffffffffffffffffffff168152602001908152602001600020600301600160003373ffffffffffffffffffffffffffffffffffffffff1673ffffffffffffffffffffffffffffffffffffffff168152602001908152602001600020600401600160003373ffffffffffffffffffffffffffffffffffffffff1673ffffffffffffffffffffffffffffffffffffffff16815260200190815260200160002060050160009054906101000a900460ff166040518080602001806020018060200180602001806020018715151515815260200186810386528c8181546001816001161561010002031660029004815260200191508054600181600116156101000203166002900480156111945780601f1061116957610100808354040283529160200191611194565b820191906000526020600020905b81548152906001019060200180831161117757829003601f168201915b505086810385528b8181546001816001161561010002031660029004815260200191508054600181600116156101000203166002900480156112175780601f106111ec57610100808354040283529160200191611217565b820191906000526020600020905b8154815290600101906020018083116111fa57829003601f168201915b505086810384528a81815460018160011615610100020316600290048152602001915080546001816001161561010002031660029004801561129a5780601f1061126f5761010080835404028352916020019161129a565b820191906000526020600020905b81548152906001019060200180831161127d57829003601f168201915b505086810383528981815460018160011615610100020316600290048152602001915080546001816001161561010002031660029004801561131d5780601f106112f25761010080835404028352916020019161131d565b820191906000526020600020905b81548152906001019060200180831161130057829003601f168201915b50508681038252888181546001816001161561010002031660029004815260200191508054600181600116156101000203166002900480156113a05780601f10611375576101008083540402835291602001916113a0565b820191906000526020600020905b81548152906001019060200180831161138357829003601f168201915b50509b50505050505050505050505060405180910390a16001905090565b600060149054906101000a900460ff1681565b6000809054906101000a900473ffffffffffffffffffffffffffffffffffffffff1673ffffffffffffffffffffffffffffffffffffffff163373ffffffffffffffffffffffffffffffffffffffff1614151561142c57600080fd5b60011515600060149054906101000a900460ff16151514151561144e57600080fd5b60008060146101000a81548160ff0219169083151502179055507f1f9a5f2ae53bba1390ac0766ace24e59e82481665cf401fa45dcfd1dcce14fb360405160405180910390a1565b60608060608060606000801515600060149054906101000a900460ff1615151415156114c157600080fd5b6114ca876135ef565b15156114d557600080fd5b600160008873ffffffffffffffffffffffffffffffffffffffff1673ffffffffffffffffffffffffffffffffffffffff168152602001908152602001600020600001600160008973ffffffffffffffffffffffffffffffffffffffff1673ffffffffffffffffffffffffffffffffffffffff168152602001908152602001600020600101600160008a73ffffffffffffffffffffffffffffffffffffffff1673ffffffffffffffffffffffffffffffffffffffff168152602001908152602001600020600201600160008b73ffffffffffffffffffffffffffffffffffffffff1673ffffffffffffffffffffffffffffffffffffffff168152602001908152602001600020600301600160008c73ffffffffffffffffffffffffffffffffffffffff1673ffffffffffffffffffffffffffffffffffffffff168152602001908152602001600020600401600160008d73ffffffffffffffffffffffffffffffffffffffff1673ffffffffffffffffffffffffffffffffffffffff16815260200190815260200160002060050160009054906101000a900460ff16858054600181600116156101000203166002900480601f0160208091040260200160405190810160405280929190818152602001828054600181600116156101000203166002900480156117045780601f106116d957610100808354040283529160200191611704565b820191906000526020600020905b8154815290600101906020018083116116e757829003601f168201915b50505050509550848054600181600116156101000203166002900480601f0160208091040260200160405190810160405280929190818152602001828054600181600116156101000203166002900480156117a05780601f10611775576101008083540402835291602001916117a0565b820191906000526020600020905b81548152906001019060200180831161178357829003601f168201915b50505050509450838054600181600116156101000203166002900480601f01602080910402602001604051908101604052809291908181526020018280546001816001161561010002031660029004801561183c5780601f106118115761010080835404028352916020019161183c565b820191906000526020600020905b81548152906001019060200180831161181f57829003601f168201915b50505050509350828054600181600116156101000203166002900480601f0160208091040260200160405190810160405280929190818152602001828054600181600116156101000203166002900480156118d85780601f106118ad576101008083540402835291602001916118d8565b820191906000526020600020905b8154815290600101906020018083116118bb57829003601f168201915b50505050509250818054600181600116156101000203166002900480601f0160208091040260200160405190810160405280929190818152602001828054600181600116156101000203166002900480156119745780601f1061194957610100808354040283529160200191611974565b820191906000526020600020905b81548152906001019060200180831161195757829003601f168201915b5050505050915095509550955095509550955091939550919395565b60008060009054906101000a900473ffffffffffffffffffffffffffffffffffffffff1673ffffffffffffffffffffffffffffffffffffffff163373ffffffffffffffffffffffffffffffffffffffff161415156119ed57600080fd5b6119f6826135ef565b1515611a0157600080fd5b600160008373ffffffffffffffffffffffffffffffffffffffff1673ffffffffffffffffffffffffffffffffffffffff16815260200190815260200160002060050160009054906101000a900460ff161515611a5c57600080fd5b6000600160008473ffffffffffffffffffffffffffffffffffffffff1673ffffffffffffffffffffffffffffffffffffffff16815260200190815260200160002060050160006101000a81548160ff0219169083151502179055507f5f6835ea2a1961fdb2e3aec43d753d660ddf38041baaa485978e597d8236d03a600160008473ffffffffffffffffffffffffffffffffffffffff1673ffffffffffffffffffffffffffffffffffffffff168152602001908152602001600020600001600160008573ffffffffffffffffffffffffffffffffffffffff1673ffffffffffffffffffffffffffffffffffffffff168152602001908152602001600020600101600160008673ffffffffffffffffffffffffffffffffffffffff1673ffffffffffffffffffffffffffffffffffffffff168152602001908152602001600020600201600160008773ffffffffffffffffffffffffffffffffffffffff1673ffffffffffffffffffffffffffffffffffffffff168152602001908152602001600020600301600160008873ffffffffffffffffffffffffffffffffffffffff1673ffffffffffffffffffffffffffffffffffffffff168152602001908152602001600020600401600160008973ffffffffffffffffffffffffffffffffffffffff1673ffffffffffffffffffffffffffffffffffffffff16815260200190815260200160002060050160009054906101000a900460ff166040518080602001806020018060200180602001806020018715151515815260200186810386528c818154600181600116156101000203166002900481526020019150805460018160011615610100020316600290048015611d155780601f10611cea57610100808354040283529160200191611d15565b820191906000526020600020905b815481529060010190602001808311611cf857829003601f168201915b505086810385528b818154600181600116156101000203166002900481526020019150805460018160011615610100020316600290048015611d985780601f10611d6d57610100808354040283529160200191611d98565b820191906000526020600020905b815481529060010190602001808311611d7b57829003601f168201915b505086810384528a818154600181600116156101000203166002900481526020019150805460018160011615610100020316600290048015611e1b5780601f10611df057610100808354040283529160200191611e1b565b820191906000526020600020905b815481529060010190602001808311611dfe57829003601f168201915b5050868103835289818154600181600116156101000203166002900481526020019150805460018160011615610100020316600290048015611e9e5780601f10611e7357610100808354040283529160200191611e9e565b820191906000526020600020905b815481529060010190602001808311611e8157829003601f168201915b5050868103825288818154600181600116156101000203166002900481526020019150805460018160011615610100020316600290048015611f215780601f10611ef657610100808354040283529160200191611f21565b820191906000526020600020905b815481529060010190602001808311611f0457829003601f168201915b50509b50505050505050505050505060405180910390a160019050919050565b6000801515600060149054906101000a900460ff161515141515611f6457600080fd5b611f6d336135ef565b151515611f7957600080fd5b85600160003373ffffffffffffffffffffffffffffffffffffffff1673ffffffffffffffffffffffffffffffffffffffff1681526020019081526020016000206000019080519060200190611fcf9291906136b9565b5084600160003373ffffffffffffffffffffffffffffffffffffffff1673ffffffffffffffffffffffffffffffffffffffff16815260200190815260200160002060010190805190602001906120269291906136b9565b5083600160003373ffffffffffffffffffffffffffffffffffffffff1673ffffffffffffffffffffffffffffffffffffffff168152602001908152602001600020600201908051906020019061207d9291906136b9565b5082600160003373ffffffffffffffffffffffffffffffffffffffff1673ffffffffffffffffffffffffffffffffffffffff16815260200190815260200160002060030190805190602001906120d49291906136b9565b5081600160003373ffffffffffffffffffffffffffffffffffffffff1673ffffffffffffffffffffffffffffffffffffffff168152602001908152602001600020600401908051906020019061212b9291906136b9565b5060018060003373ffffffffffffffffffffffffffffffffffffffff1673ffffffffffffffffffffffffffffffffffffffff16815260200190815260200160002060050160006101000a81548160ff021916908315150217905550600160023390806001815401808255809150509060018203906000526020600020016000909192909190916101000a81548173ffffffffffffffffffffffffffffffffffffffff021916908373ffffffffffffffffffffffffffffffffffffffff16021790555003600160003373ffffffffffffffffffffffffffffffffffffffff1673ffffffffffffffffffffffffffffffffffffffff168152602001908152602001600020600601819055507f0d613bda983df078df8d9a5fab74a4bd90ba5695aeb1decafcd21eccfaaea0a3868686868660405180806020018060200180602001806020018060200186810386528b818151815260200191508051906020019080838360005b838110156122aa57808201518184015260208101905061228f565b50505050905090810190601f1680156122d75780820380516001836020036101000a031916815260200191505b5086810385528a818151815260200191508051906020019080838360005b838110156123105780820151818401526020810190506122f5565b50505050905090810190601f16801561233d5780820380516001836020036101000a031916815260200191505b50868103845289818151815260200191508051906020019080838360005b8381101561237657808201518184015260208101905061235b565b50505050905090810190601f1680156123a35780820380516001836020036101000a031916815260200191505b50868103835288818151815260200191508051906020019080838360005b838110156123dc5780820151818401526020810190506123c1565b50505050905090810190601f1680156124095780820380516001836020036101000a031916815260200191505b50868103825287818151815260200191508051906020019080838360005b83811015612442578082015181840152602081019050612427565b50505050905090810190601f16801561246f5780820380516001836020036101000a031916815260200191505b509a505050505050505050505060405180910390a1600160028054905003905095945050505050565b6000809054906101000a900473ffffffffffffffffffffffffffffffffffffffff1681565b6000809054906101000a900473ffffffffffffffffffffffffffffffffffffffff1673ffffffffffffffffffffffffffffffffffffffff163373ffffffffffffffffffffffffffffffffffffffff1614151561251857600080fd5b60001515600060149054906101000a900460ff16151514151561253a57600080fd5b600073ffffffffffffffffffffffffffffffffffffffff168173ffffffffffffffffffffffffffffffffffffffff161415156125b157806000806101000a81548173ffffffffffffffffffffffffffffffffffffffff021916908373ffffffffffffffffffffffffffffffffffffffff1602179055505b7fa210d63b5a22487066397c631c738bc560e60390098601461599961c472139f060405160405180910390a150565b6000801515600060149054906101000a900460ff16151514151561260357600080fd5b61260c336135ef565b151561261757600080fd5b81600160003373ffffffffffffffffffffffffffffffffffffffff1673ffffffffffffffffffffffffffffffffffffffff168152602001908152602001600020600001908051906020019061266d9291906136b9565b507f5f6835ea2a1961fdb2e3aec43d753d660ddf38041baaa485978e597d8236d03a600160003373ffffffffffffffffffffffffffffffffffffffff1673ffffffffffffffffffffffffffffffffffffffff168152602001908152602001600020600001600160003373ffffffffffffffffffffffffffffffffffffffff1673ffffffffffffffffffffffffffffffffffffffff168152602001908152602001600020600101600160003373ffffffffffffffffffffffffffffffffffffffff1673ffffffffffffffffffffffffffffffffffffffff168152602001908152602001600020600201600160003373ffffffffffffffffffffffffffffffffffffffff1673ffffffffffffffffffffffffffffffffffffffff168152602001908152602001600020600301600160003373ffffffffffffffffffffffffffffffffffffffff1673ffffffffffffffffffffffffffffffffffffffff168152602001908152602001600020600401600160003373ffffffffffffffffffffffffffffffffffffffff1673ffffffffffffffffffffffffffffffffffffffff16815260200190815260200160002060050160009054906101000a900460ff166040518080602001806020018060200180602001806020018715151515815260200186810386528c8181546001816001161561010002031660029004815260200191508054600181600116156101000203166002900480156128cc5780601f106128a1576101008083540402835291602001916128cc565b820191906000526020600020905b8154815290600101906020018083116128af57829003601f168201915b505086810385528b81815460018160011615610100020316600290048152602001915080546001816001161561010002031660029004801561294f5780601f106129245761010080835404028352916020019161294f565b820191906000526020600020905b81548152906001019060200180831161293257829003601f168201915b505086810384528a8181546001816001161561010002031660029004815260200191508054600181600116156101000203166002900480156129d25780601f106129a7576101008083540402835291602001916129d2565b820191906000526020600020905b8154815290600101906020018083116129b557829003601f168201915b5050868103835289818154600181600116156101000203166002900481526020019150805460018160011615610100020316600290048015612a555780601f10612a2a57610100808354040283529160200191612a55565b820191906000526020600020905b815481529060010190602001808311612a3857829003601f168201915b5050868103825288818154600181600116156101000203166002900481526020019150805460018160011615610100020316600290048015612ad85780601f10612aad57610100808354040283529160200191612ad8565b820191906000526020600020905b815481529060010190602001808311612abb57829003601f168201915b50509b50505050505050505050505060405180910390a160019050919050565b60008060009054906101000a900473ffffffffffffffffffffffffffffffffffffffff1673ffffffffffffffffffffffffffffffffffffffff163373ffffffffffffffffffffffffffffffffffffffff16141515612b5557600080fd5b612b5e826135ef565b1515612b6957600080fd5b600160008373ffffffffffffffffffffffffffffffffffffffff1673ffffffffffffffffffffffffffffffffffffffff16815260200190815260200160002060050160009054906101000a900460ff16151515612bc557600080fd5b60018060008473ffffffffffffffffffffffffffffffffffffffff1673ffffffffffffffffffffffffffffffffffffffff16815260200190815260200160002060050160006101000a81548160ff0219169083151502179055507f5f6835ea2a1961fdb2e3aec43d753d660ddf38041baaa485978e597d8236d03a600160008473ffffffffffffffffffffffffffffffffffffffff1673ffffffffffffffffffffffffffffffffffffffff168152602001908152602001600020600001600160008573ffffffffffffffffffffffffffffffffffffffff1673ffffffffffffffffffffffffffffffffffffffff168152602001908152602001600020600101600160008673ffffffffffffffffffffffffffffffffffffffff1673ffffffffffffffffffffffffffffffffffffffff168152602001908152602001600020600201600160008773ffffffffffffffffffffffffffffffffffffffff1673ffffffffffffffffffffffffffffffffffffffff168152602001908152602001600020600301600160008873ffffffffffffffffffffffffffffffffffffffff1673ffffffffffffffffffffffffffffffffffffffff168152602001908152602001600020600401600160008973ffffffffffffffffffffffffffffffffffffffff1673ffffffffffffffffffffffffffffffffffffffff16815260200190815260200160002060050160009054906101000a900460ff166040518080602001806020018060200180602001806020018715151515815260200186810386528c818154600181600116156101000203166002900481526020019150805460018160011615610100020316600290048015612e7d5780601f10612e5257610100808354040283529160200191612e7d565b820191906000526020600020905b815481529060010190602001808311612e6057829003601f168201915b505086810385528b818154600181600116156101000203166002900481526020019150805460018160011615610100020316600290048015612f005780601f10612ed557610100808354040283529160200191612f00565b820191906000526020600020905b815481529060010190602001808311612ee357829003601f168201915b505086810384528a818154600181600116156101000203166002900481526020019150805460018160011615610100020316600290048015612f835780601f10612f5857610100808354040283529160200191612f83565b820191906000526020600020905b815481529060010190602001808311612f6657829003601f168201915b50508681038352898181546001816001161561010002031660029004815260200191508054600181600116156101000203166002900480156130065780601f10612fdb57610100808354040283529160200191613006565b820191906000526020600020905b815481529060010190602001808311612fe957829003601f168201915b50508681038252888181546001816001161561010002031660029004815260200191508054600181600116156101000203166002900480156130895780601f1061305e57610100808354040283529160200191613089565b820191906000526020600020905b81548152906001019060200180831161306c57829003601f168201915b50509b50505050505050505050505060405180910390a160019050919050565b6000801515600060149054906101000a900460ff1615151415156130cc57600080fd5b600280549050905090565b6000801515600060149054906101000a900460ff1615151415156130fa57600080fd5b613103336135ef565b151561310e57600080fd5b81600160003373ffffffffffffffffffffffffffffffffffffffff1673ffffffffffffffffffffffffffffffffffffffff16815260200190815260200160002060010190805190602001906131649291906136b9565b507f5f6835ea2a1961fdb2e3aec43d753d660ddf38041baaa485978e597d8236d03a600160003373ffffffffffffffffffffffffffffffffffffffff1673ffffffffffffffffffffffffffffffffffffffff168152602001908152602001600020600001600160003373ffffffffffffffffffffffffffffffffffffffff1673ffffffffffffffffffffffffffffffffffffffff168152602001908152602001600020600101600160003373ffffffffffffffffffffffffffffffffffffffff1673ffffffffffffffffffffffffffffffffffffffff168152602001908152602001600020600201600160003373ffffffffffffffffffffffffffffffffffffffff1673ffffffffffffffffffffffffffffffffffffffff168152602001908152602001600020600301600160003373ffffffffffffffffffffffffffffffffffffffff1673ffffffffffffffffffffffffffffffffffffffff168152602001908152602001600020600401600160003373ffffffffffffffffffffffffffffffffffffffff1673ffffffffffffffffffffffffffffffffffffffff16815260200190815260200160002060050160009054906101000a900460ff166040518080602001806020018060200180602001806020018715151515815260200186810386528c8181546001816001161561010002031660029004815260200191508054600181600116156101000203166002900480156133c35780601f10613398576101008083540402835291602001916133c3565b820191906000526020600020905b8154815290600101906020018083116133a657829003601f168201915b505086810385528b8181546001816001161561010002031660029004815260200191508054600181600116156101000203166002900480156134465780601f1061341b57610100808354040283529160200191613446565b820191906000526020600020905b81548152906001019060200180831161342957829003601f168201915b505086810384528a8181546001816001161561010002031660029004815260200191508054600181600116156101000203166002900480156134c95780601f1061349e576101008083540402835291602001916134c9565b820191906000526020600020905b8154815290600101906020018083116134ac57829003601f168201915b505086810383528981815460018160011615610100020316600290048152602001915080546001816001161561010002031660029004801561354c5780601f106135215761010080835404028352916020019161354c565b820191906000526020600020905b81548152906001019060200180831161352f57829003601f168201915b50508681038252888181546001816001161561010002031660029004815260200191508054600181600116156101000203166002900480156135cf5780601f106135a4576101008083540402835291602001916135cf565b820191906000526020600020905b8154815290600101906020018083116135b257829003601f168201915b50509b50505050505050505050505060405180910390a160019050919050565b600080600280549050141561360757600090506136b4565b8173ffffffffffffffffffffffffffffffffffffffff166002600160008573ffffffffffffffffffffffffffffffffffffffff1673ffffffffffffffffffffffffffffffffffffffff1681526020019081526020016000206006015481548110151561366f57fe5b9060005260206000200160009054906101000a900473ffffffffffffffffffffffffffffffffffffffff1673ffffffffffffffffffffffffffffffffffffffff161490505b919050565b828054600181600116156101000203166002900490600052602060002090601f016020900481019282601f106136fa57805160ff1916838001178555613728565b82800160010185558215613728579182015b8281111561372757825182559160200191906001019061370c565b5b5090506137359190613739565b5090565b61375b91905b8082111561375757600081600090555060010161373f565b5090565b905600a165627a7a72305820e1d82d7ebce349692514e0e89b3e4cec34c7c3b9f95e5946f3b3455a040451b70029",
  "source": "pragma solidity ^0.4.23;\r\n\r\nimport \"./Ownable.sol\";\r\n\r\ncontract OriginUser is Ownable{\r\n\r\n    struct UserStruct{\r\n        string fullName;\r\n        string dateOfBirth;\r\n        string email;\r\n        string role;\r\n        string brand;\r\n        bool active;\r\n        uint index;\r\n    }\r\n\r\n    mapping (address => UserStruct) private userStructs;\r\n    address[] private userIndex;\r\n\r\n\r\n    event NewUser(string _fullName, string _dateOfBirth, string _email, string _role, string _brand);\r\n    event UpdateUser(string _fullName, string _dateOfBirth, string _email, string _role, string _brand, bool active);\r\n\r\n    function isUser(address _userAddress) internal constant returns(bool isIndeed) {\r\n        if(userIndex.length == 0) return false;\r\n        return (userIndex[userStructs[_userAddress].index] == _userAddress);\r\n    }\r\n\r\n\r\n    function insertUser(string _fullName, string _dateOfBirth, string _email, string _role, string _brand) public unpausedSupplyChain returns (uint index){\r\n        require(!isUser(msg.sender));\r\n        userStructs[msg.sender].fullName = _fullName;\r\n        userStructs[msg.sender].dateOfBirth = _dateOfBirth;\r\n        userStructs[msg.sender].email = _email;\r\n        userStructs[msg.sender].role = _role;\r\n        userStructs[msg.sender].brand = _brand;\r\n        userStructs[msg.sender].active = true;\r\n        userStructs[msg.sender].index = userIndex.push(msg.sender) - 1;\r\n        \r\n        emit NewUser(_fullName, _dateOfBirth, _email, _role, _brand);\r\n\r\n        return userIndex.length - 1;\r\n    }\r\n\r\n    function getUser(address _userAddress) view public unpausedSupplyChain returns (string _fullName, string _dateOfBirth, string _email, string _role, string _brand, bool active){\r\n        require(isUser(_userAddress));\r\n        return (userStructs[_userAddress].fullName, userStructs[_userAddress].dateOfBirth, userStructs[_userAddress].email, userStructs[_userAddress].role, userStructs[_userAddress].brand, userStructs[_userAddress].active);\r\n    }\r\n\r\n    function updateUserFullName(string _fullName) public unpausedSupplyChain returns(bool success){\r\n        require(isUser(msg.sender));\r\n        userStructs[msg.sender].fullName = _fullName;\r\n        emit UpdateUser(userStructs[msg.sender].fullName, userStructs[msg.sender].dateOfBirth, userStructs[msg.sender].email, userStructs[msg.sender].role, userStructs[msg.sender].brand, userStructs[msg.sender].active);\r\n        return true;\r\n    }\r\n\r\n    function updateUserDateOfBirth(string _dateOfBirth) public unpausedSupplyChain returns(bool success){\r\n        require(isUser(msg.sender));\r\n        userStructs[msg.sender].dateOfBirth = _dateOfBirth;\r\n        emit UpdateUser(userStructs[msg.sender].fullName, userStructs[msg.sender].dateOfBirth, userStructs[msg.sender].email, userStructs[msg.sender].role, userStructs[msg.sender].brand, userStructs[msg.sender].active);\r\n        return true;\r\n    }\r\n\r\n    function updateUserEmail(string _email) public unpausedSupplyChain returns(bool success){\r\n        require(isUser(msg.sender));\r\n        userStructs[msg.sender].email = _email;\r\n        emit UpdateUser(userStructs[msg.sender].fullName, userStructs[msg.sender].dateOfBirth, userStructs[msg.sender].email, userStructs[msg.sender].role, userStructs[msg.sender].brand, userStructs[msg.sender].active);\r\n        return true;\r\n    }\r\n\r\n    function deactivateUser() public unpausedSupplyChain returns(bool success){\r\n        require(isUser(msg.sender));\r\n        require(userStructs[msg.sender].active);\r\n        userStructs[msg.sender].active = false;\r\n        emit UpdateUser(userStructs[msg.sender].fullName, userStructs[msg.sender].dateOfBirth, userStructs[msg.sender].email, userStructs[msg.sender].role, userStructs[msg.sender].brand, userStructs[msg.sender].active);\r\n        return true;\r\n    }\r\n\r\n    function activateUser(address _userAddress) public onlyOwner returns(bool success){\r\n        require(isUser(_userAddress));\r\n        require(!userStructs[_userAddress].active);\r\n        userStructs[_userAddress].active = true;\r\n        emit UpdateUser(userStructs[_userAddress].fullName, userStructs[_userAddress].dateOfBirth, userStructs[_userAddress].email, userStructs[_userAddress].role, userStructs[_userAddress].brand, userStructs[_userAddress].active);\r\n        return true;\r\n    }\r\n    \r\n    function ownerDeactivatesUser(address _address) public onlyOwner returns(bool success){\r\n        require(isUser(_address));\r\n        require(userStructs[_address].active);\r\n        userStructs[_address].active = false;\r\n        emit UpdateUser(userStructs[_address].fullName, userStructs[_address].dateOfBirth, userStructs[_address].email, userStructs[_address].role, userStructs[_address].brand, userStructs[_address].active);\r\n        return true;\r\n    }\r\n\r\n    function getUserCount() view public unpausedSupplyChain returns(uint count){\r\n        return userIndex.length;\r\n    }\r\n}",
  "sourcePath": "C:\\Users\\ab\\Desktop\\web apps\\projects\\origin\\contracts\\OriginUser.sol",
  "compiler": {
    "name": "solc",
    "version": "0.4.24+commit.e67f0147.Emscripten.clang"
  },
  "schemaVersion": "2.0.1",
  "updatedAt": "2018-08-15T16:51:22.918Z"
}