{
  "contractName": "OriginUser",
  "abi": [
    {
      "constant": false,
      "inputs": [],
      "name": "pauseSupplyChain",
      "outputs": [],
      "payable": false,
      "stateMutability": "nonpayable",
      "type": "function"
    },
    {
      "constant": true,
      "inputs": [
        {
          "name": "",
          "type": "address"
        }
      ],
      "name": "userStructs",
      "outputs": [
        {
          "name": "fullName",
          "type": "string"
        },
        {
          "name": "dateOfBirth",
          "type": "string"
        },
        {
          "name": "email",
          "type": "string"
        },
        {
          "name": "role",
          "type": "uint256"
        },
        {
          "name": "brand",
          "type": "string"
        },
        {
          "name": "active",
          "type": "bool"
        },
        {
          "name": "index",
          "type": "uint256"
        }
      ],
      "payable": false,
      "stateMutability": "view",
      "type": "function"
    },
    {
      "constant": true,
      "inputs": [],
      "name": "paused",
      "outputs": [
        {
          "name": "",
          "type": "bool"
        }
      ],
      "payable": false,
      "stateMutability": "view",
      "type": "function"
    },
    {
      "constant": false,
      "inputs": [],
      "name": "unPauseSupplyChain",
      "outputs": [],
      "payable": false,
      "stateMutability": "nonpayable",
      "type": "function"
    },
    {
      "constant": true,
      "inputs": [],
      "name": "owner",
      "outputs": [
        {
          "name": "",
          "type": "address"
        }
      ],
      "payable": false,
      "stateMutability": "view",
      "type": "function"
    },
    {
      "constant": false,
      "inputs": [
        {
          "name": "_newOwner",
          "type": "address"
        }
      ],
      "name": "changeOwner",
      "outputs": [],
      "payable": false,
      "stateMutability": "nonpayable",
      "type": "function"
    },
    {
      "anonymous": false,
      "inputs": [
        {
          "indexed": false,
          "name": "_fullName",
          "type": "string"
        },
        {
          "indexed": false,
          "name": "_dateOfBirth",
          "type": "string"
        },
        {
          "indexed": false,
          "name": "_email",
          "type": "string"
        },
        {
          "indexed": false,
          "name": "_role",
          "type": "uint256"
        },
        {
          "indexed": false,
          "name": "_brand",
          "type": "string"
        }
      ],
      "name": "NewUser",
      "type": "event"
    },
    {
      "anonymous": false,
      "inputs": [
        {
          "indexed": false,
          "name": "_fullName",
          "type": "string"
        },
        {
          "indexed": false,
          "name": "_dateOfBirth",
          "type": "string"
        },
        {
          "indexed": false,
          "name": "_email",
          "type": "string"
        },
        {
          "indexed": false,
          "name": "_role",
          "type": "uint256"
        },
        {
          "indexed": false,
          "name": "_brand",
          "type": "string"
        },
        {
          "indexed": false,
          "name": "active",
          "type": "bool"
        }
      ],
      "name": "UpdateUser",
      "type": "event"
    },
    {
      "anonymous": false,
      "inputs": [],
      "name": "SupplyChainPaused",
      "type": "event"
    },
    {
      "anonymous": false,
      "inputs": [],
      "name": "SupplyChainUnPaused",
      "type": "event"
    },
    {
      "anonymous": false,
      "inputs": [],
      "name": "OwnerChanged",
      "type": "event"
    },
    {
      "constant": false,
      "inputs": [
        {
          "name": "_fullName",
          "type": "string"
        },
        {
          "name": "_dateOfBirth",
          "type": "string"
        },
        {
          "name": "_email",
          "type": "string"
        },
        {
          "name": "_role",
          "type": "uint256"
        },
        {
          "name": "_brand",
          "type": "string"
        }
      ],
      "name": "insertUser",
      "outputs": [
        {
          "name": "index",
          "type": "uint256"
        }
      ],
      "payable": false,
      "stateMutability": "nonpayable",
      "type": "function"
    },
    {
      "constant": true,
      "inputs": [
        {
          "name": "_userAddress",
          "type": "address"
        }
      ],
      "name": "getUser",
      "outputs": [
        {
          "name": "_fullName",
          "type": "string"
        },
        {
          "name": "_dateOfBirth",
          "type": "string"
        },
        {
          "name": "_email",
          "type": "string"
        },
        {
          "name": "_role",
          "type": "uint256"
        },
        {
          "name": "_brand",
          "type": "string"
        },
        {
          "name": "active",
          "type": "bool"
        }
      ],
      "payable": false,
      "stateMutability": "view",
      "type": "function"
    },
    {
      "constant": false,
      "inputs": [
        {
          "name": "_fullName",
          "type": "string"
        }
      ],
      "name": "updateUserFullName",
      "outputs": [
        {
          "name": "success",
          "type": "bool"
        }
      ],
      "payable": false,
      "stateMutability": "nonpayable",
      "type": "function"
    },
    {
      "constant": false,
      "inputs": [
        {
          "name": "_dateOfBirth",
          "type": "string"
        }
      ],
      "name": "updateUserDateOfBirth",
      "outputs": [
        {
          "name": "success",
          "type": "bool"
        }
      ],
      "payable": false,
      "stateMutability": "nonpayable",
      "type": "function"
    },
    {
      "constant": false,
      "inputs": [
        {
          "name": "_email",
          "type": "string"
        }
      ],
      "name": "updateUserEmail",
      "outputs": [
        {
          "name": "success",
          "type": "bool"
        }
      ],
      "payable": false,
      "stateMutability": "nonpayable",
      "type": "function"
    },
    {
      "constant": false,
      "inputs": [],
      "name": "deactivateUser",
      "outputs": [
        {
          "name": "success",
          "type": "bool"
        }
      ],
      "payable": false,
      "stateMutability": "nonpayable",
      "type": "function"
    },
    {
      "constant": false,
      "inputs": [
        {
          "name": "_userAddress",
          "type": "address"
        }
      ],
      "name": "activateUser",
      "outputs": [
        {
          "name": "success",
          "type": "bool"
        }
      ],
      "payable": false,
      "stateMutability": "nonpayable",
      "type": "function"
    },
    {
      "constant": false,
      "inputs": [
        {
          "name": "_address",
          "type": "address"
        }
      ],
      "name": "ownerDeactivatesUser",
      "outputs": [
        {
          "name": "success",
          "type": "bool"
        }
      ],
      "payable": false,
      "stateMutability": "nonpayable",
      "type": "function"
    },
    {
      "constant": true,
      "inputs": [],
      "name": "getUserCount",
      "outputs": [
        {
          "name": "count",
          "type": "uint256"
        }
      ],
      "payable": false,
      "stateMutability": "view",
      "type": "function"
    }
  ],
  "bytecode": "0x608060405260008054600160a060020a03191633179055611bce806100256000396000f3006080604052600436106100da5763ffffffff7c0100000000000000000000000000000000000000000000000000000000600035041663070aff1c81146100df57806317afb951146100f657806319447eb614610221578063470d3b4c1461040557806355ea2000146104725780635c975abb146104875780635f38a9691461049c5780636f77926b146104b1578063754cb3ba1461068e5780638da5cb5b146106af578063a6f9dae1146106e0578063a9d959e514610701578063b4acfe1c1461075a578063b5cb15f71461077b578063e9f2bf8c14610790575b600080fd5b3480156100eb57600080fd5b506100f46107e9565b005b34801561010257600080fd5b506040805160206004803580820135601f810184900484028501840190955284845261020f94369492936024939284019190819084018382808284375050604080516020601f89358b018035918201839004830284018301909452808352979a99988101979196509182019450925082915084018382808284375050604080516020601f89358b018035918201839004830284018301909452808352979a99988101979196509182019450925082915084018382808284375050604080516020601f818a01358b0180359182018390048302840183018552818452989b8a359b909a9099940197509195509182019350915081908401838280828437509497506108649650505050505050565b60408051918252519081900360200190f35b34801561022d57600080fd5b50610242600160a060020a0360043516610b8c565b60405180806020018060200180602001888152602001806020018715151515815260200186815260200185810385528c818151815260200191508051906020019080838360005b838110156102a1578181015183820152602001610289565b50505050905090810190601f1680156102ce5780820380516001836020036101000a031916815260200191505b5085810384528b5181528b516020918201918d019080838360005b838110156103015781810151838201526020016102e9565b50505050905090810190601f16801561032e5780820380516001836020036101000a031916815260200191505b5085810383528a5181528a516020918201918c019080838360005b83811015610361578181015183820152602001610349565b50505050905090810190601f16801561038e5780820380516001836020036101000a031916815260200191505b5085810382528851815288516020918201918a019080838360005b838110156103c15781810151838201526020016103a9565b50505050905090810190601f1680156103ee5780820380516001836020036101000a031916815260200191505b509b50505050505050505050505060405180910390f35b34801561041157600080fd5b506040805160206004803580820135601f810184900484028501840190955284845261045e943694929360249392840191908190840183828082843750949750610dff9650505050505050565b604080519115158252519081900360200190f35b34801561047e57600080fd5b5061045e6110c2565b34801561049357600080fd5b5061045e611360565b3480156104a857600080fd5b506100f4611370565b3480156104bd57600080fd5b506104d2600160a060020a03600435166113e9565b60405180806020018060200180602001878152602001806020018615151515815260200185810385528b818151815260200191508051906020019080838360005b8381101561052b578181015183820152602001610513565b50505050905090810190601f1680156105585780820380516001836020036101000a031916815260200191505b5085810384528a5181528a516020918201918c019080838360005b8381101561058b578181015183820152602001610573565b50505050905090810190601f1680156105b85780820380516001836020036101000a031916815260200191505b5085810383528951815289516020918201918b019080838360005b838110156105eb5781810151838201526020016105d3565b50505050905090810190601f1680156106185780820380516001836020036101000a031916815260200191505b50858103825287518152875160209182019189019080838360005b8381101561064b578181015183820152602001610633565b50505050905090810190601f1680156106785780820380516001836020036101000a031916815260200191505b509a505050505050505050505060405180910390f35b34801561069a57600080fd5b5061045e600160a060020a03600435166116ce565b3480156106bb57600080fd5b506106c46117da565b60408051600160a060020a039092168252519081900360200190f35b3480156106ec57600080fd5b506100f4600160a060020a03600435166117e9565b34801561070d57600080fd5b506040805160206004803580820135601f810184900484028501840190955284845261045e94369492936024939284019190819084018382808284375094975061187b9650505050505050565b34801561076657600080fd5b5061045e600160a060020a03600435166118e8565b34801561078757600080fd5b5061020f6119fd565b34801561079c57600080fd5b506040805160206004803580820135601f810184900484028501840190955284845261045e943694929360249392840191908190840183828082843750949750611a1c9650505050505050565b600054600160a060020a0316331461080057600080fd5b60005460a060020a900460ff161561081757600080fd5b6000805474ff0000000000000000000000000000000000000000191660a060020a1781556040517f9f169b4d6224654508c3ec6cf2a95651d3f144d8b96ab8742b58ac24816502b79190a1565b6000805460a060020a900460ff161561087c57600080fd5b61088533611a8f565b1561088f57600080fd5b33600090815260016020908152604090912087516108af92890190611aea565b5033600090815260016020818152604090922087516108d693919092019190880190611aea565b5033600090815260016020908152604090912085516108fd92600290920191870190611aea565b5033600090815260016020908152604090912060038101859055835161092b92600490920191850190611aea565b5033600081815260016020818152604080842060058101805460ff1916851790556002805494850190557f405787fa12a823e0f2b7631cc41b3ba8828b3321ca811111fa75cd3aa3bb5ace8401805473ffffffffffffffffffffffffffffffffffffffff191690961790955560069094019190915582516060810187905260a08082528a519082015289517f98c11ca29771dbb9d123d683d243fc07579d96f953898505abe9bb1da4d23aa6948b948b948b948b948b949193849384810193850192608086019260c08701928d0191908190849084905b83811015610a1a578181015183820152602001610a02565b50505050905090810190601f168015610a475780820380516001836020036101000a031916815260200191505b5085810384528951815289516020918201918b019080838360005b83811015610a7a578181015183820152602001610a62565b50505050905090810190601f168015610aa75780820380516001836020036101000a031916815260200191505b5085810383528851815288516020918201918a019080838360005b83811015610ada578181015183820152602001610ac2565b50505050905090810190601f168015610b075780820380516001836020036101000a031916815260200191505b50858103825286518152865160209182019188019080838360005b83811015610b3a578181015183820152602001610b22565b50505050905090810190601f168015610b675780820380516001836020036101000a031916815260200191505b50995050505050505050505060405180910390a1506002546000190195945050505050565b60016020818152600092835260409283902080548451600294821615610100026000190190911693909304601f8101839004830284018301909452838352928391830182828015610c1e5780601f10610bf357610100808354040283529160200191610c1e565b820191906000526020600020905b815481529060010190602001808311610c0157829003601f168201915b505050505090806001018054600181600116156101000203166002900480601f016020809104026020016040519081016040528092919081815260200182805460018160011615610100020316600290048015610cbc5780601f10610c9157610100808354040283529160200191610cbc565b820191906000526020600020905b815481529060010190602001808311610c9f57829003601f168201915b50505060028085018054604080516020601f6000196101006001871615020190941695909504928301859004850281018501909152818152959695945090925090830182828015610d4e5780601f10610d2357610100808354040283529160200191610d4e565b820191906000526020600020905b815481529060010190602001808311610d3157829003601f168201915b50505050600383015460048401805460408051602060026001851615610100026000190190941693909304601f81018490048402820184019092528181529596939593945090830182828015610de55780601f10610dba57610100808354040283529160200191610de5565b820191906000526020600020905b815481529060010190602001808311610dc857829003601f168201915b505050506005830154600690930154919260ff1691905087565b6000805460a060020a900460ff1615610e1757600080fd5b610e2033611a8f565b1515610e2b57600080fd5b3360009081526001602052604090206005015460ff161515610e4c57600080fd5b3360009081526001602090815260409091208351610e7292600290920191850190611aea565b50336000908152600160208181526040928390206003810154600582015485516060810183905260ff90911680151560a083015260c080835284546002600019828a16156101000201909116819004918401829052600080516020611b83833981519152989597880196908801956004890194928392830191830190608084019060e08501908c908015610f475780601f10610f1c57610100808354040283529160200191610f47565b820191906000526020600020905b815481529060010190602001808311610f2a57829003601f168201915b505085810384528a54600260001961010060018416150201909116048082526020909101908b908015610fbb5780601f10610f9057610100808354040283529160200191610fbb565b820191906000526020600020905b815481529060010190602001808311610f9e57829003601f168201915b505085810383528954600260001961010060018416150201909116048082526020909101908a90801561102f5780601f106110045761010080835404028352916020019161102f565b820191906000526020600020905b81548152906001019060200180831161101257829003601f168201915b50508581038252875460026000196101006001841615020190911604808252602090910190889080156110a35780601f10611078576101008083540402835291602001916110a3565b820191906000526020600020905b81548152906001019060200180831161108657829003601f168201915b50509a505050505050505050505060405180910390a15060015b919050565b6000805460a060020a900460ff16156110da57600080fd5b6110e333611a8f565b15156110ee57600080fd5b3360009081526001602052604090206005015460ff16151561110f57600080fd5b33600090815260016020818152604080842060058101805460ff19169055600381015482516060810182905260a0810187905260c080825283546002600019828a16156101000201909116819004918301829052600080516020611b8383398151915298949788019690880195939460048901949093928392830191830190608084019060e08501908c9080156111e75780601f106111bc576101008083540402835291602001916111e7565b820191906000526020600020905b8154815290600101906020018083116111ca57829003601f168201915b505085810384528a54600260001961010060018416150201909116048082526020909101908b90801561125b5780601f106112305761010080835404028352916020019161125b565b820191906000526020600020905b81548152906001019060200180831161123e57829003601f168201915b505085810383528954600260001961010060018416150201909116048082526020909101908a9080156112cf5780601f106112a4576101008083540402835291602001916112cf565b820191906000526020600020905b8154815290600101906020018083116112b257829003601f168201915b50508581038252875460026000196101006001841615020190911604808252602090910190889080156113435780601f1061131857610100808354040283529160200191611343565b820191906000526020600020905b81548152906001019060200180831161132657829003601f168201915b50509a505050505050505050505060405180910390a15060015b90565b60005460a060020a900460ff1681565b600054600160a060020a0316331461138757600080fd5b60005460a060020a900460ff1615156001146113a257600080fd5b6000805474ff0000000000000000000000000000000000000000191681556040517f1f9a5f2ae53bba1390ac0766ace24e59e82481665cf401fa45dcfd1dcce14fb39190a1565b6000805460609182918291908290829060a060020a900460ff161561140d57600080fd5b61141687611a8f565b151561142157600080fd5b600160a060020a03871660009081526001602052604090206005015460ff16151561144b57600080fd5b600160a060020a03871660009081526001602081815260409283902060038101546005820154825486516002610100838916150260001901909216829004601f8101879004870282018701909852878152939695870195908701949293600488019360ff90931692909188918301828280156115085780601f106114dd57610100808354040283529160200191611508565b820191906000526020600020905b8154815290600101906020018083116114eb57829003601f168201915b5050885460408051602060026001851615610100026000190190941693909304601f8101849004840282018401909252818152959b508a9450925084019050828280156115965780601f1061156b57610100808354040283529160200191611596565b820191906000526020600020905b81548152906001019060200180831161157957829003601f168201915b5050875460408051602060026001851615610100026000190190941693909304601f8101849004840282018401909252818152959a50899450925084019050828280156116245780601f106115f957610100808354040283529160200191611624565b820191906000526020600020905b81548152906001019060200180831161160757829003601f168201915b5050855460408051602060026001851615610100026000190190941693909304601f8101849004840282018401909252818152959950879450925084019050828280156116b25780601f10611687576101008083540402835291602001916116b2565b820191906000526020600020905b81548152906001019060200180831161169557829003601f168201915b5050505050915095509550955095509550955091939550919395565b60008054600160a060020a031633146116e657600080fd5b6116ef82611a8f565b15156116fa57600080fd5b600160a060020a03821660009081526001602052604090206005015460ff16151561172457600080fd5b600160a060020a038216600090815260016020818152604080842060058101805460ff19169055600381015482516060810182905260a0810187905260c080825283546002600019828a16156101000201909116819004918301829052600080516020611b8383398151915298949788019690880195939460048901949093928392830191830190608084019060e08501908c908015610f475780601f10610f1c57610100808354040283529160200191610f47565b600054600160a060020a031681565b600054600160a060020a0316331461180057600080fd5b60005460a060020a900460ff161561181757600080fd5b600160a060020a0381161561184f576000805473ffffffffffffffffffffffffffffffffffffffff1916600160a060020a0383161790555b6040517fa210d63b5a22487066397c631c738bc560e60390098601461599961c472139f090600090a150565b6000805460a060020a900460ff161561189357600080fd5b61189c33611a8f565b15156118a757600080fd5b3360009081526001602052604090206005015460ff1615156118c857600080fd5b3360009081526001602090815260409091208351610e7292850190611aea565b60008054600160a060020a0316331461190057600080fd5b61190982611a8f565b151561191457600080fd5b600160a060020a03821660009081526001602052604090206005015460ff161561193d57600080fd5b600160a060020a03821660009081526001602081815260409283902060058101805460ff1916841790819055600382015485516060810182905260ff90921680151560a084015260c080845284546002610100828a16150260001901909116819004918501829052600080516020611b83833981519152989597880196908801959394600489019490928392830191830190608084019060e08501908c908015610f475780601f10610f1c57610100808354040283529160200191610f47565b6000805460a060020a900460ff1615611a1557600080fd5b5060025490565b6000805460a060020a900460ff1615611a3457600080fd5b611a3d33611a8f565b1515611a4857600080fd5b3360009081526001602052604090206005015460ff161515611a6957600080fd5b3360009081526001602081815260409092208451610e7293919092019190850190611aea565b6002546000901515611aa3575060006110bd565b600160a060020a038216600081815260016020526040902060060154600280549091908110611ace57fe5b600091825260209091200154600160a060020a03161492915050565b828054600181600116156101000203166002900490600052602060002090601f016020900481019282601f10611b2b57805160ff1916838001178555611b58565b82800160010185558215611b58579182015b82811115611b58578251825591602001919060010190611b3d565b50611b64929150611b68565b5090565b61135d91905b80821115611b645760008155600101611b6e5600bf761d4376a3be9c4ae32a4d5bf182294aa68336242f44bd973b0e722910526da165627a7a7230582044f66b05e0e64bc4acb272b56a46427d778943c468169d4359c5aef11101ec5a0029",
  "source": "pragma solidity ^0.4.23;\r\n\r\nimport \"./Ownable.sol\";\r\n\r\ncontract OriginUser is Ownable{\r\n\r\n    struct UserStruct{\r\n        string fullName;\r\n        string dateOfBirth;\r\n        string email;\r\n        uint role;\r\n        string brand;\r\n        bool active;\r\n        uint index;\r\n    }\r\n\r\n    mapping (address => UserStruct) public userStructs;\r\n    address[] private userIndex;\r\n\r\n\r\n    event NewUser(string _fullName, string _dateOfBirth, string _email, uint _role, string _brand);\r\n    event UpdateUser(string _fullName, string _dateOfBirth, string _email, uint _role, string _brand, bool active);\r\n\r\n    function isUser(address _userAddress) internal constant returns(bool isIndeed) {\r\n        if(userIndex.length == 0) return false;\r\n        return (userIndex[userStructs[_userAddress].index] == _userAddress);\r\n    }\r\n\r\n\r\n    function insertUser(string _fullName, string _dateOfBirth, string _email, uint _role, string _brand) public unpausedSupplyChain returns (uint index){\r\n        require(!isUser(msg.sender));\r\n        userStructs[msg.sender].fullName = _fullName;\r\n        userStructs[msg.sender].dateOfBirth = _dateOfBirth;\r\n        userStructs[msg.sender].email = _email;\r\n        userStructs[msg.sender].role = _role;\r\n        userStructs[msg.sender].brand = _brand;\r\n        userStructs[msg.sender].active = true;\r\n        userStructs[msg.sender].index = userIndex.push(msg.sender) - 1;\r\n        \r\n        emit NewUser(_fullName, _dateOfBirth, _email, _role, _brand);\r\n\r\n        return userIndex.length - 1;\r\n    }\r\n\r\n    function getUser(address _userAddress) view public unpausedSupplyChain returns (string _fullName, string _dateOfBirth, string _email, uint _role, string _brand, bool active){\r\n        require(isUser(_userAddress));\r\n        require(userStructs[_userAddress].active);\r\n        return (userStructs[_userAddress].fullName, userStructs[_userAddress].dateOfBirth, userStructs[_userAddress].email, userStructs[_userAddress].role, userStructs[_userAddress].brand, userStructs[_userAddress].active);\r\n    }\r\n\r\n    function updateUserFullName(string _fullName) public unpausedSupplyChain returns(bool success){\r\n        require(isUser(msg.sender));\r\n        require(userStructs[msg.sender].active);\r\n        userStructs[msg.sender].fullName = _fullName;\r\n        emit UpdateUser(userStructs[msg.sender].fullName, userStructs[msg.sender].dateOfBirth, userStructs[msg.sender].email, userStructs[msg.sender].role, userStructs[msg.sender].brand, userStructs[msg.sender].active);\r\n        return true;\r\n    }\r\n\r\n    function updateUserDateOfBirth(string _dateOfBirth) public unpausedSupplyChain returns(bool success){\r\n        require(isUser(msg.sender));\r\n        require(userStructs[msg.sender].active);\r\n        userStructs[msg.sender].dateOfBirth = _dateOfBirth;\r\n        emit UpdateUser(userStructs[msg.sender].fullName, userStructs[msg.sender].dateOfBirth, userStructs[msg.sender].email, userStructs[msg.sender].role, userStructs[msg.sender].brand, userStructs[msg.sender].active);\r\n        return true;\r\n    }\r\n\r\n    function updateUserEmail(string _email) public unpausedSupplyChain returns(bool success){\r\n        require(isUser(msg.sender));\r\n        require(userStructs[msg.sender].active);\r\n        userStructs[msg.sender].email = _email;\r\n        emit UpdateUser(userStructs[msg.sender].fullName, userStructs[msg.sender].dateOfBirth, userStructs[msg.sender].email, userStructs[msg.sender].role, userStructs[msg.sender].brand, userStructs[msg.sender].active);\r\n        return true;\r\n    }\r\n\r\n    function deactivateUser() public unpausedSupplyChain returns(bool success){\r\n        require(isUser(msg.sender));\r\n        require(userStructs[msg.sender].active);\r\n        userStructs[msg.sender].active = false;\r\n        emit UpdateUser(userStructs[msg.sender].fullName, userStructs[msg.sender].dateOfBirth, userStructs[msg.sender].email, userStructs[msg.sender].role, userStructs[msg.sender].brand, userStructs[msg.sender].active);\r\n        return true;\r\n    }\r\n\r\n    function activateUser(address _userAddress) public onlyOwner returns(bool success){\r\n        require(isUser(_userAddress));\r\n        require(!userStructs[_userAddress].active);\r\n        userStructs[_userAddress].active = true;\r\n        emit UpdateUser(userStructs[_userAddress].fullName, userStructs[_userAddress].dateOfBirth, userStructs[_userAddress].email, userStructs[_userAddress].role, userStructs[_userAddress].brand, userStructs[_userAddress].active);\r\n        return true;\r\n    }\r\n    \r\n    function ownerDeactivatesUser(address _address) public onlyOwner returns(bool success){\r\n        require(isUser(_address));\r\n        require(userStructs[_address].active);\r\n        userStructs[_address].active = false;\r\n        emit UpdateUser(userStructs[_address].fullName, userStructs[_address].dateOfBirth, userStructs[_address].email, userStructs[_address].role, userStructs[_address].brand, userStructs[_address].active);\r\n        return true;\r\n    }\r\n\r\n    function getUserCount() view public unpausedSupplyChain returns(uint count){\r\n        return userIndex.length;\r\n    }\r\n}",
  "sourcePath": "C:\\Users\\ab\\Desktop\\web apps\\projects\\origin\\contracts\\OriginUser.sol",
  "compiler": {
    "name": "solc",
    "version": "0.4.24+commit.e67f0147.Emscripten.clang"
  },
  "schemaVersion": "2.0.1",
  "updatedAt": "2018-08-18T14:40:26.612Z"
}