{
  "contractName": "OriginProduct",
  "abi": [
    {
      "constant": false,
      "inputs": [],
      "name": "pauseSupplyChain",
      "outputs": [],
      "payable": false,
      "stateMutability": "nonpayable",
      "type": "function"
    },
    {
      "constant": true,
      "inputs": [],
      "name": "numberActions",
      "outputs": [
        {
          "name": "",
          "type": "uint256"
        }
      ],
      "payable": false,
      "stateMutability": "view",
      "type": "function"
    },
    {
      "constant": false,
      "inputs": [
        {
          "name": "_email",
          "type": "string"
        }
      ],
      "name": "updateUserEmail",
      "outputs": [
        {
          "name": "success",
          "type": "bool"
        }
      ],
      "payable": false,
      "stateMutability": "nonpayable",
      "type": "function"
    },
    {
      "constant": false,
      "inputs": [],
      "name": "deactivateUser",
      "outputs": [
        {
          "name": "success",
          "type": "bool"
        }
      ],
      "payable": false,
      "stateMutability": "nonpayable",
      "type": "function"
    },
    {
      "constant": true,
      "inputs": [],
      "name": "paused",
      "outputs": [
        {
          "name": "",
          "type": "bool"
        }
      ],
      "payable": false,
      "stateMutability": "view",
      "type": "function"
    },
    {
      "constant": false,
      "inputs": [],
      "name": "unPauseSupplyChain",
      "outputs": [],
      "payable": false,
      "stateMutability": "nonpayable",
      "type": "function"
    },
    {
      "constant": true,
      "inputs": [
        {
          "name": "_userAddress",
          "type": "address"
        }
      ],
      "name": "getUser",
      "outputs": [
        {
          "name": "_fullName",
          "type": "string"
        },
        {
          "name": "_dateOfBirth",
          "type": "string"
        },
        {
          "name": "_email",
          "type": "string"
        },
        {
          "name": "_role",
          "type": "string"
        },
        {
          "name": "_brand",
          "type": "string"
        },
        {
          "name": "active",
          "type": "bool"
        }
      ],
      "payable": false,
      "stateMutability": "view",
      "type": "function"
    },
    {
      "constant": true,
      "inputs": [
        {
          "name": "",
          "type": "address"
        },
        {
          "name": "",
          "type": "uint256"
        }
      ],
      "name": "userToProducts",
      "outputs": [
        {
          "name": "",
          "type": "uint256"
        }
      ],
      "payable": false,
      "stateMutability": "view",
      "type": "function"
    },
    {
      "constant": false,
      "inputs": [
        {
          "name": "_address",
          "type": "address"
        }
      ],
      "name": "ownerDeactivatesUser",
      "outputs": [
        {
          "name": "success",
          "type": "bool"
        }
      ],
      "payable": false,
      "stateMutability": "nonpayable",
      "type": "function"
    },
    {
      "constant": true,
      "inputs": [
        {
          "name": "",
          "type": "uint256"
        }
      ],
      "name": "products",
      "outputs": [
        {
          "name": "name",
          "type": "string"
        },
        {
          "name": "description",
          "type": "string"
        },
        {
          "name": "productType",
          "type": "string"
        },
        {
          "name": "quantity",
          "type": "uint256"
        },
        {
          "name": "owner",
          "type": "address"
        },
        {
          "name": "consumed",
          "type": "bool"
        },
        {
          "name": "active",
          "type": "bool"
        }
      ],
      "payable": false,
      "stateMutability": "view",
      "type": "function"
    },
    {
      "constant": true,
      "inputs": [
        {
          "name": "",
          "type": "uint256"
        }
      ],
      "name": "actions",
      "outputs": [
        {
          "name": "actioner",
          "type": "address"
        },
        {
          "name": "comment",
          "type": "string"
        },
        {
          "name": "time",
          "type": "uint256"
        },
        {
          "name": "place",
          "type": "string"
        }
      ],
      "payable": false,
      "stateMutability": "view",
      "type": "function"
    },
    {
      "constant": false,
      "inputs": [
        {
          "name": "_fullName",
          "type": "string"
        },
        {
          "name": "_dateOfBirth",
          "type": "string"
        },
        {
          "name": "_email",
          "type": "string"
        },
        {
          "name": "_role",
          "type": "string"
        },
        {
          "name": "_brand",
          "type": "string"
        }
      ],
      "name": "insertUser",
      "outputs": [
        {
          "name": "index",
          "type": "uint256"
        }
      ],
      "payable": false,
      "stateMutability": "nonpayable",
      "type": "function"
    },
    {
      "constant": true,
      "inputs": [],
      "name": "owner",
      "outputs": [
        {
          "name": "",
          "type": "address"
        }
      ],
      "payable": false,
      "stateMutability": "view",
      "type": "function"
    },
    {
      "constant": false,
      "inputs": [
        {
          "name": "_newOwner",
          "type": "address"
        }
      ],
      "name": "changeOwner",
      "outputs": [],
      "payable": false,
      "stateMutability": "nonpayable",
      "type": "function"
    },
    {
      "constant": false,
      "inputs": [
        {
          "name": "_fullName",
          "type": "string"
        }
      ],
      "name": "updateUserFullName",
      "outputs": [
        {
          "name": "success",
          "type": "bool"
        }
      ],
      "payable": false,
      "stateMutability": "nonpayable",
      "type": "function"
    },
    {
      "constant": false,
      "inputs": [
        {
          "name": "_userAddress",
          "type": "address"
        }
      ],
      "name": "activateUser",
      "outputs": [
        {
          "name": "success",
          "type": "bool"
        }
      ],
      "payable": false,
      "stateMutability": "nonpayable",
      "type": "function"
    },
    {
      "constant": true,
      "inputs": [],
      "name": "getUserCount",
      "outputs": [
        {
          "name": "count",
          "type": "uint256"
        }
      ],
      "payable": false,
      "stateMutability": "view",
      "type": "function"
    },
    {
      "constant": false,
      "inputs": [
        {
          "name": "_dateOfBirth",
          "type": "string"
        }
      ],
      "name": "updateUserDateOfBirth",
      "outputs": [
        {
          "name": "success",
          "type": "bool"
        }
      ],
      "payable": false,
      "stateMutability": "nonpayable",
      "type": "function"
    },
    {
      "anonymous": false,
      "inputs": [
        {
          "indexed": false,
          "name": "owner",
          "type": "address"
        },
        {
          "indexed": false,
          "name": "_name",
          "type": "string"
        },
        {
          "indexed": false,
          "name": "_productType",
          "type": "string"
        },
        {
          "indexed": false,
          "name": "_description",
          "type": "string"
        },
        {
          "indexed": false,
          "name": "_quantity",
          "type": "uint256"
        },
        {
          "indexed": false,
          "name": "_place",
          "type": "string"
        }
      ],
      "name": "NewProduct",
      "type": "event"
    },
    {
      "anonymous": false,
      "inputs": [
        {
          "indexed": false,
          "name": "index",
          "type": "uint256"
        }
      ],
      "name": "ProductConsumed",
      "type": "event"
    },
    {
      "anonymous": false,
      "inputs": [
        {
          "indexed": false,
          "name": "_fullName",
          "type": "string"
        },
        {
          "indexed": false,
          "name": "_dateOfBirth",
          "type": "string"
        },
        {
          "indexed": false,
          "name": "_email",
          "type": "string"
        },
        {
          "indexed": false,
          "name": "_role",
          "type": "string"
        },
        {
          "indexed": false,
          "name": "_brand",
          "type": "string"
        }
      ],
      "name": "NewUser",
      "type": "event"
    },
    {
      "anonymous": false,
      "inputs": [
        {
          "indexed": false,
          "name": "_fullName",
          "type": "string"
        },
        {
          "indexed": false,
          "name": "_dateOfBirth",
          "type": "string"
        },
        {
          "indexed": false,
          "name": "_email",
          "type": "string"
        },
        {
          "indexed": false,
          "name": "_role",
          "type": "string"
        },
        {
          "indexed": false,
          "name": "_brand",
          "type": "string"
        },
        {
          "indexed": false,
          "name": "active",
          "type": "bool"
        }
      ],
      "name": "UpdateUser",
      "type": "event"
    },
    {
      "anonymous": false,
      "inputs": [],
      "name": "SupplyChainPaused",
      "type": "event"
    },
    {
      "anonymous": false,
      "inputs": [],
      "name": "SupplyChainUnPaused",
      "type": "event"
    },
    {
      "anonymous": false,
      "inputs": [],
      "name": "OwnerChanged",
      "type": "event"
    },
    {
      "constant": false,
      "inputs": [
        {
          "name": "_name",
          "type": "string"
        },
        {
          "name": "_productType",
          "type": "string"
        },
        {
          "name": "_description",
          "type": "string"
        },
        {
          "name": "_quantity",
          "type": "uint256"
        },
        {
          "name": "_place",
          "type": "string"
        }
      ],
      "name": "createProduct",
      "outputs": [
        {
          "name": "index",
          "type": "uint256"
        }
      ],
      "payable": false,
      "stateMutability": "nonpayable",
      "type": "function"
    },
    {
      "constant": true,
      "inputs": [
        {
          "name": "index",
          "type": "uint256"
        }
      ],
      "name": "getProductInfoAt",
      "outputs": [
        {
          "name": "owner",
          "type": "address"
        },
        {
          "name": "name",
          "type": "string"
        },
        {
          "name": "productType",
          "type": "string"
        },
        {
          "name": "quantity",
          "type": "uint256"
        },
        {
          "name": "description",
          "type": "string"
        },
        {
          "name": "consumed",
          "type": "bool"
        },
        {
          "name": "active",
          "type": "bool"
        }
      ],
      "payable": false,
      "stateMutability": "view",
      "type": "function"
    },
    {
      "constant": true,
      "inputs": [
        {
          "name": "productIndex",
          "type": "uint256"
        },
        {
          "name": "actionIndex",
          "type": "uint256"
        }
      ],
      "name": "getPathOfAt",
      "outputs": [
        {
          "name": "",
          "type": "address"
        },
        {
          "name": "",
          "type": "string"
        },
        {
          "name": "",
          "type": "string"
        },
        {
          "name": "",
          "type": "uint256"
        }
      ],
      "payable": false,
      "stateMutability": "view",
      "type": "function"
    },
    {
      "constant": false,
      "inputs": [
        {
          "name": "index",
          "type": "uint256"
        }
      ],
      "name": "consumeProduct",
      "outputs": [
        {
          "name": "succes",
          "type": "bool"
        }
      ],
      "payable": false,
      "stateMutability": "nonpayable",
      "type": "function"
    },
    {
      "constant": false,
      "inputs": [
        {
          "name": "index",
          "type": "uint256"
        }
      ],
      "name": "deactivateProduct",
      "outputs": [
        {
          "name": "success",
          "type": "bool"
        }
      ],
      "payable": false,
      "stateMutability": "nonpayable",
      "type": "function"
    },
    {
      "constant": false,
      "inputs": [
        {
          "name": "index",
          "type": "uint256"
        }
      ],
      "name": "activateProduct",
      "outputs": [
        {
          "name": "success",
          "type": "bool"
        }
      ],
      "payable": false,
      "stateMutability": "nonpayable",
      "type": "function"
    },
    {
      "constant": true,
      "inputs": [],
      "name": "getProductCount",
      "outputs": [
        {
          "name": "count",
          "type": "uint256"
        }
      ],
      "payable": false,
      "stateMutability": "view",
      "type": "function"
    }
  ],
  "bytecode": "0x6080604052336000806101000a81548173ffffffffffffffffffffffffffffffffffffffff021916908373ffffffffffffffffffffffffffffffffffffffff160217905550615771806100536000396000f300608060405260043610610149576000357c0100000000000000000000000000000000000000000000000000000000900463ffffffff168063070aff1c1461014e57806332e086a11461016557806332f662f6146102be5780634197009914610303578063470d3b4c1461032e5780634a348da9146103af57806355ea2000146103da5780635c975abb146104095780635f38a969146104385780636f77926b1461044f57806372832e75146106c6578063754cb3ba146107275780637acc0b2014610782578063800a263f1461095057806383240f8314610995578063842f650914610ae15780638a5964b414610c765780638da5cb5b14610e445780639a84b25414610e9b578063a6f9dae114610ff1578063a9d959e514611034578063b4acfe1c146110b5578063b5cb15f714611110578063e9f2bf8c1461113b578063fd77e5de146111bc575b600080fd5b34801561015a57600080fd5b50610163611201565b005b34801561017157600080fd5b506102a8600480360381019080803590602001908201803590602001908080601f0160208091040260200160405190810160405280939291908181526020018383808284378201915050505050509192919290803590602001908201803590602001908080601f0160208091040260200160405190810160405280939291908181526020018383808284378201915050505050509192919290803590602001908201803590602001908080601f016020809104026020016040519081016040528093929190818152602001838380828437820191505050505050919291929080359060200190929190803590602001908201803590602001908080601f01602080910402602001604051908101604052809392919081815260200183838082843782019150505050505091929192905050506112c7565b6040518082815260200191505060405180910390f35b3480156102ca57600080fd5b506102e9600480360381019080803590602001909291905050506118d8565b604051808215151515815260200191505060405180910390f35b34801561030f57600080fd5b506103186119e6565b6040518082815260200191505060405180910390f35b34801561033a57600080fd5b50610395600480360381019080803590602001908201803590602001908080601f01602080910402602001604051908101604052809392919081815260200183838082843782019150505050505091929192905050506119ec565b604051808215151515815260200191505060405180910390f35b3480156103bb57600080fd5b506103c4611f5f565b6040518082815260200191505060405180910390f35b3480156103e657600080fd5b506103ef611f8d565b604051808215151515815260200191505060405180910390f35b34801561041557600080fd5b5061041e612502565b604051808215151515815260200191505060405180910390f35b34801561044457600080fd5b5061044d612515565b005b34801561045b57600080fd5b50610490600480360381019080803573ffffffffffffffffffffffffffffffffffffffff1690602001909291905050506125da565b6040518080602001806020018060200180602001806020018715151515815260200186810386528c818151815260200191508051906020019080838360005b838110156104ea5780820151818401526020810190506104cf565b50505050905090810190601f1680156105175780820380516001836020036101000a031916815260200191505b5086810385528b818151815260200191508051906020019080838360005b83811015610550578082015181840152602081019050610535565b50505050905090810190601f16801561057d5780820380516001836020036101000a031916815260200191505b5086810384528a818151815260200191508051906020019080838360005b838110156105b657808201518184015260208101905061059b565b50505050905090810190601f1680156105e35780820380516001836020036101000a031916815260200191505b50868103835289818151815260200191508051906020019080838360005b8381101561061c578082015181840152602081019050610601565b50505050905090810190601f1680156106495780820380516001836020036101000a031916815260200191505b50868103825288818151815260200191508051906020019080838360005b83811015610682578082015181840152602081019050610667565b50505050905090810190601f1680156106af5780820380516001836020036101000a031916815260200191505b509b50505050505050505050505060405180910390f35b3480156106d257600080fd5b50610711600480360381019080803573ffffffffffffffffffffffffffffffffffffffff16906020019092919080359060200190929190505050612b2f565b6040518082815260200191505060405180910390f35b34801561073357600080fd5b50610768600480360381019080803573ffffffffffffffffffffffffffffffffffffffff169060200190929190505050612b5f565b604051808215151515815260200191505060405180910390f35b34801561078e57600080fd5b506107ad60048036038101908080359060200190929190505050613110565b604051808060200180602001806020018881526020018773ffffffffffffffffffffffffffffffffffffffff1673ffffffffffffffffffffffffffffffffffffffff168152602001861515151581526020018515151515815260200184810384528b818151815260200191508051906020019080838360005b83811015610841578082015181840152602081019050610826565b50505050905090810190601f16801561086e5780820380516001836020036101000a031916815260200191505b5084810383528a818151815260200191508051906020019080838360005b838110156108a757808201518184015260208101905061088c565b50505050905090810190601f1680156108d45780820380516001836020036101000a031916815260200191505b50848103825289818151815260200191508051906020019080838360005b8381101561090d5780820151818401526020810190506108f2565b50505050905090810190601f16801561093a5780820380516001836020036101000a031916815260200191505b509a505050505050505050505060405180910390f35b34801561095c57600080fd5b5061097b60048036038101908080359060200190929190505050613363565b604051808215151515815260200191505060405180910390f35b3480156109a157600080fd5b506109c06004803603810190808035906020019092919050505061344b565b604051808573ffffffffffffffffffffffffffffffffffffffff1673ffffffffffffffffffffffffffffffffffffffff1681526020018060200184815260200180602001838103835286818151815260200191508051906020019080838360005b83811015610a3c578082015181840152602081019050610a21565b50505050905090810190601f168015610a695780820380516001836020036101000a031916815260200191505b50838103825284818151815260200191508051906020019080838360005b83811015610aa2578082015181840152602081019050610a87565b50505050905090810190601f168015610acf5780820380516001836020036101000a031916815260200191505b50965050505050505060405180910390f35b348015610aed57600080fd5b50610c60600480360381019080803590602001908201803590602001908080601f0160208091040260200160405190810160405280939291908181526020018383808284378201915050505050509192919290803590602001908201803590602001908080601f0160208091040260200160405190810160405280939291908181526020018383808284378201915050505050509192919290803590602001908201803590602001908080601f0160208091040260200160405190810160405280939291908181526020018383808284378201915050505050509192919290803590602001908201803590602001908080601f0160208091040260200160405190810160405280939291908181526020018383808284378201915050505050509192919290803590602001908201803590602001908080601f01602080910402602001604051908101604052809392919081815260200183838082843782019150505050505091929192905050506135cb565b6040518082815260200191505060405180910390f35b348015610c8257600080fd5b50610ca160048036038101908080359060200190929190505050613b22565b604051808873ffffffffffffffffffffffffffffffffffffffff1673ffffffffffffffffffffffffffffffffffffffff168152602001806020018060200187815260200180602001861515151581526020018515151515815260200184810384528a818151815260200191508051906020019080838360005b83811015610d35578082015181840152602081019050610d1a565b50505050905090810190601f168015610d625780820380516001836020036101000a031916815260200191505b50848103835289818151815260200191508051906020019080838360005b83811015610d9b578082015181840152602081019050610d80565b50505050905090810190601f168015610dc85780820380516001836020036101000a031916815260200191505b50848103825287818151815260200191508051906020019080838360005b83811015610e01578082015181840152602081019050610de6565b50505050905090810190601f168015610e2e5780820380516001836020036101000a031916815260200191505b509a505050505050505050505060405180910390f35b348015610e5057600080fd5b50610e59613eea565b604051808273ffffffffffffffffffffffffffffffffffffffff1673ffffffffffffffffffffffffffffffffffffffff16815260200191505060405180910390f35b348015610ea757600080fd5b50610ed06004803603810190808035906020019092919080359060200190929190505050613f0f565b604051808573ffffffffffffffffffffffffffffffffffffffff1673ffffffffffffffffffffffffffffffffffffffff1681526020018060200180602001848152602001838103835286818151815260200191508051906020019080838360005b83811015610f4c578082015181840152602081019050610f31565b50505050905090810190601f168015610f795780820380516001836020036101000a031916815260200191505b50838103825285818151815260200191508051906020019080838360005b83811015610fb2578082015181840152602081019050610f97565b50505050905090810190601f168015610fdf5780820380516001836020036101000a031916815260200191505b50965050505050505060405180910390f35b348015610ffd57600080fd5b50611032600480360381019080803573ffffffffffffffffffffffffffffffffffffffff1690602001909291905050506141b4565b005b34801561104057600080fd5b5061109b600480360381019080803590602001908201803590602001908080601f01602080910402602001604051908101604052809392919081815260200183838082843782019150505050505091929192905050506142d7565b604051808215151515815260200191505060405180910390f35b3480156110c157600080fd5b506110f6600480360381019080803573ffffffffffffffffffffffffffffffffffffffff16906020019092919050505061484a565b604051808215151515815260200191505060405180910390f35b34801561111c57600080fd5b50611125614dfb565b6040518082815260200191505060405180910390f35b34801561114757600080fd5b506111a2600480360381019080803590602001908201803590602001908080601f0160208091040260200160405190810160405280939291908181526020018383808284378201915050505050509192919290505050614e29565b604051808215151515815260200191505060405180910390f35b3480156111c857600080fd5b506111e76004803603810190808035906020019092919050505061539c565b604051808215151515815260200191505060405180910390f35b6000809054906101000a900473ffffffffffffffffffffffffffffffffffffffff1673ffffffffffffffffffffffffffffffffffffffff163373ffffffffffffffffffffffffffffffffffffffff1614151561125c57600080fd5b60001515600060149054906101000a900460ff16151514151561127e57600080fd5b6001600060146101000a81548160ff0219169083151502179055507f9f169b4d6224654508c3ec6cf2a95651d3f144d8b96ab8742b58ac24816502b760405160405180910390a1565b60006112d1615573565b60001515600060149054906101000a900460ff1615151415156112f357600080fd5b600073ffffffffffffffffffffffffffffffffffffffff163373ffffffffffffffffffffffffffffffffffffffff161415151561132f57600080fd5b3360046000600554815260200190815260200160002060000160006101000a81548173ffffffffffffffffffffffffffffffffffffffff021916908373ffffffffffffffffffffffffffffffffffffffff1602179055506040805190810160405280601381526020017f4372656174696f6e206f662050726f647563740000000000000000000000000081525060046000600554815260200190815260200160002060010190805190602001906113e79291906155d3565b508260046000600554815260200190815260200160002060030190805190602001906114149291906155d3565b5042600460006005548152602001908152602001600020600201819055508681600001819052508581604001819052508481602001819052508381606001818152505033816080019073ffffffffffffffffffffffffffffffffffffffff16908173ffffffffffffffffffffffffffffffffffffffff168152505060008160c001901515908115158152505060018160e001901515908115158152505060016003829080600181540180825580915050906001820390600052602060002090600702016000909192909190915060008201518160000190805190602001906114fd929190615653565b50602082015181600101908051906020019061151a929190615653565b506040820151816002019080519060200190611537929190615653565b506060820151816003015560808201518160040160006101000a81548173ffffffffffffffffffffffffffffffffffffffff021916908373ffffffffffffffffffffffffffffffffffffffff16021790555060a08201518160050190805190602001906115a59291906156d3565b5060c08201518160060160006101000a81548160ff02191690831515021790555060e08201518160060160016101000a81548160ff02191690831515021790555050500391506003828154811015156115fa57fe5b90600052602060002090600702016005016005549080600181540180825580915050906001820390600052602060002001600090919290919091505550600660003373ffffffffffffffffffffffffffffffffffffffff1673ffffffffffffffffffffffffffffffffffffffff1681526020019081526020016000208290806001815401808255809150509060018203906000526020600020016000909192909190915055506001600554016005819055507f586a052f5133d7a9d945eae49c0b7b85af1e4fd1ffe1518a7589dd0f8356b45c338888888888604051808773ffffffffffffffffffffffffffffffffffffffff1673ffffffffffffffffffffffffffffffffffffffff1681526020018060200180602001806020018681526020018060200185810385528a818151815260200191508051906020019080838360005b8381101561175757808201518184015260208101905061173c565b50505050905090810190601f1680156117845780820380516001836020036101000a031916815260200191505b50858103845289818151815260200191508051906020019080838360005b838110156117bd5780820151818401526020810190506117a2565b50505050905090810190601f1680156117ea5780820380516001836020036101000a031916815260200191505b50858103835288818151815260200191508051906020019080838360005b83811015611823578082015181840152602081019050611808565b50505050905090810190601f1680156118505780820380516001836020036101000a031916815260200191505b50858103825286818151815260200191508051906020019080838360005b8381101561188957808201518184015260208101905061186e565b50505050905090810190601f1680156118b65780820380516001836020036101000a031916815260200191505b509a505050505050505050505060405180910390a18191505095945050505050565b60008060009054906101000a900473ffffffffffffffffffffffffffffffffffffffff1673ffffffffffffffffffffffffffffffffffffffff163373ffffffffffffffffffffffffffffffffffffffff1614151561193557600080fd5b60001515600060149054906101000a900460ff16151514151561195757600080fd5b6003805490508210151561196a57600080fd5b60038281548110151561197957fe5b906000526020600020906007020160060160019054906101000a900460ff161515156119a457600080fd5b60016003838154811015156119b557fe5b906000526020600020906007020160060160016101000a81548160ff02191690831515021790555060019050919050565b60055481565b6000801515600060149054906101000a900460ff161515141515611a0f57600080fd5b611a18336154a9565b1515611a2357600080fd5b600160003373ffffffffffffffffffffffffffffffffffffffff1673ffffffffffffffffffffffffffffffffffffffff16815260200190815260200160002060050160009054906101000a900460ff161515611a7e57600080fd5b81600160003373ffffffffffffffffffffffffffffffffffffffff1673ffffffffffffffffffffffffffffffffffffffff1681526020019081526020016000206002019080519060200190611ad49291906155d3565b507f5f6835ea2a1961fdb2e3aec43d753d660ddf38041baaa485978e597d8236d03a600160003373ffffffffffffffffffffffffffffffffffffffff1673ffffffffffffffffffffffffffffffffffffffff168152602001908152602001600020600001600160003373ffffffffffffffffffffffffffffffffffffffff1673ffffffffffffffffffffffffffffffffffffffff168152602001908152602001600020600101600160003373ffffffffffffffffffffffffffffffffffffffff1673ffffffffffffffffffffffffffffffffffffffff168152602001908152602001600020600201600160003373ffffffffffffffffffffffffffffffffffffffff1673ffffffffffffffffffffffffffffffffffffffff168152602001908152602001600020600301600160003373ffffffffffffffffffffffffffffffffffffffff1673ffffffffffffffffffffffffffffffffffffffff168152602001908152602001600020600401600160003373ffffffffffffffffffffffffffffffffffffffff1673ffffffffffffffffffffffffffffffffffffffff16815260200190815260200160002060050160009054906101000a900460ff166040518080602001806020018060200180602001806020018715151515815260200186810386528c818154600181600116156101000203166002900481526020019150805460018160011615610100020316600290048015611d335780601f10611d0857610100808354040283529160200191611d33565b820191906000526020600020905b815481529060010190602001808311611d1657829003601f168201915b505086810385528b818154600181600116156101000203166002900481526020019150805460018160011615610100020316600290048015611db65780601f10611d8b57610100808354040283529160200191611db6565b820191906000526020600020905b815481529060010190602001808311611d9957829003601f168201915b505086810384528a818154600181600116156101000203166002900481526020019150805460018160011615610100020316600290048015611e395780601f10611e0e57610100808354040283529160200191611e39565b820191906000526020600020905b815481529060010190602001808311611e1c57829003601f168201915b5050868103835289818154600181600116156101000203166002900481526020019150805460018160011615610100020316600290048015611ebc5780601f10611e9157610100808354040283529160200191611ebc565b820191906000526020600020905b815481529060010190602001808311611e9f57829003601f168201915b5050868103825288818154600181600116156101000203166002900481526020019150805460018160011615610100020316600290048015611f3f5780601f10611f1457610100808354040283529160200191611f3f565b820191906000526020600020905b815481529060010190602001808311611f2257829003601f168201915b50509b50505050505050505050505060405180910390a160019050919050565b6000801515600060149054906101000a900460ff161515141515611f8257600080fd5b600380549050905090565b6000801515600060149054906101000a900460ff161515141515611fb057600080fd5b611fb9336154a9565b1515611fc457600080fd5b600160003373ffffffffffffffffffffffffffffffffffffffff1673ffffffffffffffffffffffffffffffffffffffff16815260200190815260200160002060050160009054906101000a900460ff16151561201f57600080fd5b6000600160003373ffffffffffffffffffffffffffffffffffffffff1673ffffffffffffffffffffffffffffffffffffffff16815260200190815260200160002060050160006101000a81548160ff0219169083151502179055507f5f6835ea2a1961fdb2e3aec43d753d660ddf38041baaa485978e597d8236d03a600160003373ffffffffffffffffffffffffffffffffffffffff1673ffffffffffffffffffffffffffffffffffffffff168152602001908152602001600020600001600160003373ffffffffffffffffffffffffffffffffffffffff1673ffffffffffffffffffffffffffffffffffffffff168152602001908152602001600020600101600160003373ffffffffffffffffffffffffffffffffffffffff1673ffffffffffffffffffffffffffffffffffffffff168152602001908152602001600020600201600160003373ffffffffffffffffffffffffffffffffffffffff1673ffffffffffffffffffffffffffffffffffffffff168152602001908152602001600020600301600160003373ffffffffffffffffffffffffffffffffffffffff1673ffffffffffffffffffffffffffffffffffffffff168152602001908152602001600020600401600160003373ffffffffffffffffffffffffffffffffffffffff1673ffffffffffffffffffffffffffffffffffffffff16815260200190815260200160002060050160009054906101000a900460ff166040518080602001806020018060200180602001806020018715151515815260200186810386528c8181546001816001161561010002031660029004815260200191508054600181600116156101000203166002900480156122d85780601f106122ad576101008083540402835291602001916122d8565b820191906000526020600020905b8154815290600101906020018083116122bb57829003601f168201915b505086810385528b81815460018160011615610100020316600290048152602001915080546001816001161561010002031660029004801561235b5780601f106123305761010080835404028352916020019161235b565b820191906000526020600020905b81548152906001019060200180831161233e57829003601f168201915b505086810384528a8181546001816001161561010002031660029004815260200191508054600181600116156101000203166002900480156123de5780601f106123b3576101008083540402835291602001916123de565b820191906000526020600020905b8154815290600101906020018083116123c157829003601f168201915b50508681038352898181546001816001161561010002031660029004815260200191508054600181600116156101000203166002900480156124615780601f1061243657610100808354040283529160200191612461565b820191906000526020600020905b81548152906001019060200180831161244457829003601f168201915b50508681038252888181546001816001161561010002031660029004815260200191508054600181600116156101000203166002900480156124e45780601f106124b9576101008083540402835291602001916124e4565b820191906000526020600020905b8154815290600101906020018083116124c757829003601f168201915b50509b50505050505050505050505060405180910390a16001905090565b600060149054906101000a900460ff1681565b6000809054906101000a900473ffffffffffffffffffffffffffffffffffffffff1673ffffffffffffffffffffffffffffffffffffffff163373ffffffffffffffffffffffffffffffffffffffff1614151561257057600080fd5b60011515600060149054906101000a900460ff16151514151561259257600080fd5b60008060146101000a81548160ff0219169083151502179055507f1f9a5f2ae53bba1390ac0766ace24e59e82481665cf401fa45dcfd1dcce14fb360405160405180910390a1565b60608060608060606000801515600060149054906101000a900460ff16151514151561260557600080fd5b61260e876154a9565b151561261957600080fd5b600160008873ffffffffffffffffffffffffffffffffffffffff1673ffffffffffffffffffffffffffffffffffffffff16815260200190815260200160002060050160009054906101000a900460ff16151561267457600080fd5b600160008873ffffffffffffffffffffffffffffffffffffffff1673ffffffffffffffffffffffffffffffffffffffff168152602001908152602001600020600001600160008973ffffffffffffffffffffffffffffffffffffffff1673ffffffffffffffffffffffffffffffffffffffff168152602001908152602001600020600101600160008a73ffffffffffffffffffffffffffffffffffffffff1673ffffffffffffffffffffffffffffffffffffffff168152602001908152602001600020600201600160008b73ffffffffffffffffffffffffffffffffffffffff1673ffffffffffffffffffffffffffffffffffffffff168152602001908152602001600020600301600160008c73ffffffffffffffffffffffffffffffffffffffff1673ffffffffffffffffffffffffffffffffffffffff168152602001908152602001600020600401600160008d73ffffffffffffffffffffffffffffffffffffffff1673ffffffffffffffffffffffffffffffffffffffff16815260200190815260200160002060050160009054906101000a900460ff16858054600181600116156101000203166002900480601f0160208091040260200160405190810160405280929190818152602001828054600181600116156101000203166002900480156128a35780601f10612878576101008083540402835291602001916128a3565b820191906000526020600020905b81548152906001019060200180831161288657829003601f168201915b50505050509550848054600181600116156101000203166002900480601f01602080910402602001604051908101604052809291908181526020018280546001816001161561010002031660029004801561293f5780601f106129145761010080835404028352916020019161293f565b820191906000526020600020905b81548152906001019060200180831161292257829003601f168201915b50505050509450838054600181600116156101000203166002900480601f0160208091040260200160405190810160405280929190818152602001828054600181600116156101000203166002900480156129db5780601f106129b0576101008083540402835291602001916129db565b820191906000526020600020905b8154815290600101906020018083116129be57829003601f168201915b50505050509350828054600181600116156101000203166002900480601f016020809104026020016040519081016040528092919081815260200182805460018160011615610100020316600290048015612a775780601f10612a4c57610100808354040283529160200191612a77565b820191906000526020600020905b815481529060010190602001808311612a5a57829003601f168201915b50505050509250818054600181600116156101000203166002900480601f016020809104026020016040519081016040528092919081815260200182805460018160011615610100020316600290048015612b135780601f10612ae857610100808354040283529160200191612b13565b820191906000526020600020905b815481529060010190602001808311612af657829003601f168201915b5050505050915095509550955095509550955091939550919395565b600660205281600052604060002081815481101515612b4a57fe5b90600052602060002001600091509150505481565b60008060009054906101000a900473ffffffffffffffffffffffffffffffffffffffff1673ffffffffffffffffffffffffffffffffffffffff163373ffffffffffffffffffffffffffffffffffffffff16141515612bbc57600080fd5b612bc5826154a9565b1515612bd057600080fd5b600160008373ffffffffffffffffffffffffffffffffffffffff1673ffffffffffffffffffffffffffffffffffffffff16815260200190815260200160002060050160009054906101000a900460ff161515612c2b57600080fd5b6000600160008473ffffffffffffffffffffffffffffffffffffffff1673ffffffffffffffffffffffffffffffffffffffff16815260200190815260200160002060050160006101000a81548160ff0219169083151502179055507f5f6835ea2a1961fdb2e3aec43d753d660ddf38041baaa485978e597d8236d03a600160008473ffffffffffffffffffffffffffffffffffffffff1673ffffffffffffffffffffffffffffffffffffffff168152602001908152602001600020600001600160008573ffffffffffffffffffffffffffffffffffffffff1673ffffffffffffffffffffffffffffffffffffffff168152602001908152602001600020600101600160008673ffffffffffffffffffffffffffffffffffffffff1673ffffffffffffffffffffffffffffffffffffffff168152602001908152602001600020600201600160008773ffffffffffffffffffffffffffffffffffffffff1673ffffffffffffffffffffffffffffffffffffffff168152602001908152602001600020600301600160008873ffffffffffffffffffffffffffffffffffffffff1673ffffffffffffffffffffffffffffffffffffffff168152602001908152602001600020600401600160008973ffffffffffffffffffffffffffffffffffffffff1673ffffffffffffffffffffffffffffffffffffffff16815260200190815260200160002060050160009054906101000a900460ff166040518080602001806020018060200180602001806020018715151515815260200186810386528c818154600181600116156101000203166002900481526020019150805460018160011615610100020316600290048015612ee45780601f10612eb957610100808354040283529160200191612ee4565b820191906000526020600020905b815481529060010190602001808311612ec757829003601f168201915b505086810385528b818154600181600116156101000203166002900481526020019150805460018160011615610100020316600290048015612f675780601f10612f3c57610100808354040283529160200191612f67565b820191906000526020600020905b815481529060010190602001808311612f4a57829003601f168201915b505086810384528a818154600181600116156101000203166002900481526020019150805460018160011615610100020316600290048015612fea5780601f10612fbf57610100808354040283529160200191612fea565b820191906000526020600020905b815481529060010190602001808311612fcd57829003601f168201915b505086810383528981815460018160011615610100020316600290048152602001915080546001816001161561010002031660029004801561306d5780601f106130425761010080835404028352916020019161306d565b820191906000526020600020905b81548152906001019060200180831161305057829003601f168201915b50508681038252888181546001816001161561010002031660029004815260200191508054600181600116156101000203166002900480156130f05780601f106130c5576101008083540402835291602001916130f0565b820191906000526020600020905b8154815290600101906020018083116130d357829003601f168201915b50509b50505050505050505050505060405180910390a160019050919050565b60038181548110151561311f57fe5b9060005260206000209060070201600091509050806000018054600181600116156101000203166002900480601f0160208091040260200160405190810160405280929190818152602001828054600181600116156101000203166002900480156131cb5780601f106131a0576101008083540402835291602001916131cb565b820191906000526020600020905b8154815290600101906020018083116131ae57829003601f168201915b505050505090806001018054600181600116156101000203166002900480601f0160208091040260200160405190810160405280929190818152602001828054600181600116156101000203166002900480156132695780601f1061323e57610100808354040283529160200191613269565b820191906000526020600020905b81548152906001019060200180831161324c57829003601f168201915b505050505090806002018054600181600116156101000203166002900480601f0160208091040260200160405190810160405280929190818152602001828054600181600116156101000203166002900480156133075780601f106132dc57610100808354040283529160200191613307565b820191906000526020600020905b8154815290600101906020018083116132ea57829003601f168201915b5050505050908060030154908060040160009054906101000a900473ffffffffffffffffffffffffffffffffffffffff16908060060160009054906101000a900460ff16908060060160019054906101000a900460ff16905087565b6000801515600060149054906101000a900460ff16151514151561338657600080fd5b6003805490508210151561339957600080fd5b6003828154811015156133a857fe5b906000526020600020906007020160060160019054906101000a900460ff1615156133d257600080fd5b60016003838154811015156133e357fe5b906000526020600020906007020160060160006101000a81548160ff0219169083151502179055507f89c80667ed928fc2bc613d87ce660bff4977c391f25f898a16f9c0a48aa41e09826040518082815260200191505060405180910390a160019050919050565b60046020528060005260406000206000915090508060000160009054906101000a900473ffffffffffffffffffffffffffffffffffffffff1690806001018054600181600116156101000203166002900480601f01602080910402602001604051908101604052809291908181526020018280546001816001161561010002031660029004801561351d5780601f106134f25761010080835404028352916020019161351d565b820191906000526020600020905b81548152906001019060200180831161350057829003601f168201915b505050505090806002015490806003018054600181600116156101000203166002900480601f0160208091040260200160405190810160405280929190818152602001828054600181600116156101000203166002900480156135c15780601f10613596576101008083540402835291602001916135c1565b820191906000526020600020905b8154815290600101906020018083116135a457829003601f168201915b5050505050905084565b6000801515600060149054906101000a900460ff1615151415156135ee57600080fd5b6135f7336154a9565b15151561360357600080fd5b85600160003373ffffffffffffffffffffffffffffffffffffffff1673ffffffffffffffffffffffffffffffffffffffff16815260200190815260200160002060000190805190602001906136599291906155d3565b5084600160003373ffffffffffffffffffffffffffffffffffffffff1673ffffffffffffffffffffffffffffffffffffffff16815260200190815260200160002060010190805190602001906136b09291906155d3565b5083600160003373ffffffffffffffffffffffffffffffffffffffff1673ffffffffffffffffffffffffffffffffffffffff16815260200190815260200160002060020190805190602001906137079291906155d3565b5082600160003373ffffffffffffffffffffffffffffffffffffffff1673ffffffffffffffffffffffffffffffffffffffff168152602001908152602001600020600301908051906020019061375e9291906155d3565b5081600160003373ffffffffffffffffffffffffffffffffffffffff1673ffffffffffffffffffffffffffffffffffffffff16815260200190815260200160002060040190805190602001906137b59291906155d3565b5060018060003373ffffffffffffffffffffffffffffffffffffffff1673ffffffffffffffffffffffffffffffffffffffff16815260200190815260200160002060050160006101000a81548160ff021916908315150217905550600160023390806001815401808255809150509060018203906000526020600020016000909192909190916101000a81548173ffffffffffffffffffffffffffffffffffffffff021916908373ffffffffffffffffffffffffffffffffffffffff16021790555003600160003373ffffffffffffffffffffffffffffffffffffffff1673ffffffffffffffffffffffffffffffffffffffff168152602001908152602001600020600601819055507f0d613bda983df078df8d9a5fab74a4bd90ba5695aeb1decafcd21eccfaaea0a3868686868660405180806020018060200180602001806020018060200186810386528b818151815260200191508051906020019080838360005b83811015613934578082015181840152602081019050613919565b50505050905090810190601f1680156139615780820380516001836020036101000a031916815260200191505b5086810385528a818151815260200191508051906020019080838360005b8381101561399a57808201518184015260208101905061397f565b50505050905090810190601f1680156139c75780820380516001836020036101000a031916815260200191505b50868103845289818151815260200191508051906020019080838360005b83811015613a005780820151818401526020810190506139e5565b50505050905090810190601f168015613a2d5780820380516001836020036101000a031916815260200191505b50868103835288818151815260200191508051906020019080838360005b83811015613a66578082015181840152602081019050613a4b565b50505050905090810190601f168015613a935780820380516001836020036101000a031916815260200191505b50868103825287818151815260200191508051906020019080838360005b83811015613acc578082015181840152602081019050613ab1565b50505050905090810190601f168015613af95780820380516001836020036101000a031916815260200191505b509a505050505050505050505060405180910390a1600160028054905003905095945050505050565b600060608060006060600080613b36615573565b60001515600060149054906101000a900460ff161515141515613b5857600080fd5b60038054905089101515613b6b57600080fd5b600389815481101515613b7a57fe5b906000526020600020906007020160060160019054906101000a900460ff161515613ba457600080fd5b600389815481101515613bb357fe5b90600052602060002090600702016101006040519081016040529081600082018054600181600116156101000203166002900480601f016020809104026020016040519081016040528092919081815260200182805460018160011615610100020316600290048015613c675780601f10613c3c57610100808354040283529160200191613c67565b820191906000526020600020905b815481529060010190602001808311613c4a57829003601f168201915b50505050508152602001600182018054600181600116156101000203166002900480601f016020809104026020016040519081016040528092919081815260200182805460018160011615610100020316600290048015613d095780601f10613cde57610100808354040283529160200191613d09565b820191906000526020600020905b815481529060010190602001808311613cec57829003601f168201915b50505050508152602001600282018054600181600116156101000203166002900480601f016020809104026020016040519081016040528092919081815260200182805460018160011615610100020316600290048015613dab5780601f10613d8057610100808354040283529160200191613dab565b820191906000526020600020905b815481529060010190602001808311613d8e57829003601f168201915b50505050508152602001600382015481526020016004820160009054906101000a900473ffffffffffffffffffffffffffffffffffffffff1673ffffffffffffffffffffffffffffffffffffffff1673ffffffffffffffffffffffffffffffffffffffff16815260200160058201805480602002602001604051908101604052809291908181526020018280548015613e6357602002820191906000526020600020905b815481526020019060010190808311613e4f575b505050505081526020016006820160009054906101000a900460ff161515151581526020016006820160019054906101000a900460ff1615151515815250509050806080015181600001518260400151836060015184602001518560c001518660e00151859550849450829250975097509750975097509750975050919395979092949650565b6000809054906101000a900473ffffffffffffffffffffffffffffffffffffffff1681565b600060608060008060001515600060149054906101000a900460ff161515141515613f3957600080fd5b60038054905087101515613f4c57600080fd5b600387815481101515613f5b57fe5b90600052602060002090600702016005018054905086101515613f7d57600080fd5b600387815481101515613f8c57fe5b906000526020600020906007020160060160019054906101000a900460ff161515613fb657600080fd5b600387815481101515613fc557fe5b906000526020600020906007020160050186815481101515613fe357fe5b906000526020600020015490506004600082815260200190815260200160002060000160009054906101000a900473ffffffffffffffffffffffffffffffffffffffff1660046000838152602001908152602001600020600101600460008481526020019081526020016000206003016004600085815260200190815260200160002060020154828054600181600116156101000203166002900480601f0160208091040260200160405190810160405280929190818152602001828054600181600116156101000203166002900480156140ff5780601f106140d4576101008083540402835291602001916140ff565b820191906000526020600020905b8154815290600101906020018083116140e257829003601f168201915b50505050509250818054600181600116156101000203166002900480601f01602080910402602001604051908101604052809291908181526020018280546001816001161561010002031660029004801561419b5780601f106141705761010080835404028352916020019161419b565b820191906000526020600020905b81548152906001019060200180831161417e57829003601f168201915b5050505050915094509450945094505092959194509250565b6000809054906101000a900473ffffffffffffffffffffffffffffffffffffffff1673ffffffffffffffffffffffffffffffffffffffff163373ffffffffffffffffffffffffffffffffffffffff1614151561420f57600080fd5b60001515600060149054906101000a900460ff16151514151561423157600080fd5b600073ffffffffffffffffffffffffffffffffffffffff168173ffffffffffffffffffffffffffffffffffffffff161415156142a857806000806101000a81548173ffffffffffffffffffffffffffffffffffffffff021916908373ffffffffffffffffffffffffffffffffffffffff1602179055505b7fa210d63b5a22487066397c631c738bc560e60390098601461599961c472139f060405160405180910390a150565b6000801515600060149054906101000a900460ff1615151415156142fa57600080fd5b614303336154a9565b151561430e57600080fd5b600160003373ffffffffffffffffffffffffffffffffffffffff1673ffffffffffffffffffffffffffffffffffffffff16815260200190815260200160002060050160009054906101000a900460ff16151561436957600080fd5b81600160003373ffffffffffffffffffffffffffffffffffffffff1673ffffffffffffffffffffffffffffffffffffffff16815260200190815260200160002060000190805190602001906143bf9291906155d3565b507f5f6835ea2a1961fdb2e3aec43d753d660ddf38041baaa485978e597d8236d03a600160003373ffffffffffffffffffffffffffffffffffffffff1673ffffffffffffffffffffffffffffffffffffffff168152602001908152602001600020600001600160003373ffffffffffffffffffffffffffffffffffffffff1673ffffffffffffffffffffffffffffffffffffffff168152602001908152602001600020600101600160003373ffffffffffffffffffffffffffffffffffffffff1673ffffffffffffffffffffffffffffffffffffffff168152602001908152602001600020600201600160003373ffffffffffffffffffffffffffffffffffffffff1673ffffffffffffffffffffffffffffffffffffffff168152602001908152602001600020600301600160003373ffffffffffffffffffffffffffffffffffffffff1673ffffffffffffffffffffffffffffffffffffffff168152602001908152602001600020600401600160003373ffffffffffffffffffffffffffffffffffffffff1673ffffffffffffffffffffffffffffffffffffffff16815260200190815260200160002060050160009054906101000a900460ff166040518080602001806020018060200180602001806020018715151515815260200186810386528c81815460018160011615610100020316600290048152602001915080546001816001161561010002031660029004801561461e5780601f106145f35761010080835404028352916020019161461e565b820191906000526020600020905b81548152906001019060200180831161460157829003601f168201915b505086810385528b8181546001816001161561010002031660029004815260200191508054600181600116156101000203166002900480156146a15780601f10614676576101008083540402835291602001916146a1565b820191906000526020600020905b81548152906001019060200180831161468457829003601f168201915b505086810384528a8181546001816001161561010002031660029004815260200191508054600181600116156101000203166002900480156147245780601f106146f957610100808354040283529160200191614724565b820191906000526020600020905b81548152906001019060200180831161470757829003601f168201915b50508681038352898181546001816001161561010002031660029004815260200191508054600181600116156101000203166002900480156147a75780601f1061477c576101008083540402835291602001916147a7565b820191906000526020600020905b81548152906001019060200180831161478a57829003601f168201915b505086810382528881815460018160011615610100020316600290048152602001915080546001816001161561010002031660029004801561482a5780601f106147ff5761010080835404028352916020019161482a565b820191906000526020600020905b81548152906001019060200180831161480d57829003601f168201915b50509b50505050505050505050505060405180910390a160019050919050565b60008060009054906101000a900473ffffffffffffffffffffffffffffffffffffffff1673ffffffffffffffffffffffffffffffffffffffff163373ffffffffffffffffffffffffffffffffffffffff161415156148a757600080fd5b6148b0826154a9565b15156148bb57600080fd5b600160008373ffffffffffffffffffffffffffffffffffffffff1673ffffffffffffffffffffffffffffffffffffffff16815260200190815260200160002060050160009054906101000a900460ff1615151561491757600080fd5b60018060008473ffffffffffffffffffffffffffffffffffffffff1673ffffffffffffffffffffffffffffffffffffffff16815260200190815260200160002060050160006101000a81548160ff0219169083151502179055507f5f6835ea2a1961fdb2e3aec43d753d660ddf38041baaa485978e597d8236d03a600160008473ffffffffffffffffffffffffffffffffffffffff1673ffffffffffffffffffffffffffffffffffffffff168152602001908152602001600020600001600160008573ffffffffffffffffffffffffffffffffffffffff1673ffffffffffffffffffffffffffffffffffffffff168152602001908152602001600020600101600160008673ffffffffffffffffffffffffffffffffffffffff1673ffffffffffffffffffffffffffffffffffffffff168152602001908152602001600020600201600160008773ffffffffffffffffffffffffffffffffffffffff1673ffffffffffffffffffffffffffffffffffffffff168152602001908152602001600020600301600160008873ffffffffffffffffffffffffffffffffffffffff1673ffffffffffffffffffffffffffffffffffffffff168152602001908152602001600020600401600160008973ffffffffffffffffffffffffffffffffffffffff1673ffffffffffffffffffffffffffffffffffffffff16815260200190815260200160002060050160009054906101000a900460ff166040518080602001806020018060200180602001806020018715151515815260200186810386528c818154600181600116156101000203166002900481526020019150805460018160011615610100020316600290048015614bcf5780601f10614ba457610100808354040283529160200191614bcf565b820191906000526020600020905b815481529060010190602001808311614bb257829003601f168201915b505086810385528b818154600181600116156101000203166002900481526020019150805460018160011615610100020316600290048015614c525780601f10614c2757610100808354040283529160200191614c52565b820191906000526020600020905b815481529060010190602001808311614c3557829003601f168201915b505086810384528a818154600181600116156101000203166002900481526020019150805460018160011615610100020316600290048015614cd55780601f10614caa57610100808354040283529160200191614cd5565b820191906000526020600020905b815481529060010190602001808311614cb857829003601f168201915b5050868103835289818154600181600116156101000203166002900481526020019150805460018160011615610100020316600290048015614d585780601f10614d2d57610100808354040283529160200191614d58565b820191906000526020600020905b815481529060010190602001808311614d3b57829003601f168201915b5050868103825288818154600181600116156101000203166002900481526020019150805460018160011615610100020316600290048015614ddb5780601f10614db057610100808354040283529160200191614ddb565b820191906000526020600020905b815481529060010190602001808311614dbe57829003601f168201915b50509b50505050505050505050505060405180910390a160019050919050565b6000801515600060149054906101000a900460ff161515141515614e1e57600080fd5b600280549050905090565b6000801515600060149054906101000a900460ff161515141515614e4c57600080fd5b614e55336154a9565b1515614e6057600080fd5b600160003373ffffffffffffffffffffffffffffffffffffffff1673ffffffffffffffffffffffffffffffffffffffff16815260200190815260200160002060050160009054906101000a900460ff161515614ebb57600080fd5b81600160003373ffffffffffffffffffffffffffffffffffffffff1673ffffffffffffffffffffffffffffffffffffffff1681526020019081526020016000206001019080519060200190614f119291906155d3565b507f5f6835ea2a1961fdb2e3aec43d753d660ddf38041baaa485978e597d8236d03a600160003373ffffffffffffffffffffffffffffffffffffffff1673ffffffffffffffffffffffffffffffffffffffff168152602001908152602001600020600001600160003373ffffffffffffffffffffffffffffffffffffffff1673ffffffffffffffffffffffffffffffffffffffff168152602001908152602001600020600101600160003373ffffffffffffffffffffffffffffffffffffffff1673ffffffffffffffffffffffffffffffffffffffff168152602001908152602001600020600201600160003373ffffffffffffffffffffffffffffffffffffffff1673ffffffffffffffffffffffffffffffffffffffff168152602001908152602001600020600301600160003373ffffffffffffffffffffffffffffffffffffffff1673ffffffffffffffffffffffffffffffffffffffff168152602001908152602001600020600401600160003373ffffffffffffffffffffffffffffffffffffffff1673ffffffffffffffffffffffffffffffffffffffff16815260200190815260200160002060050160009054906101000a900460ff166040518080602001806020018060200180602001806020018715151515815260200186810386528c8181546001816001161561010002031660029004815260200191508054600181600116156101000203166002900480156151705780601f1061514557610100808354040283529160200191615170565b820191906000526020600020905b81548152906001019060200180831161515357829003601f168201915b505086810385528b8181546001816001161561010002031660029004815260200191508054600181600116156101000203166002900480156151f35780601f106151c8576101008083540402835291602001916151f3565b820191906000526020600020905b8154815290600101906020018083116151d657829003601f168201915b505086810384528a8181546001816001161561010002031660029004815260200191508054600181600116156101000203166002900480156152765780601f1061524b57610100808354040283529160200191615276565b820191906000526020600020905b81548152906001019060200180831161525957829003601f168201915b50508681038352898181546001816001161561010002031660029004815260200191508054600181600116156101000203166002900480156152f95780601f106152ce576101008083540402835291602001916152f9565b820191906000526020600020905b8154815290600101906020018083116152dc57829003601f168201915b505086810382528881815460018160011615610100020316600290048152602001915080546001816001161561010002031660029004801561537c5780601f106153515761010080835404028352916020019161537c565b820191906000526020600020905b81548152906001019060200180831161535f57829003601f168201915b50509b50505050505050505050505060405180910390a160019050919050565b60008060009054906101000a900473ffffffffffffffffffffffffffffffffffffffff1673ffffffffffffffffffffffffffffffffffffffff163373ffffffffffffffffffffffffffffffffffffffff161415156153f957600080fd5b60001515600060149054906101000a900460ff16151514151561541b57600080fd5b6003805490508210151561542e57600080fd5b60038281548110151561543d57fe5b906000526020600020906007020160060160019054906101000a900460ff16151561546757600080fd5b600060038381548110151561547857fe5b906000526020600020906007020160060160016101000a81548160ff02191690831515021790555060019050919050565b60008060028054905014156154c1576000905061556e565b8173ffffffffffffffffffffffffffffffffffffffff166002600160008573ffffffffffffffffffffffffffffffffffffffff1673ffffffffffffffffffffffffffffffffffffffff1681526020019081526020016000206006015481548110151561552957fe5b9060005260206000200160009054906101000a900473ffffffffffffffffffffffffffffffffffffffff1673ffffffffffffffffffffffffffffffffffffffff161490505b919050565b6101006040519081016040528060608152602001606081526020016060815260200160008152602001600073ffffffffffffffffffffffffffffffffffffffff168152602001606081526020016000151581526020016000151581525090565b828054600181600116156101000203166002900490600052602060002090601f016020900481019282601f1061561457805160ff1916838001178555615642565b82800160010185558215615642579182015b82811115615641578251825591602001919060010190615626565b5b50905061564f9190615720565b5090565b828054600181600116156101000203166002900490600052602060002090601f016020900481019282601f1061569457805160ff19168380011785556156c2565b828001600101855582156156c2579182015b828111156156c15782518255916020019190600101906156a6565b5b5090506156cf9190615720565b5090565b82805482825590600052602060002090810192821561570f579160200282015b8281111561570e5782518255916020019190600101906156f3565b5b50905061571c9190615720565b5090565b61574291905b8082111561573e576000816000905550600101615726565b5090565b905600a165627a7a72305820e87eab14cf04d59d53e5b18b80ed52b47f1ab38c7c84da251ea0db631cc0d4e90029",
  "source": "pragma solidity ^0.4.23;\r\n\r\nimport \"./OriginUser.sol\";\r\n\r\ncontract OriginProduct is OriginUser{\r\n\r\n    struct Action{\r\n        address actioner;\r\n        string comment;\r\n        uint time;\r\n        string place;\r\n    }\r\n\r\n    struct ProductStruct{\r\n        string name;\r\n        string description;\r\n        string productType;\r\n        uint quantity;\r\n        address owner;\r\n        uint[] path;\r\n        bool consumed;\r\n        bool active;\r\n    }\r\n\r\n    event NewProduct(address owner, string _name, string _productType, string _description, uint _quantity, string _place);\r\n    event ProductConsumed(uint index);\r\n\r\n    ProductStruct[] public products;\r\n    mapping (uint => Action) public actions;\r\n    uint public numberActions ;\r\n    mapping (address => uint[]) public userToProducts;\r\n\r\n\r\n    // a mapping for ownership mapping (address => uint[]) each address has an array of products that the company/address owns\r\n    // for notifications use mapping (address => uint[]) each address has an array of product ids to be verified on the supply chain\r\n\r\n    function createProduct(string _name, string _productType, string _description, uint _quantity, string _place) public unpausedSupplyChain returns (uint index) {\r\n        require(msg.sender != address(0));\r\n\r\n        actions[numberActions].actioner = msg.sender;\r\n        actions[numberActions].comment = \"Creation of Product\";\r\n        actions[numberActions].place = _place;\r\n        actions[numberActions].time = now;\r\n\r\n\r\n        ProductStruct memory product;\r\n        product.name = _name;\r\n        product.productType = _productType;\r\n        product.description = _description;\r\n        product.quantity = _quantity;\r\n        product.owner = msg.sender;\r\n        product.consumed = false;\r\n        product.active = true;\r\n\r\n        index = products.push(product) - 1;\r\n        products[index].path.push(numberActions);\r\n\r\n        userToProducts[msg.sender].push(index);\r\n\r\n        numberActions = numberActions + 1;\r\n\r\n        emit NewProduct(msg.sender, _name, _productType, _description, _quantity, _place);\r\n\r\n        return index;\r\n    }\r\n\r\n\r\n\r\n    function getProductInfoAt(uint index) public view unpausedSupplyChain returns (address owner, string name, string productType, uint quantity, string description, bool consumed, bool active) {\r\n        require(index < products.length);\r\n        require(products[index].active);\r\n\r\n        ProductStruct memory _product = products[index];\r\n        return (_product.owner, _product.name, _product.productType, _product.quantity, _product.description, _product.consumed, _product.active);\r\n    }\r\n\r\n\r\n    function getPathOfAt(uint productIndex, uint actionIndex) public view unpausedSupplyChain returns(address, string, string, uint){\r\n        require(productIndex < products.length);\r\n        require(actionIndex < products[productIndex].path.length);\r\n        require(products[productIndex].active);\r\n\r\n        uint index = products[productIndex].path[actionIndex];\r\n        return (actions[index].actioner, actions[index].comment, actions[index].place, actions[index].time);\r\n\r\n    }\r\n\r\n    function consumeProduct(uint index) public unpausedSupplyChain returns (bool succes){\r\n        require(index < products.length);\r\n        require(products[index].active);\r\n\r\n        products[index].consumed = true;\r\n\r\n        emit ProductConsumed(index);\r\n\r\n        return true;\r\n    }\r\n\r\n    function deactivateProduct(uint index) public onlyOwner unpausedSupplyChain returns (bool success){\r\n        require(index < products.length);\r\n        require(products[index].active);\r\n\r\n        products[index].active = false;\r\n\r\n        return true;\r\n    }\r\n\r\n    function activateProduct(uint index) public onlyOwner unpausedSupplyChain returns (bool success){\r\n        require(index < products.length);\r\n        require(!products[index].active);\r\n\r\n        products[index].active = true;\r\n\r\n        return true;\r\n    }\r\n\r\n    function getProductCount() public view unpausedSupplyChain returns (uint count){\r\n        return products.length;\r\n    }\r\n\r\n}",
  "sourcePath": "C:\\Users\\ab\\Desktop\\web apps\\projects\\origin\\contracts\\OriginProduct.sol",
  "compiler": {
    "name": "solc",
    "version": "0.4.24+commit.e67f0147.Emscripten.clang"
  },
  "schemaVersion": "2.0.1",
  "updatedAt": "2018-08-16T15:36:41.120Z"
}