{
  "contractName": "OriginUser",
  "abi": [
    {
      "constant": false,
      "inputs": [],
      "name": "pauseSupplyChain",
      "outputs": [],
      "payable": false,
      "stateMutability": "nonpayable",
      "type": "function"
    },
    {
      "constant": true,
      "inputs": [],
      "name": "paused",
      "outputs": [
        {
          "name": "",
          "type": "bool"
        }
      ],
      "payable": false,
      "stateMutability": "view",
      "type": "function"
    },
    {
      "constant": false,
      "inputs": [],
      "name": "unPauseSupplyChain",
      "outputs": [],
      "payable": false,
      "stateMutability": "nonpayable",
      "type": "function"
    },
    {
      "constant": true,
      "inputs": [],
      "name": "owner",
      "outputs": [
        {
          "name": "",
          "type": "address"
        }
      ],
      "payable": false,
      "stateMutability": "view",
      "type": "function"
    },
    {
      "constant": false,
      "inputs": [
        {
          "name": "_newOwner",
          "type": "address"
        }
      ],
      "name": "changeOwner",
      "outputs": [],
      "payable": false,
      "stateMutability": "nonpayable",
      "type": "function"
    },
    {
      "anonymous": false,
      "inputs": [
        {
          "indexed": false,
          "name": "_fullName",
          "type": "string"
        },
        {
          "indexed": false,
          "name": "_dateOfBirth",
          "type": "string"
        },
        {
          "indexed": false,
          "name": "_email",
          "type": "string"
        },
        {
          "indexed": false,
          "name": "_role",
          "type": "string"
        },
        {
          "indexed": false,
          "name": "_brand",
          "type": "string"
        }
      ],
      "name": "NewUser",
      "type": "event"
    },
    {
      "anonymous": false,
      "inputs": [
        {
          "indexed": false,
          "name": "_fullName",
          "type": "string"
        },
        {
          "indexed": false,
          "name": "_dateOfBirth",
          "type": "string"
        },
        {
          "indexed": false,
          "name": "_email",
          "type": "string"
        },
        {
          "indexed": false,
          "name": "_role",
          "type": "string"
        },
        {
          "indexed": false,
          "name": "_brand",
          "type": "string"
        },
        {
          "indexed": false,
          "name": "active",
          "type": "bool"
        }
      ],
      "name": "UpdateUser",
      "type": "event"
    },
    {
      "anonymous": false,
      "inputs": [],
      "name": "SupplyChainPaused",
      "type": "event"
    },
    {
      "anonymous": false,
      "inputs": [],
      "name": "SupplyChainUnPaused",
      "type": "event"
    },
    {
      "anonymous": false,
      "inputs": [],
      "name": "OwnerChanged",
      "type": "event"
    },
    {
      "constant": false,
      "inputs": [
        {
          "name": "_fullName",
          "type": "string"
        },
        {
          "name": "_dateOfBirth",
          "type": "string"
        },
        {
          "name": "_email",
          "type": "string"
        },
        {
          "name": "_role",
          "type": "string"
        },
        {
          "name": "_brand",
          "type": "string"
        }
      ],
      "name": "insertUser",
      "outputs": [
        {
          "name": "index",
          "type": "uint256"
        }
      ],
      "payable": false,
      "stateMutability": "nonpayable",
      "type": "function"
    },
    {
      "constant": true,
      "inputs": [
        {
          "name": "_userAddress",
          "type": "address"
        }
      ],
      "name": "getUser",
      "outputs": [
        {
          "name": "_fullName",
          "type": "string"
        },
        {
          "name": "_dateOfBirth",
          "type": "string"
        },
        {
          "name": "_email",
          "type": "string"
        },
        {
          "name": "_role",
          "type": "string"
        },
        {
          "name": "_brand",
          "type": "string"
        },
        {
          "name": "active",
          "type": "bool"
        }
      ],
      "payable": false,
      "stateMutability": "view",
      "type": "function"
    },
    {
      "constant": false,
      "inputs": [
        {
          "name": "_fullName",
          "type": "string"
        }
      ],
      "name": "updateUserFullName",
      "outputs": [
        {
          "name": "success",
          "type": "bool"
        }
      ],
      "payable": false,
      "stateMutability": "nonpayable",
      "type": "function"
    },
    {
      "constant": false,
      "inputs": [
        {
          "name": "_dateOfBirth",
          "type": "string"
        }
      ],
      "name": "updateUserDateOfBirth",
      "outputs": [
        {
          "name": "success",
          "type": "bool"
        }
      ],
      "payable": false,
      "stateMutability": "nonpayable",
      "type": "function"
    },
    {
      "constant": false,
      "inputs": [
        {
          "name": "_email",
          "type": "string"
        }
      ],
      "name": "updateUserEmail",
      "outputs": [
        {
          "name": "success",
          "type": "bool"
        }
      ],
      "payable": false,
      "stateMutability": "nonpayable",
      "type": "function"
    },
    {
      "constant": false,
      "inputs": [],
      "name": "deactivateUser",
      "outputs": [
        {
          "name": "success",
          "type": "bool"
        }
      ],
      "payable": false,
      "stateMutability": "nonpayable",
      "type": "function"
    },
    {
      "constant": false,
      "inputs": [
        {
          "name": "_userAddress",
          "type": "address"
        }
      ],
      "name": "activateUser",
      "outputs": [
        {
          "name": "success",
          "type": "bool"
        }
      ],
      "payable": false,
      "stateMutability": "nonpayable",
      "type": "function"
    },
    {
      "constant": false,
      "inputs": [
        {
          "name": "_address",
          "type": "address"
        }
      ],
      "name": "ownerDeactivatesUser",
      "outputs": [
        {
          "name": "success",
          "type": "bool"
        }
      ],
      "payable": false,
      "stateMutability": "nonpayable",
      "type": "function"
    },
    {
      "constant": true,
      "inputs": [],
      "name": "getUserCount",
      "outputs": [
        {
          "name": "count",
          "type": "uint256"
        }
      ],
      "payable": false,
      "stateMutability": "view",
      "type": "function"
    }
  ],
  "bytecode": "0x6080604052336000806101000a81548173ffffffffffffffffffffffffffffffffffffffff021916908373ffffffffffffffffffffffffffffffffffffffff1602179055506138f6806100536000396000f3006080604052600436106100d0576000357c0100000000000000000000000000000000000000000000000000000000900463ffffffff168063070aff1c146100d5578063470d3b4c146100ec57806355ea20001461016d5780635c975abb1461019c5780635f38a969146101cb5780636f77926b146101e2578063754cb3ba14610459578063842f6509146104b45780638da5cb5b14610649578063a6f9dae1146106a0578063a9d959e5146106e3578063b4acfe1c14610764578063b5cb15f7146107bf578063e9f2bf8c146107ea575b600080fd5b3480156100e157600080fd5b506100ea61086b565b005b3480156100f857600080fd5b50610153600480360381019080803590602001908201803590602001908080601f0160208091040260200160405190810160405280939291908181526020018383808284378201915050505050509192919290505050610931565b604051808215151515815260200191505060405180910390f35b34801561017957600080fd5b50610182610ea4565b604051808215151515815260200191505060405180910390f35b3480156101a857600080fd5b506101b1611419565b604051808215151515815260200191505060405180910390f35b3480156101d757600080fd5b506101e061142c565b005b3480156101ee57600080fd5b50610223600480360381019080803573ffffffffffffffffffffffffffffffffffffffff1690602001909291905050506114f1565b6040518080602001806020018060200180602001806020018715151515815260200186810386528c818151815260200191508051906020019080838360005b8381101561027d578082015181840152602081019050610262565b50505050905090810190601f1680156102aa5780820380516001836020036101000a031916815260200191505b5086810385528b818151815260200191508051906020019080838360005b838110156102e35780820151818401526020810190506102c8565b50505050905090810190601f1680156103105780820380516001836020036101000a031916815260200191505b5086810384528a818151815260200191508051906020019080838360005b8381101561034957808201518184015260208101905061032e565b50505050905090810190601f1680156103765780820380516001836020036101000a031916815260200191505b50868103835289818151815260200191508051906020019080838360005b838110156103af578082015181840152602081019050610394565b50505050905090810190601f1680156103dc5780820380516001836020036101000a031916815260200191505b50868103825288818151815260200191508051906020019080838360005b838110156104155780820151818401526020810190506103fa565b50505050905090810190601f1680156104425780820380516001836020036101000a031916815260200191505b509b50505050505050505050505060405180910390f35b34801561046557600080fd5b5061049a600480360381019080803573ffffffffffffffffffffffffffffffffffffffff169060200190929190505050611a46565b604051808215151515815260200191505060405180910390f35b3480156104c057600080fd5b50610633600480360381019080803590602001908201803590602001908080601f0160208091040260200160405190810160405280939291908181526020018383808284378201915050505050509192919290803590602001908201803590602001908080601f0160208091040260200160405190810160405280939291908181526020018383808284378201915050505050509192919290803590602001908201803590602001908080601f0160208091040260200160405190810160405280939291908181526020018383808284378201915050505050509192919290803590602001908201803590602001908080601f0160208091040260200160405190810160405280939291908181526020018383808284378201915050505050509192919290803590602001908201803590602001908080601f0160208091040260200160405190810160405280939291908181526020018383808284378201915050505050509192919290505050611ff7565b6040518082815260200191505060405180910390f35b34801561065557600080fd5b5061065e61254e565b604051808273ffffffffffffffffffffffffffffffffffffffff1673ffffffffffffffffffffffffffffffffffffffff16815260200191505060405180910390f35b3480156106ac57600080fd5b506106e1600480360381019080803573ffffffffffffffffffffffffffffffffffffffff169060200190929190505050612573565b005b3480156106ef57600080fd5b5061074a600480360381019080803590602001908201803590602001908080601f0160208091040260200160405190810160405280939291908181526020018383808284378201915050505050509192919290505050612696565b604051808215151515815260200191505060405180910390f35b34801561077057600080fd5b506107a5600480360381019080803573ffffffffffffffffffffffffffffffffffffffff169060200190929190505050612c09565b604051808215151515815260200191505060405180910390f35b3480156107cb57600080fd5b506107d46131ba565b6040518082815260200191505060405180910390f35b3480156107f657600080fd5b50610851600480360381019080803590602001908201803590602001908080601f01602080910402602001604051908101604052809392919081815260200183838082843782019150505050505091929192905050506131e8565b604051808215151515815260200191505060405180910390f35b6000809054906101000a900473ffffffffffffffffffffffffffffffffffffffff1673ffffffffffffffffffffffffffffffffffffffff163373ffffffffffffffffffffffffffffffffffffffff161415156108c657600080fd5b60001515600060149054906101000a900460ff1615151415156108e857600080fd5b6001600060146101000a81548160ff0219169083151502179055507f9f169b4d6224654508c3ec6cf2a95651d3f144d8b96ab8742b58ac24816502b760405160405180910390a1565b6000801515600060149054906101000a900460ff16151514151561095457600080fd5b61095d3361375b565b151561096857600080fd5b600160003373ffffffffffffffffffffffffffffffffffffffff1673ffffffffffffffffffffffffffffffffffffffff16815260200190815260200160002060050160009054906101000a900460ff1615156109c357600080fd5b81600160003373ffffffffffffffffffffffffffffffffffffffff1673ffffffffffffffffffffffffffffffffffffffff1681526020019081526020016000206002019080519060200190610a19929190613825565b507f5f6835ea2a1961fdb2e3aec43d753d660ddf38041baaa485978e597d8236d03a600160003373ffffffffffffffffffffffffffffffffffffffff1673ffffffffffffffffffffffffffffffffffffffff168152602001908152602001600020600001600160003373ffffffffffffffffffffffffffffffffffffffff1673ffffffffffffffffffffffffffffffffffffffff168152602001908152602001600020600101600160003373ffffffffffffffffffffffffffffffffffffffff1673ffffffffffffffffffffffffffffffffffffffff168152602001908152602001600020600201600160003373ffffffffffffffffffffffffffffffffffffffff1673ffffffffffffffffffffffffffffffffffffffff168152602001908152602001600020600301600160003373ffffffffffffffffffffffffffffffffffffffff1673ffffffffffffffffffffffffffffffffffffffff168152602001908152602001600020600401600160003373ffffffffffffffffffffffffffffffffffffffff1673ffffffffffffffffffffffffffffffffffffffff16815260200190815260200160002060050160009054906101000a900460ff166040518080602001806020018060200180602001806020018715151515815260200186810386528c818154600181600116156101000203166002900481526020019150805460018160011615610100020316600290048015610c785780601f10610c4d57610100808354040283529160200191610c78565b820191906000526020600020905b815481529060010190602001808311610c5b57829003601f168201915b505086810385528b818154600181600116156101000203166002900481526020019150805460018160011615610100020316600290048015610cfb5780601f10610cd057610100808354040283529160200191610cfb565b820191906000526020600020905b815481529060010190602001808311610cde57829003601f168201915b505086810384528a818154600181600116156101000203166002900481526020019150805460018160011615610100020316600290048015610d7e5780601f10610d5357610100808354040283529160200191610d7e565b820191906000526020600020905b815481529060010190602001808311610d6157829003601f168201915b5050868103835289818154600181600116156101000203166002900481526020019150805460018160011615610100020316600290048015610e015780601f10610dd657610100808354040283529160200191610e01565b820191906000526020600020905b815481529060010190602001808311610de457829003601f168201915b5050868103825288818154600181600116156101000203166002900481526020019150805460018160011615610100020316600290048015610e845780601f10610e5957610100808354040283529160200191610e84565b820191906000526020600020905b815481529060010190602001808311610e6757829003601f168201915b50509b50505050505050505050505060405180910390a160019050919050565b6000801515600060149054906101000a900460ff161515141515610ec757600080fd5b610ed03361375b565b1515610edb57600080fd5b600160003373ffffffffffffffffffffffffffffffffffffffff1673ffffffffffffffffffffffffffffffffffffffff16815260200190815260200160002060050160009054906101000a900460ff161515610f3657600080fd5b6000600160003373ffffffffffffffffffffffffffffffffffffffff1673ffffffffffffffffffffffffffffffffffffffff16815260200190815260200160002060050160006101000a81548160ff0219169083151502179055507f5f6835ea2a1961fdb2e3aec43d753d660ddf38041baaa485978e597d8236d03a600160003373ffffffffffffffffffffffffffffffffffffffff1673ffffffffffffffffffffffffffffffffffffffff168152602001908152602001600020600001600160003373ffffffffffffffffffffffffffffffffffffffff1673ffffffffffffffffffffffffffffffffffffffff168152602001908152602001600020600101600160003373ffffffffffffffffffffffffffffffffffffffff1673ffffffffffffffffffffffffffffffffffffffff168152602001908152602001600020600201600160003373ffffffffffffffffffffffffffffffffffffffff1673ffffffffffffffffffffffffffffffffffffffff168152602001908152602001600020600301600160003373ffffffffffffffffffffffffffffffffffffffff1673ffffffffffffffffffffffffffffffffffffffff168152602001908152602001600020600401600160003373ffffffffffffffffffffffffffffffffffffffff1673ffffffffffffffffffffffffffffffffffffffff16815260200190815260200160002060050160009054906101000a900460ff166040518080602001806020018060200180602001806020018715151515815260200186810386528c8181546001816001161561010002031660029004815260200191508054600181600116156101000203166002900480156111ef5780601f106111c4576101008083540402835291602001916111ef565b820191906000526020600020905b8154815290600101906020018083116111d257829003601f168201915b505086810385528b8181546001816001161561010002031660029004815260200191508054600181600116156101000203166002900480156112725780601f1061124757610100808354040283529160200191611272565b820191906000526020600020905b81548152906001019060200180831161125557829003601f168201915b505086810384528a8181546001816001161561010002031660029004815260200191508054600181600116156101000203166002900480156112f55780601f106112ca576101008083540402835291602001916112f5565b820191906000526020600020905b8154815290600101906020018083116112d857829003601f168201915b50508681038352898181546001816001161561010002031660029004815260200191508054600181600116156101000203166002900480156113785780601f1061134d57610100808354040283529160200191611378565b820191906000526020600020905b81548152906001019060200180831161135b57829003601f168201915b50508681038252888181546001816001161561010002031660029004815260200191508054600181600116156101000203166002900480156113fb5780601f106113d0576101008083540402835291602001916113fb565b820191906000526020600020905b8154815290600101906020018083116113de57829003601f168201915b50509b50505050505050505050505060405180910390a16001905090565b600060149054906101000a900460ff1681565b6000809054906101000a900473ffffffffffffffffffffffffffffffffffffffff1673ffffffffffffffffffffffffffffffffffffffff163373ffffffffffffffffffffffffffffffffffffffff1614151561148757600080fd5b60011515600060149054906101000a900460ff1615151415156114a957600080fd5b60008060146101000a81548160ff0219169083151502179055507f1f9a5f2ae53bba1390ac0766ace24e59e82481665cf401fa45dcfd1dcce14fb360405160405180910390a1565b60608060608060606000801515600060149054906101000a900460ff16151514151561151c57600080fd5b6115258761375b565b151561153057600080fd5b600160008873ffffffffffffffffffffffffffffffffffffffff1673ffffffffffffffffffffffffffffffffffffffff16815260200190815260200160002060050160009054906101000a900460ff16151561158b57600080fd5b600160008873ffffffffffffffffffffffffffffffffffffffff1673ffffffffffffffffffffffffffffffffffffffff168152602001908152602001600020600001600160008973ffffffffffffffffffffffffffffffffffffffff1673ffffffffffffffffffffffffffffffffffffffff168152602001908152602001600020600101600160008a73ffffffffffffffffffffffffffffffffffffffff1673ffffffffffffffffffffffffffffffffffffffff168152602001908152602001600020600201600160008b73ffffffffffffffffffffffffffffffffffffffff1673ffffffffffffffffffffffffffffffffffffffff168152602001908152602001600020600301600160008c73ffffffffffffffffffffffffffffffffffffffff1673ffffffffffffffffffffffffffffffffffffffff168152602001908152602001600020600401600160008d73ffffffffffffffffffffffffffffffffffffffff1673ffffffffffffffffffffffffffffffffffffffff16815260200190815260200160002060050160009054906101000a900460ff16858054600181600116156101000203166002900480601f0160208091040260200160405190810160405280929190818152602001828054600181600116156101000203166002900480156117ba5780601f1061178f576101008083540402835291602001916117ba565b820191906000526020600020905b81548152906001019060200180831161179d57829003601f168201915b50505050509550848054600181600116156101000203166002900480601f0160208091040260200160405190810160405280929190818152602001828054600181600116156101000203166002900480156118565780601f1061182b57610100808354040283529160200191611856565b820191906000526020600020905b81548152906001019060200180831161183957829003601f168201915b50505050509450838054600181600116156101000203166002900480601f0160208091040260200160405190810160405280929190818152602001828054600181600116156101000203166002900480156118f25780601f106118c7576101008083540402835291602001916118f2565b820191906000526020600020905b8154815290600101906020018083116118d557829003601f168201915b50505050509350828054600181600116156101000203166002900480601f01602080910402602001604051908101604052809291908181526020018280546001816001161561010002031660029004801561198e5780601f106119635761010080835404028352916020019161198e565b820191906000526020600020905b81548152906001019060200180831161197157829003601f168201915b50505050509250818054600181600116156101000203166002900480601f016020809104026020016040519081016040528092919081815260200182805460018160011615610100020316600290048015611a2a5780601f106119ff57610100808354040283529160200191611a2a565b820191906000526020600020905b815481529060010190602001808311611a0d57829003601f168201915b5050505050915095509550955095509550955091939550919395565b60008060009054906101000a900473ffffffffffffffffffffffffffffffffffffffff1673ffffffffffffffffffffffffffffffffffffffff163373ffffffffffffffffffffffffffffffffffffffff16141515611aa357600080fd5b611aac8261375b565b1515611ab757600080fd5b600160008373ffffffffffffffffffffffffffffffffffffffff1673ffffffffffffffffffffffffffffffffffffffff16815260200190815260200160002060050160009054906101000a900460ff161515611b1257600080fd5b6000600160008473ffffffffffffffffffffffffffffffffffffffff1673ffffffffffffffffffffffffffffffffffffffff16815260200190815260200160002060050160006101000a81548160ff0219169083151502179055507f5f6835ea2a1961fdb2e3aec43d753d660ddf38041baaa485978e597d8236d03a600160008473ffffffffffffffffffffffffffffffffffffffff1673ffffffffffffffffffffffffffffffffffffffff168152602001908152602001600020600001600160008573ffffffffffffffffffffffffffffffffffffffff1673ffffffffffffffffffffffffffffffffffffffff168152602001908152602001600020600101600160008673ffffffffffffffffffffffffffffffffffffffff1673ffffffffffffffffffffffffffffffffffffffff168152602001908152602001600020600201600160008773ffffffffffffffffffffffffffffffffffffffff1673ffffffffffffffffffffffffffffffffffffffff168152602001908152602001600020600301600160008873ffffffffffffffffffffffffffffffffffffffff1673ffffffffffffffffffffffffffffffffffffffff168152602001908152602001600020600401600160008973ffffffffffffffffffffffffffffffffffffffff1673ffffffffffffffffffffffffffffffffffffffff16815260200190815260200160002060050160009054906101000a900460ff166040518080602001806020018060200180602001806020018715151515815260200186810386528c818154600181600116156101000203166002900481526020019150805460018160011615610100020316600290048015611dcb5780601f10611da057610100808354040283529160200191611dcb565b820191906000526020600020905b815481529060010190602001808311611dae57829003601f168201915b505086810385528b818154600181600116156101000203166002900481526020019150805460018160011615610100020316600290048015611e4e5780601f10611e2357610100808354040283529160200191611e4e565b820191906000526020600020905b815481529060010190602001808311611e3157829003601f168201915b505086810384528a818154600181600116156101000203166002900481526020019150805460018160011615610100020316600290048015611ed15780601f10611ea657610100808354040283529160200191611ed1565b820191906000526020600020905b815481529060010190602001808311611eb457829003601f168201915b5050868103835289818154600181600116156101000203166002900481526020019150805460018160011615610100020316600290048015611f545780601f10611f2957610100808354040283529160200191611f54565b820191906000526020600020905b815481529060010190602001808311611f3757829003601f168201915b5050868103825288818154600181600116156101000203166002900481526020019150805460018160011615610100020316600290048015611fd75780601f10611fac57610100808354040283529160200191611fd7565b820191906000526020600020905b815481529060010190602001808311611fba57829003601f168201915b50509b50505050505050505050505060405180910390a160019050919050565b6000801515600060149054906101000a900460ff16151514151561201a57600080fd5b6120233361375b565b15151561202f57600080fd5b85600160003373ffffffffffffffffffffffffffffffffffffffff1673ffffffffffffffffffffffffffffffffffffffff1681526020019081526020016000206000019080519060200190612085929190613825565b5084600160003373ffffffffffffffffffffffffffffffffffffffff1673ffffffffffffffffffffffffffffffffffffffff16815260200190815260200160002060010190805190602001906120dc929190613825565b5083600160003373ffffffffffffffffffffffffffffffffffffffff1673ffffffffffffffffffffffffffffffffffffffff1681526020019081526020016000206002019080519060200190612133929190613825565b5082600160003373ffffffffffffffffffffffffffffffffffffffff1673ffffffffffffffffffffffffffffffffffffffff168152602001908152602001600020600301908051906020019061218a929190613825565b5081600160003373ffffffffffffffffffffffffffffffffffffffff1673ffffffffffffffffffffffffffffffffffffffff16815260200190815260200160002060040190805190602001906121e1929190613825565b5060018060003373ffffffffffffffffffffffffffffffffffffffff1673ffffffffffffffffffffffffffffffffffffffff16815260200190815260200160002060050160006101000a81548160ff021916908315150217905550600160023390806001815401808255809150509060018203906000526020600020016000909192909190916101000a81548173ffffffffffffffffffffffffffffffffffffffff021916908373ffffffffffffffffffffffffffffffffffffffff16021790555003600160003373ffffffffffffffffffffffffffffffffffffffff1673ffffffffffffffffffffffffffffffffffffffff168152602001908152602001600020600601819055507f0d613bda983df078df8d9a5fab74a4bd90ba5695aeb1decafcd21eccfaaea0a3868686868660405180806020018060200180602001806020018060200186810386528b818151815260200191508051906020019080838360005b83811015612360578082015181840152602081019050612345565b50505050905090810190601f16801561238d5780820380516001836020036101000a031916815260200191505b5086810385528a818151815260200191508051906020019080838360005b838110156123c65780820151818401526020810190506123ab565b50505050905090810190601f1680156123f35780820380516001836020036101000a031916815260200191505b50868103845289818151815260200191508051906020019080838360005b8381101561242c578082015181840152602081019050612411565b50505050905090810190601f1680156124595780820380516001836020036101000a031916815260200191505b50868103835288818151815260200191508051906020019080838360005b83811015612492578082015181840152602081019050612477565b50505050905090810190601f1680156124bf5780820380516001836020036101000a031916815260200191505b50868103825287818151815260200191508051906020019080838360005b838110156124f85780820151818401526020810190506124dd565b50505050905090810190601f1680156125255780820380516001836020036101000a031916815260200191505b509a505050505050505050505060405180910390a1600160028054905003905095945050505050565b6000809054906101000a900473ffffffffffffffffffffffffffffffffffffffff1681565b6000809054906101000a900473ffffffffffffffffffffffffffffffffffffffff1673ffffffffffffffffffffffffffffffffffffffff163373ffffffffffffffffffffffffffffffffffffffff161415156125ce57600080fd5b60001515600060149054906101000a900460ff1615151415156125f057600080fd5b600073ffffffffffffffffffffffffffffffffffffffff168173ffffffffffffffffffffffffffffffffffffffff1614151561266757806000806101000a81548173ffffffffffffffffffffffffffffffffffffffff021916908373ffffffffffffffffffffffffffffffffffffffff1602179055505b7fa210d63b5a22487066397c631c738bc560e60390098601461599961c472139f060405160405180910390a150565b6000801515600060149054906101000a900460ff1615151415156126b957600080fd5b6126c23361375b565b15156126cd57600080fd5b600160003373ffffffffffffffffffffffffffffffffffffffff1673ffffffffffffffffffffffffffffffffffffffff16815260200190815260200160002060050160009054906101000a900460ff16151561272857600080fd5b81600160003373ffffffffffffffffffffffffffffffffffffffff1673ffffffffffffffffffffffffffffffffffffffff168152602001908152602001600020600001908051906020019061277e929190613825565b507f5f6835ea2a1961fdb2e3aec43d753d660ddf38041baaa485978e597d8236d03a600160003373ffffffffffffffffffffffffffffffffffffffff1673ffffffffffffffffffffffffffffffffffffffff168152602001908152602001600020600001600160003373ffffffffffffffffffffffffffffffffffffffff1673ffffffffffffffffffffffffffffffffffffffff168152602001908152602001600020600101600160003373ffffffffffffffffffffffffffffffffffffffff1673ffffffffffffffffffffffffffffffffffffffff168152602001908152602001600020600201600160003373ffffffffffffffffffffffffffffffffffffffff1673ffffffffffffffffffffffffffffffffffffffff168152602001908152602001600020600301600160003373ffffffffffffffffffffffffffffffffffffffff1673ffffffffffffffffffffffffffffffffffffffff168152602001908152602001600020600401600160003373ffffffffffffffffffffffffffffffffffffffff1673ffffffffffffffffffffffffffffffffffffffff16815260200190815260200160002060050160009054906101000a900460ff166040518080602001806020018060200180602001806020018715151515815260200186810386528c8181546001816001161561010002031660029004815260200191508054600181600116156101000203166002900480156129dd5780601f106129b2576101008083540402835291602001916129dd565b820191906000526020600020905b8154815290600101906020018083116129c057829003601f168201915b505086810385528b818154600181600116156101000203166002900481526020019150805460018160011615610100020316600290048015612a605780601f10612a3557610100808354040283529160200191612a60565b820191906000526020600020905b815481529060010190602001808311612a4357829003601f168201915b505086810384528a818154600181600116156101000203166002900481526020019150805460018160011615610100020316600290048015612ae35780601f10612ab857610100808354040283529160200191612ae3565b820191906000526020600020905b815481529060010190602001808311612ac657829003601f168201915b5050868103835289818154600181600116156101000203166002900481526020019150805460018160011615610100020316600290048015612b665780601f10612b3b57610100808354040283529160200191612b66565b820191906000526020600020905b815481529060010190602001808311612b4957829003601f168201915b5050868103825288818154600181600116156101000203166002900481526020019150805460018160011615610100020316600290048015612be95780601f10612bbe57610100808354040283529160200191612be9565b820191906000526020600020905b815481529060010190602001808311612bcc57829003601f168201915b50509b50505050505050505050505060405180910390a160019050919050565b60008060009054906101000a900473ffffffffffffffffffffffffffffffffffffffff1673ffffffffffffffffffffffffffffffffffffffff163373ffffffffffffffffffffffffffffffffffffffff16141515612c6657600080fd5b612c6f8261375b565b1515612c7a57600080fd5b600160008373ffffffffffffffffffffffffffffffffffffffff1673ffffffffffffffffffffffffffffffffffffffff16815260200190815260200160002060050160009054906101000a900460ff16151515612cd657600080fd5b60018060008473ffffffffffffffffffffffffffffffffffffffff1673ffffffffffffffffffffffffffffffffffffffff16815260200190815260200160002060050160006101000a81548160ff0219169083151502179055507f5f6835ea2a1961fdb2e3aec43d753d660ddf38041baaa485978e597d8236d03a600160008473ffffffffffffffffffffffffffffffffffffffff1673ffffffffffffffffffffffffffffffffffffffff168152602001908152602001600020600001600160008573ffffffffffffffffffffffffffffffffffffffff1673ffffffffffffffffffffffffffffffffffffffff168152602001908152602001600020600101600160008673ffffffffffffffffffffffffffffffffffffffff1673ffffffffffffffffffffffffffffffffffffffff168152602001908152602001600020600201600160008773ffffffffffffffffffffffffffffffffffffffff1673ffffffffffffffffffffffffffffffffffffffff168152602001908152602001600020600301600160008873ffffffffffffffffffffffffffffffffffffffff1673ffffffffffffffffffffffffffffffffffffffff168152602001908152602001600020600401600160008973ffffffffffffffffffffffffffffffffffffffff1673ffffffffffffffffffffffffffffffffffffffff16815260200190815260200160002060050160009054906101000a900460ff166040518080602001806020018060200180602001806020018715151515815260200186810386528c818154600181600116156101000203166002900481526020019150805460018160011615610100020316600290048015612f8e5780601f10612f6357610100808354040283529160200191612f8e565b820191906000526020600020905b815481529060010190602001808311612f7157829003601f168201915b505086810385528b8181546001816001161561010002031660029004815260200191508054600181600116156101000203166002900480156130115780601f10612fe657610100808354040283529160200191613011565b820191906000526020600020905b815481529060010190602001808311612ff457829003601f168201915b505086810384528a8181546001816001161561010002031660029004815260200191508054600181600116156101000203166002900480156130945780601f1061306957610100808354040283529160200191613094565b820191906000526020600020905b81548152906001019060200180831161307757829003601f168201915b50508681038352898181546001816001161561010002031660029004815260200191508054600181600116156101000203166002900480156131175780601f106130ec57610100808354040283529160200191613117565b820191906000526020600020905b8154815290600101906020018083116130fa57829003601f168201915b505086810382528881815460018160011615610100020316600290048152602001915080546001816001161561010002031660029004801561319a5780601f1061316f5761010080835404028352916020019161319a565b820191906000526020600020905b81548152906001019060200180831161317d57829003601f168201915b50509b50505050505050505050505060405180910390a160019050919050565b6000801515600060149054906101000a900460ff1615151415156131dd57600080fd5b600280549050905090565b6000801515600060149054906101000a900460ff16151514151561320b57600080fd5b6132143361375b565b151561321f57600080fd5b600160003373ffffffffffffffffffffffffffffffffffffffff1673ffffffffffffffffffffffffffffffffffffffff16815260200190815260200160002060050160009054906101000a900460ff16151561327a57600080fd5b81600160003373ffffffffffffffffffffffffffffffffffffffff1673ffffffffffffffffffffffffffffffffffffffff16815260200190815260200160002060010190805190602001906132d0929190613825565b507f5f6835ea2a1961fdb2e3aec43d753d660ddf38041baaa485978e597d8236d03a600160003373ffffffffffffffffffffffffffffffffffffffff1673ffffffffffffffffffffffffffffffffffffffff168152602001908152602001600020600001600160003373ffffffffffffffffffffffffffffffffffffffff1673ffffffffffffffffffffffffffffffffffffffff168152602001908152602001600020600101600160003373ffffffffffffffffffffffffffffffffffffffff1673ffffffffffffffffffffffffffffffffffffffff168152602001908152602001600020600201600160003373ffffffffffffffffffffffffffffffffffffffff1673ffffffffffffffffffffffffffffffffffffffff168152602001908152602001600020600301600160003373ffffffffffffffffffffffffffffffffffffffff1673ffffffffffffffffffffffffffffffffffffffff168152602001908152602001600020600401600160003373ffffffffffffffffffffffffffffffffffffffff1673ffffffffffffffffffffffffffffffffffffffff16815260200190815260200160002060050160009054906101000a900460ff166040518080602001806020018060200180602001806020018715151515815260200186810386528c81815460018160011615610100020316600290048152602001915080546001816001161561010002031660029004801561352f5780601f106135045761010080835404028352916020019161352f565b820191906000526020600020905b81548152906001019060200180831161351257829003601f168201915b505086810385528b8181546001816001161561010002031660029004815260200191508054600181600116156101000203166002900480156135b25780601f10613587576101008083540402835291602001916135b2565b820191906000526020600020905b81548152906001019060200180831161359557829003601f168201915b505086810384528a8181546001816001161561010002031660029004815260200191508054600181600116156101000203166002900480156136355780601f1061360a57610100808354040283529160200191613635565b820191906000526020600020905b81548152906001019060200180831161361857829003601f168201915b50508681038352898181546001816001161561010002031660029004815260200191508054600181600116156101000203166002900480156136b85780601f1061368d576101008083540402835291602001916136b8565b820191906000526020600020905b81548152906001019060200180831161369b57829003601f168201915b505086810382528881815460018160011615610100020316600290048152602001915080546001816001161561010002031660029004801561373b5780601f106137105761010080835404028352916020019161373b565b820191906000526020600020905b81548152906001019060200180831161371e57829003601f168201915b50509b50505050505050505050505060405180910390a160019050919050565b60008060028054905014156137735760009050613820565b8173ffffffffffffffffffffffffffffffffffffffff166002600160008573ffffffffffffffffffffffffffffffffffffffff1673ffffffffffffffffffffffffffffffffffffffff168152602001908152602001600020600601548154811015156137db57fe5b9060005260206000200160009054906101000a900473ffffffffffffffffffffffffffffffffffffffff1673ffffffffffffffffffffffffffffffffffffffff161490505b919050565b828054600181600116156101000203166002900490600052602060002090601f016020900481019282601f1061386657805160ff1916838001178555613894565b82800160010185558215613894579182015b82811115613893578251825591602001919060010190613878565b5b5090506138a191906138a5565b5090565b6138c791905b808211156138c35760008160009055506001016138ab565b5090565b905600a165627a7a7230582005717e59b0a97af1fa3c6e29ac3649da01fcf3894dbe8128cc252a9e810c52790029",
  "source": "pragma solidity ^0.4.23;\r\n\r\nimport \"./Ownable.sol\";\r\n\r\ncontract OriginUser is Ownable{\r\n\r\n    struct UserStruct{\r\n        string fullName;\r\n        string dateOfBirth;\r\n        string email;\r\n        string role;\r\n        string brand;\r\n        bool active;\r\n        uint index;\r\n    }\r\n\r\n    mapping (address => UserStruct) private userStructs;\r\n    address[] private userIndex;\r\n\r\n\r\n    event NewUser(string _fullName, string _dateOfBirth, string _email, string _role, string _brand);\r\n    event UpdateUser(string _fullName, string _dateOfBirth, string _email, string _role, string _brand, bool active);\r\n\r\n    function isUser(address _userAddress) internal constant returns(bool isIndeed) {\r\n        if(userIndex.length == 0) return false;\r\n        return (userIndex[userStructs[_userAddress].index] == _userAddress);\r\n    }\r\n\r\n\r\n    function insertUser(string _fullName, string _dateOfBirth, string _email, string _role, string _brand) public unpausedSupplyChain returns (uint index){\r\n        require(!isUser(msg.sender));\r\n        userStructs[msg.sender].fullName = _fullName;\r\n        userStructs[msg.sender].dateOfBirth = _dateOfBirth;\r\n        userStructs[msg.sender].email = _email;\r\n        userStructs[msg.sender].role = _role;\r\n        userStructs[msg.sender].brand = _brand;\r\n        userStructs[msg.sender].active = true;\r\n        userStructs[msg.sender].index = userIndex.push(msg.sender) - 1;\r\n        \r\n        emit NewUser(_fullName, _dateOfBirth, _email, _role, _brand);\r\n\r\n        return userIndex.length - 1;\r\n    }\r\n\r\n    function getUser(address _userAddress) view public unpausedSupplyChain returns (string _fullName, string _dateOfBirth, string _email, string _role, string _brand, bool active){\r\n        require(isUser(_userAddress));\r\n        require(userStructs[_userAddress].active);\r\n        return (userStructs[_userAddress].fullName, userStructs[_userAddress].dateOfBirth, userStructs[_userAddress].email, userStructs[_userAddress].role, userStructs[_userAddress].brand, userStructs[_userAddress].active);\r\n    }\r\n\r\n    function updateUserFullName(string _fullName) public unpausedSupplyChain returns(bool success){\r\n        require(isUser(msg.sender));\r\n        require(userStructs[msg.sender].active);\r\n        userStructs[msg.sender].fullName = _fullName;\r\n        emit UpdateUser(userStructs[msg.sender].fullName, userStructs[msg.sender].dateOfBirth, userStructs[msg.sender].email, userStructs[msg.sender].role, userStructs[msg.sender].brand, userStructs[msg.sender].active);\r\n        return true;\r\n    }\r\n\r\n    function updateUserDateOfBirth(string _dateOfBirth) public unpausedSupplyChain returns(bool success){\r\n        require(isUser(msg.sender));\r\n        require(userStructs[msg.sender].active);\r\n        userStructs[msg.sender].dateOfBirth = _dateOfBirth;\r\n        emit UpdateUser(userStructs[msg.sender].fullName, userStructs[msg.sender].dateOfBirth, userStructs[msg.sender].email, userStructs[msg.sender].role, userStructs[msg.sender].brand, userStructs[msg.sender].active);\r\n        return true;\r\n    }\r\n\r\n    function updateUserEmail(string _email) public unpausedSupplyChain returns(bool success){\r\n        require(isUser(msg.sender));\r\n        require(userStructs[msg.sender].active);\r\n        userStructs[msg.sender].email = _email;\r\n        emit UpdateUser(userStructs[msg.sender].fullName, userStructs[msg.sender].dateOfBirth, userStructs[msg.sender].email, userStructs[msg.sender].role, userStructs[msg.sender].brand, userStructs[msg.sender].active);\r\n        return true;\r\n    }\r\n\r\n    function deactivateUser() public unpausedSupplyChain returns(bool success){\r\n        require(isUser(msg.sender));\r\n        require(userStructs[msg.sender].active);\r\n        userStructs[msg.sender].active = false;\r\n        emit UpdateUser(userStructs[msg.sender].fullName, userStructs[msg.sender].dateOfBirth, userStructs[msg.sender].email, userStructs[msg.sender].role, userStructs[msg.sender].brand, userStructs[msg.sender].active);\r\n        return true;\r\n    }\r\n\r\n    function activateUser(address _userAddress) public onlyOwner returns(bool success){\r\n        require(isUser(_userAddress));\r\n        require(!userStructs[_userAddress].active);\r\n        userStructs[_userAddress].active = true;\r\n        emit UpdateUser(userStructs[_userAddress].fullName, userStructs[_userAddress].dateOfBirth, userStructs[_userAddress].email, userStructs[_userAddress].role, userStructs[_userAddress].brand, userStructs[_userAddress].active);\r\n        return true;\r\n    }\r\n    \r\n    function ownerDeactivatesUser(address _address) public onlyOwner returns(bool success){\r\n        require(isUser(_address));\r\n        require(userStructs[_address].active);\r\n        userStructs[_address].active = false;\r\n        emit UpdateUser(userStructs[_address].fullName, userStructs[_address].dateOfBirth, userStructs[_address].email, userStructs[_address].role, userStructs[_address].brand, userStructs[_address].active);\r\n        return true;\r\n    }\r\n\r\n    function getUserCount() view public unpausedSupplyChain returns(uint count){\r\n        return userIndex.length;\r\n    }\r\n}",
  "sourcePath": "C:\\Users\\ab\\Desktop\\web apps\\projects\\origin\\contracts\\OriginUser.sol",
  "compiler": {
    "name": "solc",
    "version": "0.4.24+commit.e67f0147.Emscripten.clang"
  },
  "schemaVersion": "2.0.1",
  "updatedAt": "2018-08-16T15:36:41.129Z"
}