{
  "contractName": "Ownable",
  "abi": [
    {
      "constant": true,
      "inputs": [],
      "name": "paused",
      "outputs": [
        {
          "name": "",
          "type": "bool"
        }
      ],
      "payable": false,
      "stateMutability": "view",
      "type": "function"
    },
    {
      "constant": true,
      "inputs": [],
      "name": "owner",
      "outputs": [
        {
          "name": "",
          "type": "address"
        }
      ],
      "payable": false,
      "stateMutability": "view",
      "type": "function"
    },
    {
      "inputs": [],
      "payable": false,
      "stateMutability": "nonpayable",
      "type": "constructor"
    },
    {
      "anonymous": false,
      "inputs": [],
      "name": "SupplyChainPaused",
      "type": "event"
    },
    {
      "anonymous": false,
      "inputs": [],
      "name": "SupplyChainUnPaused",
      "type": "event"
    },
    {
      "anonymous": false,
      "inputs": [],
      "name": "OwnerChanged",
      "type": "event"
    },
    {
      "constant": false,
      "inputs": [
        {
          "name": "_newOwner",
          "type": "address"
        }
      ],
      "name": "changeOwner",
      "outputs": [],
      "payable": false,
      "stateMutability": "nonpayable",
      "type": "function"
    },
    {
      "constant": false,
      "inputs": [],
      "name": "pauseSupplyChain",
      "outputs": [],
      "payable": false,
      "stateMutability": "nonpayable",
      "type": "function"
    },
    {
      "constant": false,
      "inputs": [],
      "name": "unPauseSupplyChain",
      "outputs": [],
      "payable": false,
      "stateMutability": "nonpayable",
      "type": "function"
    }
  ],
  "bytecode": "0x608060405234801561001057600080fd5b5060008054600160a060020a031916331790556102e9806100326000396000f30060806040526004361061006c5763ffffffff7c0100000000000000000000000000000000000000000000000000000000600035041663070aff1c81146100715780635c975abb146100885780635f38a969146100b15780638da5cb5b146100c6578063a6f9dae1146100f7575b600080fd5b34801561007d57600080fd5b50610086610118565b005b34801561009457600080fd5b5061009d610193565b604080519115158252519081900360200190f35b3480156100bd57600080fd5b506100866101a3565b3480156100d257600080fd5b506100db61021c565b60408051600160a060020a039092168252519081900360200190f35b34801561010357600080fd5b50610086600160a060020a036004351661022b565b600054600160a060020a0316331461012f57600080fd5b60005460a060020a900460ff161561014657600080fd5b6000805474ff0000000000000000000000000000000000000000191660a060020a1781556040517f9f169b4d6224654508c3ec6cf2a95651d3f144d8b96ab8742b58ac24816502b79190a1565b60005460a060020a900460ff1681565b600054600160a060020a031633146101ba57600080fd5b60005460a060020a900460ff1615156001146101d557600080fd5b6000805474ff0000000000000000000000000000000000000000191681556040517f1f9a5f2ae53bba1390ac0766ace24e59e82481665cf401fa45dcfd1dcce14fb39190a1565b600054600160a060020a031681565b600054600160a060020a0316331461024257600080fd5b60005460a060020a900460ff161561025957600080fd5b600160a060020a03811615610291576000805473ffffffffffffffffffffffffffffffffffffffff1916600160a060020a0383161790555b6040517fa210d63b5a22487066397c631c738bc560e60390098601461599961c472139f090600090a1505600a165627a7a723058205c17a1a7a74da0e5d75e253622393a7814fa0a8a06d48af733d03f299db704b50029",
  "source": "pragma solidity ^0.4.23;\r\n\r\ncontract Ownable{\r\n    address public owner;\r\n    bool public paused;\r\n\r\n    event SupplyChainPaused();\r\n    event SupplyChainUnPaused();\r\n    event OwnerChanged();\r\n\r\n    modifier onlyOwner(){\r\n        require(msg.sender == owner);\r\n        _;\r\n    }\r\n\r\n    modifier unpausedSupplyChain(){\r\n        require(paused == false);\r\n        _;\r\n    }\r\n\r\n    modifier pausedSupplyChain(){\r\n        require(paused == true);\r\n        _;\r\n    }\r\n\r\n    constructor() public {\r\n        owner = msg.sender;\r\n    }\r\n\r\n    function changeOwner(address _newOwner) public onlyOwner unpausedSupplyChain{\r\n        if(_newOwner != address(0)){\r\n            owner = _newOwner;\r\n        }\r\n        emit OwnerChanged();\r\n    }\r\n\r\n    function pauseSupplyChain() public onlyOwner unpausedSupplyChain{\r\n        paused = true;\r\n        emit SupplyChainPaused();\r\n    }\r\n\r\n    function unPauseSupplyChain() public onlyOwner pausedSupplyChain{\r\n        paused = false;\r\n        emit SupplyChainUnPaused();\r\n    }\r\n\r\n}",
  "sourcePath": "C:\\Users\\ab\\Desktop\\web apps\\projects\\origin\\contracts\\Ownable.sol",
  "compiler": {
    "name": "solc",
    "version": "0.4.24+commit.e67f0147.Emscripten.clang"
  },
  "schemaVersion": "2.0.1",
  "updatedAt": "2018-08-18T14:40:26.592Z"
}